:020000041000EA
:1000000000B50C4B00219960042159610A4919601F
:100010000A490B480160002159600121996001BC27
:10002000002800D0004707480749086003C880F34C
:10003000088808470000001800031F00180200038A
:10004000F40000180001001008ED00E000000000BE
:1000500000000000000000000000000000000000A0
:100060000000000000000000000000000000000090
:100070000000000000000000000000000000000080
:100080000000000000000000000000000000000070
:100090000000000000000000000000000000000060
:1000A0000000000000000000000000000000000050
:1000B0000000000000000000000000000000000040
:1000C0000000000000000000000000000000000030
:1000D0000000000000000000000000000000000020
:1000E0000000000000000000000000000000000010
:1000F0000000000000000000000000002CEC210DBA
:1001000000200420F7010010C3010010E1390110A4
:10011000C1010010C1010010C1010010C101001097
:10012000C1010010C1010010C1010010C701001081
:10013000C1010010C1010010C9010010CB01001065
:10014000CD010010CD010010CD010010CD01001037
:10015000CD010010CD010010CD010010CD01001027
:10016000CD010010CD010010CD010010CD01001017
:10017000CD010010CD010010CD010010CD01001007
:10018000CD010010CD010010CD010010CD010010F7
:10019000CD010010CD010010CD010010CD010010E7
:1001A000CD010010CD010010CD010010CD010010D7
:1001B000CD010010CD010010CD010010CD010010C7
:1001C00000BE00BE00BE00BE00BE00BEEFF3058054
:1001D000103800BEF2EB887188A10510BCA1051093
:1001E0003802001090A31AE71E481F49086006C88D
:1001F00081F3088810471D480068002801D019487D
:10020000F3E70DA40ECC002902D000F012F8F9E7B4
:100210001749184A002000E001C19142FCD116495B
:100220008847164988471649884700BEFDE701C937
:1002300001C29A42FBD37047BCA1051040010020C7
:1002400038360020B4D60510000004200000042039
:10025000B4D6051000100420001004200000000097
:10026000704700000000000008ED00E0000000D032
:1002700038360020747100200D560010250A001039
:10028000D1550010F8B5C0460448054B10B583425F
:1002900003D0044B002B00D0984710BD3836002007
:1002A000383600200000000006480749091A8B1064
:1002B000C90FC91810B5491003D0044B002B00D04A
:1002C000984710BD38360020383600200000000066
:1002D00010B5074C2378002B09D1FFF7D5FF054B4C
:1002E000002B02D0044800E000BF0123237010BDA2
:1002F000B03D0020000000003CD10410054B10B5BB
:10030000002B03D00449054800E000BFFFF7CCFFF5
:1003100010BDC04600000000B43D00203CD10410D8
:10032000092806D00B2800D0704701220A4B1A700A
:10033000FAE70A4A136801331360D0231B065B688F
:10034000074A5B0603D41368013B1360ECE71368AC
:1003500001331360E8E7C0466B710020FC6F00209A
:10036000D06B002010B508F019FC1F211D2001F0F2
:100370007BFB002200211D2001F09AFB00211D20A3
:1003800001F08AFC394B0B201A68C0239B015340B3
:10039000E022D2011340364AD024136001F090FCD1
:1003A000802324061B01A362012200210B2001F0FF
:1003B0007FFB0421002001F057FB2E4B2E481A68CA
:1003C00093009B182D4A9B0099182D4A18184A60D3
:1003D000FF220A612B4A9A1812681204120C02605A
:1003E0000122096806208A4327498C4663441A6023
:1003F00001F066FC40230920636201F061FC802368
:100400009B00A36200220121092001F051FB08207A
:1004100001F056FC80235B00A3620022012108202A
:1004200001F046FB19491A4808F07AFB03210C2019
:1004300001F01AFB03210D2001F016FB002201211F
:100440000C2001F035FB002201210D2001F030FBD2
:10045000E1211048490202F0CFFC0221182001F0EE
:1004600003FB0221192001F0FFFA10BD00C0044077
:1004700000D00440447100200C10054000000540ED
:100480000D0300000C00054000100540801A060016
:10049000202B002000800340002310B5104C82B0B8
:1004A0002372104B4022009380213C23200001F056
:1004B00059F800280FD0200001F0FAF80A4B20006C
:1004C000009302220123002101F0FAF8200001F03C
:1004D0002BF902B010BD054805F070FAF9E7C046E7
:1004E00000700020202B002040D1041050D10410B7
:1004F000F0B55746DE464E4645468A4BE0B51C6889
:1005000097B0E30F9A46E317E4185C40092C00D833
:10051000EFE0632C00D8B1E0FA239B009C4200D2AC
:10052000F6E0814B9C4200D8F5E0804B20009846D5
:100530007F4B012799467F4B7F4D9B4608E0464500
:1005400000D8B4E04E4500D8C1E05E4500D8C1E017
:100550007A49060002F078FF39000437AE42EED83F
:10056000CD1C0AAB9B4639000CAB51442D2258469A
:1005700003930A9331F0C4F80A9B9C46E244704B03
:10058000013D9846684B554499462000642102F08D
:100590005BFF20004E00642102F056FF43469B198A
:1005A0005B7827006B7043469B5D04002B70023D17
:1005B0004F45EAD8FA239B009F426FD23034E4B211
:1005C00053461C700D230022009300215D4B5846BA
:1005D00031F0E6F9050012AE109603680835040004
:1005E000AB4200D179E01093836812936368119352
:1005F00000236360119A2372534B256002929A4242
:1006000000D18BE00122514910A831F08DFA07008A
:1006100006AD0495036808370400BB4263D0049319
:1006200083680693636805930023276010986360CE
:100630002372B04203D01299013103F031FC0A98C1
:10064000039B984204D05B469968013103F028FC73
:10065000049B3F48009314220123002101F030F84D
:100660000498A84203D00699013103F019FC17B091
:10067000F0BCBB46B246A946A046F0BD0AAB9B46BD
:100680000CAB03930A9353462D22991C584631F024
:1006900037F80A9B9C462A4BE2449846434652460A
:1006A00064001B195B78537043461C5D88E70AABF6
:1006B0009B4605310CAB51442D22584603930A93B7
:1006C00031F01EF80A9B3D009C46E24457E78F1D1F
:1006D0004D1D46E7CF1D8D1D43E710222900300038
:1006E00003F0C8FB82E710223900280003F0C2FBA8
:1006F00098E70AAB9B460CAB03930A9353462D2213
:10070000591C584630F0FCFF0A9B9C46E24455E7D2
:100710000225032725E70325042722E70D4826F0B5
:10072000E1FBC046507100200F2700003F420F0040
:100730007F969800FFE0F5059F86010010270000D6
:100740004CD3041058D20410FFFFFF3F80D2041096
:100750000070002068D20410194B10B51B780400FB
:10076000042B21D8174A9B00D358083020609F469D
:100770000722154903F07EFB072363600023E37320
:10078000200010BD07221149F4E70422104903F0AC
:1007900071FB0423636000232373F1E707220D49F3
:1007A000E8E707220C49E5E708300B220B492060F7
:1007B00003F060FB0B2363600023E374E0E7C046B3
:1007C00070710020B8D204109CD20410A4D204107E
:1007D00084D204108CD2041094D20410ACD2041031
:1007E00008B4F0B50D00110082B01C236E46040061
:1007F000C81D00AFC008FB18C000301A04CB8546E6
:100800003B60A8470500200008306E4620607D60F0
:100810000F2D10D8012D0BD1337823720023656082
:10082000BD464355200002B0F0BC08BC01B01847DB
:10083000002DF3D007E000222000391D30F042FFE8
:100840007B682060A3602A00310003F013FB7D6801
:100850002068E3E770B5224B8EB0186803F094FA75
:100860003A22009001911F4B1F4908A8FFF7B8FFDB
:1008700005230022009300211C4B08A831F090F8BA
:10088000060004AD0295036808360400B34221D087
:100890000293836804936368039300232660089897
:1008A000636023720AAB984203D00A99013103F0C6
:1008B000F7FA029B0E48009314220123002100F056
:1008C000FFFE0298A84203D00499013103F0E8FA30
:1008D0000EB070BD10223100280003F0CBFADAE729
:1008E00038700020CCD2041075540010D0D20410FF
:1008F0000070002070B5224B8EB0186803F044FAE7
:100900003A22009001911F4B1F4908A8FFF768FF8A
:1009100009230022009300211C4B08A831F040F865
:10092000060004AD0295036808360400B34221D0E6
:1009300002938368049363680393002326600898F6
:10094000636023720AAB984203D00A99013103F025
:10095000A7FA029B0E48009328220123002100F0F1
:10096000AFFE0298A84203D00499013103F098FA2F
:100970000EB070BD10223100280003F07BFADAE7D8
:10098000D46B0020CCD2041075540010D8D20410BF
:100990000070002010B51B4C82B0200000F088FED3
:1009A000194B1B78052B0FD8184A9B00D3589F462C
:1009B000174B0222002120000093022300F080FE4A
:1009C000FFF748FFFFF796FF200000F0ADFE02B0F2
:1009D00010BD104B0222009300210223200000F0E2
:1009E0006FFEF1E70C4B022200212000009302234E
:1009F00000F066FEFFF77CFDE6E7084BF3E7084BE7
:100A0000D7E7C0460070002070710020F0D20410BB
:100A100094D20410E4D204108CD204109CD204109E
:100A2000A4D20410F0B5DE4657464E464546E0B522
:100A30009BB013F0D5FCE54805F04AF8002005F01E
:100A40007FFC04F067FF002001F03AF9D023012475
:100A50001B06DF489C6102F0D1F8FFF783FCFFF72B
:100A60001BFD0023DB4ADC491370DC4B402211A83C
:100A70001C7013F0CDFCDA4ADA4911A813F0CEFC51
:100A8000D94B01220421092001F09EF80122042102
:100A90000B2001F06DF8D54BD54F9846D54B9A46B3
:100AA000D54B9B46D54B994602F044F9002900D11D
:100AB000F1E0FA220023920002F004FDD04B0D90E9
:100AC0001B78002B00D0F0E002F034F902000B009C
:100AD00004000D0038687968121A8B411100002B50
:100AE00003DC16D1C74B994213D9C74B186803F0E2
:100AF000F5F8C64903F083F8C54903F080F8C54905
:100B000003F091F8C44BC04A186000233C607D603C
:100B1000136011A813F0AEFCC04903F084F84346FB
:100B2000186053461D68041C052D00D1B3E26E1CED
:100B3000BB4BAD0059595B46186803F05AF8211CAD
:100B400003F05AF85B461860B54BB6495C51534602
:100B50001E6003F054F89F4B051C1B78052BA3D88F
:100B6000B14A9B00D3589F46B04B186802F03EFF35
:100B70000022AF4B02F0ADFEC022AE4B120602F0D7
:100B8000A8FE02F0A3FFFC21890503F04CF80E90AB
:100B9000FE20A94B80051E68311C03F02AF8A74BE4
:100BA000196803F040F8311C0F90201C03F03BF84B
:100BB000011C0F9803F020F8A04B186014AB18002C
:100BC000FFF7CAFD0E9803F0DFF80A900B91924BE5
:100BD000149C186803F0D8F808900991281C03F0B9
:100BE000D3F806900791954B186803F0CDF843466B
:100BF00004900591186803F0C7F80D9B02900391CB
:100C000000930023220001938D498E480DF0E4FCEF
:100C1000149816AB984204D0169B591C0D9303F000
:100C20003FF9894B186803F059F8804B041C186889
:100C300002F0DCFE00227E4B02F04BFEC0227D4B18
:100C4000120602F046FE02F041FF011C201C03F0D8
:100C50002FF8D02340221B06002800D11EE25A6143
:100C60004B467A491A688C4693009B18784A9B0039
:100C70009A18126863441204120C1A600523554A2C
:100C80001370FFF787FE0523544A137002F052F8E1
:100C9000002900D00DE7FA21890002F0D5FB584B5E
:100CA0000D901B78002B00D10EE702F043F80200F4
:100CB0000B0068490A604B6038687968121A8B41EA
:100CC0001100002B05DC00D0FEE6634B994200D8F2
:100CD000FAE6D0231B065B681B0506D43F4B3D4A52
:100CE0001B781370022B00D1FEE10023444A1370DD
:100CF000EAE6D02340221B069A614B4653491A6804
:100D00008C4693009B18524A9B009A1812686344C1
:100D10001204120C51491A604A480DF05DFCFA2485
:100D20008021002004254E4E4E4AA4004900356023
:100D300013680B42FCD05368013C1B041B0CC01809
:100D4000002CF4D102F052FE0022474B02F0C1FD0C
:100D5000464A474B02F0D7FD0022464B02F0B4FD55
:100D600002F05CFE444B186002F0B8FF434902F009
:100D700046FF434902F057FF02F0D2FF414B188073
:100D8000FFF708FE0423154A13708DE62D480DF079
:100D9000E7FB00223C4900200CF0A8FAD0234022B7
:100DA0001B065A614B4629491A688C4693009B18CA
:100DB000274A9B009A18126863441204120C1A60A6
:100DC000FFF7E8FD0123054A13706DE608D3041010
:100DD000B80B000070710020202B00206F710020E4
:100DE000CDCC4C40CDCCCC3D21030010D46B0020A9
:100DF000A83C0020503F0020543F002044710020B8
:100E00006B7100203F420F00FC6F0020000040414A
:100E1000560E0842000070423870002000007A44EC
:100E20003C3F00200000A04034D30410D06B0020D1
:100E300000002840CA014140CC260020F46F002069
:100E400010D30410D0370020846B00200C10054014
:100E50000C000540403600200F27000028D3041066
:100E600000E0044000C0044000408F40C3D32B6525
:100E700019E2983F0000F03F507100200000C84286
:100E800000007F4364710020F4D1041005F04EFA95
:100E90000122A249A2480CF029FA002005F0C2FA6A
:100EA000D02340221B065A614B469E49FA248C46A9
:100EB0008021002004251A689B4E93009B189B4AB2
:100EC0009B009A18126863441204120C1A60984A24
:100ED000A4004900356013680B42FCD05368013C04
:100EE0001B041B0CC018002CF4D102F07FFD002263
:100EF000904B02F0EEFC904A904B02F004FD002271
:100F00008F4B02F0E1FC02F089FD8E4B186002F07D
:100F1000E5FE8D4902F073FE8C4902F084FE02F07A
:100F20002DFF8B4B1880FFF735FD0223894A137084
:100F3000BAE50022794900200CF0D8F901200021FF
:100F4000404205F0BFFAD02340221B065A614B46AF
:100F500074491A688C4693009B18744A9B009A182F
:100F6000126863441204120C1A600123794A137048
:100F70009AE5794B186802F039FD0022774B02F0B0
:100F8000A8FCC022764B120602F0A3FC02F09EFDE4
:100F9000FC21890502F047FE0E90FE20714B800572
:100FA0001E68311C02F025FE6F4B196802F03BFEF3
:100FB000311C0F90201C02F036FE011C0F9802F02D
:100FC0001BFE694B186014AB1800FFF7C5FB0E98A9
:100FD00002F0DAFE0A900B91644B149C186802F040
:100FE000D3FE08900991281C02F0CEFE06900791CE
:100FF0005D4B186802F0C8FE4346049005911868DE
:1010000002F0C2FE0D9B0290039100930023220088
:101010000193574957480DF0DFFA149816AB9842E0
:1010200004D0169B591C0D9302F03AFF524B1868DE
:1010300002F054FE484B041C186802F0D7FC002252
:10104000464B02F046FCC022454B120602F041FC22
:1010500002F03CFD011C201C02F01CFED0234022AB
:101060001B0600282DD09A614B462E491A688C46E3
:1010700093009B182D4A9B009A181268634412042F
:10108000120C1A6003233D4A1370FFF783FC0323FD
:10109000304A137008E50126002549E59A614B4660
:1010A0001A6893009B18214A9B009A181168284AD5
:1010B00012884A401B4912048C46120C63441A6081
:1010C000DFE55A614B461A6893009B18174A9B004C
:1010D0009A1811681E4A12884A40124912048C4616
:1010E000120C63441A60D0E70622254921480CF00F
:1010F000E1F9002408280CD10134220021492048BC
:1011000004F090F906221E491A480CF0D3F9082879
:10111000F2D01D4917480DF05FFAE6E5F4D104104E
:10112000303A00200C10054000E004400C0005405F
:1011300000C0044000408F40C3D32B6519E2983FA4
:101140000000F03F507100200000C84200007F43C3
:10115000647100206F710020D06B002000002840D7
:10116000CA014140CC260020F46F002038700020D6
:1011700010D30410D0370020C82600207071002042
:10118000B42600206CD1041078D1041010B50E489C
:1011900013F09CFB01F0CEFD0C4B1860596001F080
:1011A000C9FD0B4B0B4A18605960002313600A4AB3
:1011B000136001F0BFFD094B1860596001F0BAFDE2
:1011C000074B1860596010BDB0550020A83C0020A6
:1011D0004036002044710020906B0020A03C00208D
:1011E0003836002001207047002801D1014870479F
:1011F0000020FCE7D0260020F0B5C64600B588B038
:10120000984602AB17001A00104C8C4622CC22C222
:1012100015000F4C43CC43C221780E4C11700E4A7E
:10122000604601920821220004F010F92B002200F0
:101230001021380004F00AF922000421404601ABD5
:1012400004F004F908B080BCB846F0BD1CD404100A
:1012500024D4041018D40410312E300010B512F02C
:10126000FDFC032303405A425341D8B210BDC0468F
:1012700070B504000D00160012F0F0FC830705D0D5
:1012800000232B6080239B00338070BD2A00012146
:10129000200012F05BFD0028F2D1F3E770B51C00CE
:1012A0000125002B05D0002A05D000211500084B90
:1012B0001970280070BD0022002112F047FD00289F
:1012C00003D1034B1D702500F3E70025F1E7C0466D
:1012D0006D71002070B51D000D4B04001B780E00D1
:1012E00082B0002B11D112F0B9FC83070DD1069BFF
:1012F00032005B0A009329000023200012F0CEFC8C
:10130000002802D1069802B070BD01204042FAE7E1
:101310006D710020074B10B51A780023002A06D102
:1013200012F090FC0123800858400123034018006C
:1013300010BDC0466D71002070B51D000D4B04003E
:101340001B780E0082B0002B11D112F087FC8307AE
:101350000DD1069B32005B0A009329000023200078
:1013600012F0C8FC002802D1069802B070BD01201E
:101370004042FAE76D71002010B5002320220521BC
:1013800006F020FA0120404210BDC04600487047D8
:1013900078D40410004870478CD4041070B500282D
:1013A00026D0052831D81A4B8000C658300041F0AD
:1013B00097F9C0B2011C1F2815D8C9B2002821D046
:1013C0000023144DAA1CF05C0133DCB21080023201
:1013D000A142F8D8C0230131C9B249009B0019438A
:1013E0002800298070BD1F21C9B20028E8D109E07A
:1013F000084D074B02221968A81C02F03BFDC121D1
:101400008900EDE70449034DEAE70020EAE7C0461A
:10141000FC2900209858002002030000F0B54E4639
:101420004546DE465746E0B58FB01E00019318AB27
:1014300020CB0B91197807230C91297806950B4046
:101440005C1EA341C90859186B780791002B00D185
:1014500081E000297FD0013A0D920122F1009246ED
:10146000089106320021934604000A910A98069AD0
:1014700084460C99D2788A1A53430199079A634497
:1014800053430A0042430B98053384466244029258
:101490008C460A000993534600210D989B1A60441C
:1014A000049003910593099A069B9446039A63441A
:1014B0009B5C019D984608239C46029B049F99468D
:1014C0004D442B00454698460AE06346013BDBB29B
:1014D0009C46019B6D08994663464F44002B27D0DC
:1014E00053462B42F1D0059B9946019BB944002BF2
:1014F000EBD0029923784A468B4215D96078824214
:101500000CD2D0084343584656461040864030001F
:10151000E6685B18F65C3043E668F054BA4203D0E4
:10152000237801328B42E9D801314145E2D1CCE741
:101530000899049A8C46039B62440492079A0133EB
:1015400003939A42AFD10A9A069B01325B78D2B2DA
:101550000A929A428AD30FB0F0BCBB46B246A94663
:10156000A046F0BDF0B5DE464E4645465746E0B5CE
:101570008BB01F00149B06009B46D3B273701500FE
:101580009846D3085A46C8B2DBB230705843B3709D
:101590003061F77072600130894602F02FFCF06014
:1015A000002800D174E03B4B03AC03934346013B5E
:1015B0002371D32363718023DB01E3808D232372A6
:1015C000337A0130F060002B48D114236372324B20
:1015D0006D006381DA232373A94551DD0223637310
:1015E000813BE3815933FF332374183363742B4BEE
:1015F00002AD63822A4B08930023237625336B4484
:101600009A46284B9846284B99460BE0431C03D139
:101610004146264804F05CFA0134544516D07368FC
:10162000F7789B46002322782B706A70390000936C
:101630002A000233584607F09DFA831CE6D1414642
:101640004846013404F044FA5445E8D101200BB077
:10165000F0BCBB46B246A946A046F0BD102363725B
:101660000D4B6D006381DA232373A9450CDCC83B65
:101670006373913BE3815933FF332374B73BB5E781
:1016800012236373913BACE702236373813BF1E761
:101690003061DCE7AED580A8A1C8FFFFDB300000D9
:1016A000A4A6AF20F0D4041020D5041000D5041057
:1016B000030010B50021C0681A6902F0D5FB10BD07
:1016C000F0B54E4645465746DE46E0B583B00C9D24
:1016D00081462C78924698460E00002C16D05F006A
:1016E000104B47449B467F002300203B01355E2B77
:1016F00013D85B4631000194009352464346484656
:10170000FFF78CFE2C78F619002CEDD103B0F0BC5D
:10171000BB46B246A946A046F0BD2C78F619002C6F
:10172000E2D1F3E740D50410F0B5CE464746212379
:1017300080B5027887B004AC511E2370A1700023DD
:1017400022216370E170237183780600013B63718D
:10175000402A03D1202363703F33A3701627224B06
:101760006F449846214B03AD994608E0431C03D1D2
:1017700041461F4804F0ACF90134A74213D00023BE
:1017800022782B706A70F17800932A000233706817
:1017900007F0F0F9831CE9D141464846013404F0D2
:1017A00097F9A742EBD140220024F368013B1A705D
:1017B0003369F2680133F1787068013A009407F0F8
:1017C000D9F9831C0AD0431C03D10A49084804F004
:1017D0007FF907B0C0BCB946B046F0BD0549034823
:1017E00004F076F9F5E7C046F0D4041020D50410D3
:1017F00000D5041030D50410D0231B061B68F0B5AB
:101800009A00454690464146934ADE46525857460E
:1018100093465A1E934130224E465B421A401300B3
:101820008E4AE0B5944683B0634401938C4B0826FE
:101830009A463500083DEA081300019908339B00D9
:101840005C58002C27D05B46002B2ED001230F279D
:10185000994639002140274217D0524640462B0076
:101860001258203BEA40DB1713404A4613420CD182
:10187000072208002A40920090400200EB087948B5
:101880003C339B001A502800D84724090135002C0E
:1018900001D0B542DDD30836282ECAD103B0F0BC42
:1018A000BB46B246A946A046F0BD0F231800204013
:1018B000234209D041466A4B59583300E940283B3E
:1018C000DB0F0B4200D197E02309F11F002BE2D080
:1018D0000F22100018401A4211D04246604B9A580D
:1018E0003300CA40273BDB0F134208D10722CB0845
:1018F0001140890088405B4A3C339B009850230A82
:10190000B11F002BC7D00F22100018401A4211D06F
:101910004246534B9A583300CA40263BDB0F1342D2
:1019200008D10722CB081140890088404D4A3C333A
:101930009B009850230B711F002BACD00F2210007E
:1019400018401A4245D1230C311F002BA3D00F227F
:10195000100018401A4258D1230DF11E002B9AD0C6
:101960000F22100018401A4262D1230EB11E002B24
:1019700091D00F22100018401A4211D04246384B25
:101980009A583300CA40223BDB0F134208D107228A
:10199000CB08114089008840324A3C339B00985064
:1019A000240F711E002C00D175E7534642469A5809
:1019B0003300CA40213BDB0F134200D06BE7072204
:1019C000CB08114089008C40264A3C339B009C5038
:1019D00061E74246224B9A583300CA40253BDB0F51
:1019E0001342B0D10722CB081140890088401D4A1C
:1019F0003C339B009850A6E707231D40AD00A8404C
:101A0000184B3C329200D0505EE74246144B9A5835
:101A10003300CA40243BDB0F13429DD10722CB0881
:101A20001140890088400F4A3C339B00985093E74F
:101A300042460B4B9A583300CA40233BDB0F1342FC
:101A400093D10722CB08114089008840054A3C33D6
:101A50009B00985089E7C046886B002000410140F8
:101A6000287000200040014010B54024084A83003F
:101A70009A181268C0005440C0222240054CA44667
:101A800063441A60044B9C466044416010BDC046EC
:101A900004C0014004D0014000400140034BC0009D
:101AA0009C46604443681F20184070470040014036
:101AB0000B4B80009C46604400290ED1002304316A
:101AC000002A00D11900802203685201594094462F
:101AD0000C2360440B40036070470C210823EFE7A0
:101AE00004C00140064BC000C3181B6809045940DC
:101AF000C0239B021940034B9C4660440160704721
:101B00000440014004500140064BC000C3181B684C
:101B100009035940C0239B011940034B9C46604474
:101B2000016070470440014004500140054B8000B3
:101B3000C3181B684B4001211940034B9C4660446D
:101B40000160704704C0014004D00140064B800092
:101B5000C3181B680901594030231940034B9C46A8
:101B6000604401607047C04604C0014004D0014099
:101B7000D0231B061B6830B50500581E8341104852
:101B80005C42844607203023284023408000EC0834
:101B9000814020000B4D3C3063448000A400415143
:101BA0001B19002A05D080229201944663441960D3
:101BB00030BDC0229201944663441960F8E7C046E4
:101BC0000041014000400140F8B545469846D02309
:101BD0001B06DE461C689B462B4B57469A46A300C5
:101BE0004E469946E0B5534616004A469B580700B4
:101BF0000D00002B34D04346002B3FD053464A46BD
:101C000041469950D0231B061C6807201F4A631EBB
:101C10009C419446FA0811003023384080008540EA
:101C200064421B4823403C316344890092000D50BC
:101C30009B18002E0ED0802292019446634401210D
:101C40000D201D6000F084F9F0BCBB46B246A946E9
:101C5000A046F8BDC0229201944663441D60F3E79C
:101C60004346002BD1D0534641460D2099500022C7
:101C7000084900F0A9F95B461C68C6E70D20054934
:101C800000F096FABAE7C046886B00200041014098
:101C900000400140F91700108000002905D0064BD4
:101CA0009C464023604403607047044B9C4640239D
:101CB00060440360F8E7C04604E0014004F00140DE
:101CC0000123D02283404021120693629361094A86
:101CD00083009A181268C0005140C0220A40064989
:101CE0008C4663441A60054B9C4605236044436060
:101CF0007047C04604C0014004D00140004001408C
:101D00004021094A83009A181268C0005140C0223D
:101D10000A4006498C4663441A60054B9C461F23C3
:101D2000604443607047C04604C0014004D0014095
:101D3000004001408023DB051868000F7047C04653
:101D40000FB400B5084883B003F038FE049B002BA5
:101D500007D005A91800019103F0CAFB034803F05E
:101D60002DFE012003F0DCFB20D7041018D2041054
:101D7000EFF3108072B6034A1368002BFCD0BFF358
:101D80005F8F70472C0100D0BFF35F8F0022024BA2
:101D90001A6080F3108870472C0100D070B5EFF303
:101DA000108C72B60D4D2B68002BFCD0BFF35F8FEB
:101DB0000724CB08C618C05C01230C40A3401C00BC
:101DC0000440034207D103433370BFF35F8F2C609D
:101DD0008CF3108870BD1000FFF7B2FF2C0100D00B
:101DE000F8B54746CE46884680B5EFF3108C72B6FC
:101DF000214D2C68002CFCD0BFF35F8F9A422CD869
:101E0000D4080727055D061901241740BC402C4261
:101E10001FD007210127894609E0D408055D06196E
:101E20004C4639001440A1400C00294211D0013227
:101E30009342F2D201204042BFF35F8F00220E4B4B
:101E40001A608CF3108800280FDBC0BCB946B0467E
:101E5000F8BD2C4310003470EEE7BFF35F8F002312
:101E60002B608CF31088012040424346002BECD0BD
:101E70000898FFF765FFC0462C0100D030B5EFF39E
:101E8000108C72B60A4C2368002BFCD0BFF35F8F16
:101E900007230122CD0819408A40435D93434355EF
:101EA000BFF35F8F002323608CF3108830BDC046E2
:101EB0002C0100D0044A1078431CDBB2172B00D948
:101EC000102313707047C046142A0020064B10B52B
:101ED000C31801009B00BFF35F8F002203481A6004
:101EE000FFF7CCFF10BDC046400000349C6B0020C3
:101EF00000B5054B83B00100009318221F2303484F
:101F0000FFF76EFF03B000BD30D704109C6B0020BC
:101F10000021044B044ABFF35F8F02C39342FAD1FE
:101F20007047C046000100D0800100D0054B064A32
:101F30001360064A136053609360D360136153616A
:101F4000936170478080808000E400E004E400E05A
:101F50001F2318401E3B8340002905D0C021044A9E
:101F60004900535013607047802201498B50FAE7B3
:101F700000E100E070B50D00EFF3108672B60F4A75
:101F80001368002BFCD0BFF35F8F0D4B10309B68A4
:101F900084001B590B4A934203D09D4201D001F0AB
:101FA0004DF9074B9B681D51BFF35F8FBFF35F8FE8
:101FB0000022024B1A6086F3108870BD240100D005
:101FC00000ED00E0CD010010F0B557464E46DE466C
:101FD0004546E0B585B0060002911700EFF3108B7F
:101FE00072B6674A1368002BFCD0BFF35F8F0025E1
:101FF000644B5D579A46002D00DAA4E06B00624CFA
:1020000003935B199B009846A146C1444B46524638
:102010009B79103613705D4BB2009B680192995802
:102020000B1B5F2B34D95A4B994200D0A4E0039B81
:10203000584A9C46584B6544AD00635343460233AF
:102040006519E418554B0121043B1B1B1B055B0D57
:1020500013436B80524BEF71AB80FF23AB71029B3C
:10206000AB604B460B431900484B019A9B68995053
:10207000BFF35F8FBFF35F8F0022414B1A608BF37A
:10208000108805B0F0BCBB46B246A946A046F0BDDC
:1020900001200A008243D379BB422FD845464E46E1
:1020A000130040491B1B5B415943090D3A4B6353D5
:1020B0003A4B02356519043B5B1B1B05354D5B0D27
:1020C0002B4373800426B446E0444444131F1B1B77
:1020D0004C46A17102991B05A16049465B0D2B433B
:1020E000A380314BE77101431360BDE75800C0186E
:1020F00080002018C679BE422BD902000623D35691
:10210000002BF3DA101D82462848804604267642CA
:10211000B446E14450464E46361A3005400D8246DC
:1021200056461C48957106439680039A944665442A
:102130001D4AAD00641922604246A371029BA28031
:10214000E771A36090E701F079F8002553465D57E9
:1021500054E7101D8246908840050015844640468D
:10216000D444664604302018301AE0260005400D9D
:10217000360230438046C9E701F060F857E7C046B1
:10218000240100D06E710020182A002000ED00E02C
:10219000CD01001000E0FFFF00A1FFFF782A002022
:1021A00001BDFFFFAAAA00000148804701BD000051
:1021B000F0B5DE4657464E464546E0B50C0083B0C6
:1021C000EFF3108972B65F4A1368002BFCD0BFF39F
:1021D0005F8F5D4B9A68030010339F00D5595B4AAF
:1021E000904695423DD0A5424ED0594EAA1B5F2A3B
:1021F00037D8584A9346126894460122614692465F
:10220000824011401F221040524682409246019166
:102210008022514658468150BFF35F8FEFF305820D
:102220009346002A32D101232A009A4390688442BF
:1022300008D17CE04B005B189B00F318986884423F
:102240002ED01A00062151560029F3DA84424DD0CF
:10225000019B002B1FD0C02251463E4B520099508B
:102260001960394B9B68DD51BFF35F8FBFF35F8F00
:102270000022344B1A6089F3108803B0F0BCBB46CF
:10228000B246A946A046F0BD1500EAE79342CAD07F
:1022900000F0D4FFC7E7802351462E4AD150E0E733
:1022A00006215956002922DB4A00501880003418B4
:1022B0008046A0689860E079D87106202056987111
:1022C000002825DBA488F01A64052415444400196D
:1022D000E0240005400D24022043988052181E4B34
:1022E0009200B6181A781970B271B1E71300594606
:1022F00000290FD1FF3191711849918016490A7850
:102300009A71174A9B1B5B415A43120D0A709FE753
:102310001448E2E7144A1549D21A083A5002400D0F
:1023200001439980124952080A43DA8090E7062156
:10233000515613000029B7DA5A46002AEAD1454619
:10234000DCE7C046240100D000ED00E0CD01001024
:10235000182A002000E100E06E71002001BDFFFF9F
:10236000AAAA000001BD0000822A002000F0FFFFA1
:1023700000F8FFFF70B501240443EFF30581EFF38C
:10238000108C72B62D4A1368002BFCD0BFF35F8F00
:102390002B4A05002B4BAD1A6D416B431B0D2A4D8B
:1023A0008900AE685BB27658A6422CD00621515601
:1023B00099422CD012215156994234D01E215156A7
:1023C000994232D02A215156994230D03621515665
:1023D00099422ED042215156994222D04E21515637
:1023E000994228D05A2151560724994210D0174AB1
:1023F000117813708171BFF35F8F00220F4B1A6049
:102400008CF3108870BDAA68114C5450EFE700247B
:102410006100091989005218FF2191710D499180BD
:10242000E5E70524F4E70124F2E70224F0E70324BA
:10243000EEE70424ECE70624EAE7C046240100D0D6
:10244000182A0020AAAA000000ED00E06E7100200A
:10245000CD01001001BDFFFF024B9C466144890085
:102460000160704740000034F8B5134D134E2C0046
:10247000FF27B5421ED22368002B0FD0FFF71AFDAD
:1024800001002800FFF7E8FFA780BFF35F8F083443
:10249000B4420FD223682500002BEFD1FFF70AFDCD
:1024A00001002800FFF7D8FF2771BFF35F8F0834C2
:1024B000B442EFD3F8BDC0461836002038360020AD
:1024C00010B50400FFF7F6FC01002000FFF7C4FF81
:1024D000FF232371BFF35F8F10BDC04610B504000A
:1024E0000120FFF705FD044B9C46604480002060FE
:1024F000BFF35F8F10BDC04640000034054B10B5E0
:102500009C460400006860448010FFF7DFFC002355
:10251000236010BD00FFFF2F0A4B1968EFF31080F6
:1025200072B60A68002AFCD0BFF35F8F1B68BFF346
:102530005F8F00221A6080F3108840BF00200021C6
:102540007047C04640710020F0B5DE4657464E4603
:102550004546E0B585B0EFF30582032313409A00AA
:1025600011000392B64A5258904601229A40B54B48
:1025700091461A6031E043469B881BB2002B00DB7A
:102580009DE043469B79002B00D0EFE043460824B2
:102590001C5F002C00DA17E1424652696300944642
:1025A0001B19DB0063449C68DD68631C00D113E1E8
:1025B000A54B03999C4661449A6A0B69A01A9B1A21
:1025C000984200D20C61A04800F0ACFB241A8D4167
:1025D000002D00DDF8E000D12EE14B469A48436320
:1025E000434608229B5E9A46002BC4DB4246526952
:1025F0005B0093465344DB009B445B469E68DF6868
:1026000000F090FB801BB9410029B4DB002F00DAF9
:10261000EDE05B468D4A1B69934200D1E0E0414604
:102620005A460820085E5288000410435A465169F1
:10263000984704000D0023002B4300D1D7E0002D64
:1026400000DBF0E0361BAF4134003D005B469C6090
:10265000DD600021595E00298DDB43465B69220065
:102660009C462B0048004018C00060448668C7683C
:10267000921BBB41002B00DA7DE743466646020011
:102680000094019519810CE07B00DB19DB00F31845
:10269000009801999C68DD68001BA941002904DBB2
:1026A0001A000023D75E002FEEDA5B461F805346E8
:1026B000138043469B881BB2002B00DA61E7434638
:1026C0001A69EFF3108172B61368002BFCD0BFF3C8
:1026D0005F8F43469B8842461BB29A4601235B426A
:1026E00093801369BFF35F8F00221A6081F3108813
:1026F0005346002B00DA44E743465B699C460823B7
:1027000043449B4653465F0043465744FF0008221C
:102710009A5E67445E46BC68FD68002A19DB3B0090
:102720000094019567469C4604E01E000023F25E7B
:10273000002A0BDB0098019953009B18DB00FB1863
:102740009C68DD68001BA9410029EEDA6346BC469F
:102750001F005346338000217B5E3A809A46002B4F
:10276000D0DA43469B79002B00D10FE70023424685
:102770009371434646460821595E08364B1C23D0C8
:1027800047468C46556902E006004B1C17D04B00AB
:102790005B18DB00E8180A00E95E43881BB2002BD7
:1027A000F2DA01235B42DC178360C4606245ECD03F
:1027B00031803B89944603803A814B1CE7D16446C3
:1027C000B846002C00DBE7E640BF05B0F0BCBB46D6
:1027D000B246A946A046F0BD6B1C00D0E8E6F2E682
:1027E0005B465C69200023699847002821D15B463D
:1027F00042461B8813811269EFF3108372B6116889
:102800000029FCD0BFF35F8F4246594652880A80A8
:102810004246514651801269BFF35F8F002111601B
:1028200083F31088A7E6084800F07CFA24184D418D
:102830000CE765682468FEE6002C00D1CDE6C3E70E
:10284000187000203C7005400040054049250010EC
:1028500070B52E4C2569002D04D00A212C48FFF7B5
:10286000FBFD70BD2B4E0321300000F051FAE660F5
:10287000FFF720FB284B03229C46D02322701B0627
:102880001B6801216370254B6044A3600F23800007
:1028900020610220638063694942A180198002316E
:1028A000198647311D83585218315A5275325C3996
:1028B0009952183201319952183201319952183215
:1028C00001319952083518329D520231183299520D
:1028D00018320131995218320131995218320131AE
:1028E00099521832013199521832013199520C4BD8
:1028F0000C49DC6001303562FFF73CFB012103200D
:10290000FFF726FB084B1D60A7E7C046902A002072
:10291000407100200040054040000034FFFF1000DF
:1029200018700020492500103860054000487047A5
:10293000902A0020F8B51F0008AB1B780400160091
:10294000002B07D100F0F6F932003B00121A8B4140
:10295000002B4CDB2269EFF3108072B61368002B5A
:10296000FCD0BFF35F8F62690223E15E94464B00A7
:102970005B18DB006344002901DB1A88628022694E
:10298000BFF35F8F0025156080F31088002930DBCE
:10299000069A9E60DF601A61079A5A615A8801326E
:1029A0005204520C161C002A1FD0B0B20A045E80DA
:1029B00010432669EFF3108572B63268002AFCD006
:1029C000BFF35F8FA2881A80A1802369BFF35F8F56
:1029D00000221A6085F31088074923788C4601325B
:1029E0009A40E36863441A60F8BD0126DDE70020E1
:1029F000FAE701204042F7E73C20000070B5C646E8
:102A0000010000B50469EFF3108C72B6206800284D
:102A1000FCD0BFF35F8F02200D5E48696C008046DA
:102A20006419E4004444002D01DB208848800869D3
:102A3000BFF35F8F002606608CF31088002D30DB1B
:102A4000E36063880598013320615B0406985B0CA2
:102A5000A26060611A1C002B21D090B22B0462800E
:102A600018430A69EFF3108672B61368002BFCD086
:102A7000BFF35F8F8B8823808D800B69BFF35F8FDF
:102A800000221A6086F310880B7801329A40CB68D6
:102A900005498C4663441A6040BCB04670BD0122B3
:102AA000DBE701204042F7E73C20000010B54389F6
:102AB0000A14934233DD53009B184269DB009446AD
:102AC00004696344EFF3108C72B62268002AFCD0CC
:102AD000BFF35F8F5A88090494B2090C8A4208D068
:102AE0000369BFF35F8F00221A608CF31088002007
:102AF00010BD8022120214435C800123026983719D
:102B0000BFF35F8F002111608CF3108805490278B4
:102B10008C469340C268012062441360E8E70020BD
:102B2000E6E7C0463C20000040787047F0B504005E
:102B30000D0006267642F717C64636196F4100B5D6
:102B400082B08F4214D811D000F0F4F832003B006C
:102B5000121A8B41002B15DC002B44D020002900D9
:102B600000F01CF902B080BCB846F0BD8642EBD93B
:102B70000026002700F0DEF832003B00121A8B41DD
:102B8000002BE9DD00F0D6F832003B00121A8B4131
:102B9000002B0ADB00230193144B320000931448EE
:102BA0003B00FFF72BFF0028D8DBB0460026BC46D1
:102BB000104A114F7B6A9C4504D8B96A8845CDD923
:102BC0009C45CBD11168EFF3108072B60B68002BD7
:102BD000FCD0BFF35F8F1368BFF35F8F1E6080F37D
:102BE000108820BFE6E7002AB8D0CBE719250010EF
:102BF000902A0020407100200040054070B506007A
:102C000000F098F8FA2204000D00002330000021A3
:102C1000920000F0D1FF00196941002902DBFFF7A3
:102C200085FF70BD012001494042F8E7FFFFFF7FAB
:102C3000F0B5CE46474680B504000D0083B0EFF3F3
:102C40000587002F3BD12F4E81463378F26804333D
:102C50009B00916A9B58421A5B1A9A420ED320BF7E
:102C6000294A0020536AAB4203D3926A013091454E
:102C70003CD803B0C0BCB946B046F0BD00F05AF82D
:102C800022002B00121A8B41002B26DB1F4B220047
:102C9000009330002B000197FFF7B0FE011E1CDDF2
:102CA000194BA8465A6A954225D920BF3000FFF734
:102CB000FDFE154A0020536A9845DAD8D5E7124A36
:102CC0000020536A8B42D4D3926A0130A242D0D200
:102CD000581A421E9041C0B2CBE70B4A0020536AFB
:102CE000AB42C6D3926A01209145C2D9E81A421E6E
:102CF0009041C0B2BDE79B6A9C42D7D99542D5D1DD
:102D0000D3E7C046902A0020004005401925001056
:102D100010B5024A0248FFF741F810BD58D7041019
:102D2000A06B00200300416A0A00986A596A8A422F
:102D3000FAD17047034B596A0A00986A596A91425E
:102D4000FAD170470040054070B504000D00124AEA
:102D5000536A1900966A536A8B42FAD130001900FF
:102D600024184D41AB4211D80ED02B000A494A6AB3
:102D70009A42FCD307D1084A02E0516A994202D133
:102D8000916AA142F9D370BDA642EED90123012474
:102D90006442E5175B42E9E700400540064A536A92
:102DA0009942FCD807D1044B02E05A6A914202D101
:102DB0009A6A8242F9D370470040054010B53DF051
:102DC0007FFD10BD0022835E0A4A944663444B6136
:102DD0000223C356013B0B610323C356CB6005237B
:102DE000C3568B600623C3564B600723C3560B6044
:102DF0007047C04694F8FFFFF8B5040006200D00A8
:102E000000F076F9002842D0364B3749E218534299
:102E10005A418023DB039C469205344B62441A607E
:102E2000334B1A6010000B689843FBD12D4B802167
:102E3000E3185A4253412F4A5B0049009952062039
:102E400000F056F92900C00000F0FEFA0130C30975
:102E50001ED1402701226262A362266BF30722D4AF
:102E6000E36A254B0620E51800232B60266300F05B
:102E70003FF93900800000F0E7FA7022E36A5A4017
:102E80007E2313402B601D4B23630323A364F8BDF3
:102E90001B4A93421ED900231A4A1B4F6262A36247
:102EA000266BF307DCD5194B144AE3181A60656AE0
:102EB000A26A0620AD01AD1800F01AF9144900F01D
:102EC000C3FAAD020100280000F0BEFA0021FFF7AE
:102ED0003BFFC5E74006800E9F011A003F18030024
:102EE000B9E7C0460080FCBF08C0004000E00040D9
:102EF00000F00040547100202C100000010300007D
:102F0000FEFF0000FFFF0000C0FF3F003030000068
:102F10004E0E0000F8B5DE464E4657464546E0B533
:102F20008B4605000A991800160000F08DFA0A9BDE
:102F30006C001F02324B64199C46A4006444636811
:102F400081469F4200D967602B1FDBB29846012B58
:102F500030D9C02380229B01E31812011A60294B4B
:102F6000AD0059599A4600291BD12268760172405A
:102F7000E0268023164042465B01E3181E60012ACA
:102F800030D9802380229B01E31812011A60534636
:102F90004A4667605A51F0BCBB46B246A946A046B5
:102FA000F8BD586900F050FA431C5800C0180338A7
:102FB000FDD2DAE75B46012BCBD1C02303229B0174
:102FC000E3181A60023AA3681A42FCD0E023226890
:102FD000760156401E4080230A4A5B019246E31860
:102FE0001E60AD005A462168514003220A401A6013
:102FF00001225B469A40A3681A42FCD0C1E7C04652
:1030000000800040A86B0020F0B546464F46D646EB
:10301000C0B51F00344B44009C462418A4006444EF
:10302000636888461600FF2B02D880235B0063602C
:10303000031FDBB29A46012B30D9C02380229B01AB
:10304000E31812011A60294B850059599946002945
:103050001BD1226876017240E0268023164052463A
:103060005B01E3181E60012A30D9802380229B0176
:10307000E31812011A6080235B0063604B465F51C6
:10308000E0BCBA46B146A846F0BD586900F0DCF98C
:10309000431C5800C0180338FDD2DAE74346012B21
:1030A000CBD1C02303229B01E3181A60023AA36824
:1030B0001A42FCD0E0232268760156401E4080234D
:1030C0000A4A5B019146E3181E608500424621686A
:1030D000514003220A401A60012342469340A268ED
:1030E0001342FCD0C1E7C04600800040A86B00201E
:1030F000014B8000C0587047A86B0020F8B5040051
:1031000020481D0017000E0000F09EF90100380055
:1031100000F09AF9069B29041B0319432368002B2E
:103120001EDB194B194DE21853425A4180235B01B3
:103130009C461203164B62441A60164B1A60170025
:103140002B689F43FBD1144B2660E2182123A0601B
:1031500013602368002BFCDA0823E1601360F8BDDC
:103160003F2322681340B342DBD1A3681B051B0D2C
:103170008342D6D1EE22E368D20213408B42D0D1F3
:10318000EDE7C046001BB7000040FDBF08C000408F
:1031900000E0004000F00040043000008023024ABC
:1031A0009B000B43D362704700800540142310B589
:1031B0000100188804331B88984710BD162310B5EA
:1031C0000100188802331B88984710BDF8B54746A0
:1031D000CE4680B50F1E19D014239946043304003F
:1031E0000025012698464B461888434621681B88CF
:1031F000984701C4431E9841013540420640AF4202
:10320000F1D13000C0BCB946B046F8BD0126F8E7A0
:10321000AA23064A1B0113602133FF33D3600449FC
:10322000044B19605368002BFCDA704700400240E1
:1032300000B0FA00006002407047C04610B5014877
:10324000FEF77EFD7CD7041070B5074D074EB542E2
:1032500009D20024013E761BB60808CD984723000A
:103260000134B342F9D170BDD8D0041014D1041088
:10327000054B064A06491A60064A074B1A601000B9
:103280000B689843FBD1704700E00040BFCDFBFEC8
:1032900008C00040FE7F3C0000F00040044BDB6CA7
:1032A000002B03D18022034BD2021A607047C04624
:1032B000000011504C201150044A054B1A60054A79
:1032C0001368DB018033FBD17047C046FFFFFF016D
:1032D00000F0004008C000404022034B9A675A6744
:1032E0001A67DA667047C04600F0014010B5FEF775
:1032F0000FFE10BD70B5044D044C2800C022A1681B
:1033000000F0B8FDA56070BD0000002000ED00E0F9
:10331000002310B5294C82B0A367FFF779FF012283
:10332000274B1A60636C012BFCD10322254B1A60DA
:10333000224A936B012BFCD1013300930121224AD5
:1033400022480433FFF7DAFE052301210093204AC7
:103350002048FFF7D3FE0022022104201E4BFFF776
:1033600053FE0022012105201C4BFFF74DFE0022D9
:10337000002107201A4BFFF747FE002200210820FA
:10338000174BFFF741FE8023DB0000930022002152
:103390000920134BFFF7BEFD0022104B0021062031
:1033A000FFF732FE0420FFF7A3FE0E4900F04CF8B1
:1033B00001000020FFF7F2FE02B010BD00800040C7
:1033C0003CB0004030B00040002F685900800240FF
:1033D000008C864700C00240001BB70040597307AD
:1033E000006CDC0240420F0001480421014B1847E9
:1033F000B02A0020CD310010124A936F9B0815D2DD
:103400009066D166002905D0FFE7FFE7FFE7516F1F
:10341000106F704704B580210906C217514000287B
:1034200000D0C84349F0A0FD002104BDF0B5146EE2
:10343000556E576F166FFFF7E3FF146655665767B3
:103440001667F0BD000000D0114A936F9B0813D29D
:1034500010665166002905D0FFE7FFE7FFE7516FCF
:10346000106F704704B5002801D00020C04349F018
:103470007BFD002104BDC046F0B5146E556E576F3C
:10348000166FFFF7E5FF1466556657671667F0BDC0
:10349000000000D094464A4A926F9208624601D2D8
:1034A00028E0C046F0B5464E346E756E776F366FC5
:1034B00000F020F89446424A14665566576716672E
:1034C0006246F0BD94463E4A926F9208624601D22F
:1034D00054E0C046F0B53A4E346E756E776F366F75
:1034E00000F04CF89446364A1466556657671667DE
:1034F0006246F0BD002B24DB11D000293EDA00B576
:10350000C943404200D1013100F038F8C94340427C
:1035100000D10131DB43524200D1013300BD002A0A
:10352000EBD1002801D1002905D00020C90FC9071F
:1035300001D1C043410800B549F0EEFC0022002350
:1035400000BD00B500290ADBDB43524200D1013344
:1035500000F014F8C943404200D1013100BDC94315
:10356000404200D10131DB43524200D1013300F02F
:1035700005F8DB43524200D1013300BD002923D1BD
:10358000002B18D1002A0CD0BC460D4F38667A6645
:1035900000210023FFE7FFE7FFE77A6F386F6746F8
:1035A0007047002801D00748010000B549F0B4FC7D
:1035B0000022002300BD02000B0000200021704704
:1035C000000000D0FFFFFFFF002B00D0BFE0130C76
:1035D00028D1002AE7D080B4114F39667A66FFE718
:1035E000FFE730B4040C7B6F396F1B0423433B6649
:1035F0007A66FFE7FFE7FFE7C04684B27B6F3D6F67
:103600001B0423433B667A66FFE7FFE7C0460023BF
:103610002C042D0C7A6F386F00196941B0BC7047CB
:10362000000000D0F0B594460025140E01D112021E
:103630000835140F01D112010435940F01D1920005
:103640000235D40F01D152000135D40B0134254F7E
:103650007C66254C3C660E0C93B2FFE7FFE7FFE764
:103660003C6F6643360C7703BE467343DF0B5B0447
:10367000C01AB941130C7343DB18C91ACE0866434C
:10368000360CB64493B273431F0F1B01C01AB941E5
:10369000130C73431F0B1B05C01AB941860D8F0213
:1036A0003E436643360C092D24DB520A7243801ACE
:1036B0007703460A6643360C16235B1BDE40DF4069
:1036C000BF1964466643821B704604350633010009
:1036D000D940A840C01900D30131A24206D200232C
:1036E000F0BD0000000000D0FFFFFFFF121B013003
:1036F000F3D3F1E709277F1BFE406446A2B2724371
:10370000801A00D20139220C7243130C1204821A5F
:1037100099410B007046043513370100F940A84069
:10372000801900D30131002B02D1A2420AD2F0BD90
:10373000013000D30131121BFAD2013BF8D1A24271
:1037400000D2F0BD013000D30131121BF7E7F0B514
:103750001C0C00D080E00CB400251C0A04D11B0214
:10376000160E3343120208351C0B04D11B01160F31
:103770003343120104359C0B04D19B00960F334355
:1037800092000235DC0B02D192185B4101351C001E
:10379000971864410134464F7C66464C3C660E0CDB
:1037A000FFE7FFE7FFE7C0463C6F6643360C770351
:1037B000BE4697B27743C01B00D20139C01B00D26E
:1037C00001399FB27743C91BC91B170C77437E048D
:1037D000FF0B801BB941CE086643360C0C2D33DB42
:1037E000B644120B1F053A431B0B97B27743C01B1D
:1037F00000D201399FB27743C91B170C77433E04AF
:103800003F0C801BB941860D8F023E43664329273A
:103810007F1BFE400C3D7746AF40BF1930BCA2B2C3
:10382000ABB272437343801A9941220C7243130C5A
:103830001204801A994102000B000137001BA941B4
:10384000F9D2781E0021F0BD0C277F1BFE40774681
:103850007F0BAF40FF19E0E700245D1C07D0144F39
:103860007D663966FFE7FFE7FFE7FFE73C6F95B24C
:103870009EB265436643401BB141150C1E0C654367
:10388000664336042F0C3E432D04401BB141994240
:1038900004D202000B0020000021F0BD01D19042B3
:1038A000F7D3801A994101349942F2D3F6E7000028
:1038B000000000D0FFFFFFFF48404140484018B4DF
:1038C000134B5B68019308BD18B4114B1B6801933F
:1038D00008BD94460F4A926F920805D2624618B40A
:1038E0000B4BDB68019308BD0A4AF0B5146E556EA8
:1038F000576F166F6246FFF7F2FF064A1466556669
:1039000057671667F0BD18B4014B9B68019308BD5B
:10391000B03C0020000000D0FFB550404240504075
:1039200059404B40594000E0FFB5154F4C00640D25
:1039300003D0BC4204D10C0314D80020090D0905A2
:103940005C00640D03D0BC4204D11C030AD80022E1
:103950001B0D1B0501264B4009D44B4003D58B4260
:1039600000D18242FFBD9942FCD19042FFBD0B4382
:10397000DB1803431343F5D0C9434918FFBD0000CA
:10398000FF07000000B5FFF7CFFF01D0002000BD0A
:10399000012000BD00B5FFF7C7FF804100BDC04654
:1039A00000B5FFF7C1FF01D9002000BD012000BD17
:1039B00000B5FFF7B1FF01D9002000BD012000BD17
:1039C00000B5FFF7A9FF804100BD012040054A0076
:1039D000121804D85A00121801D80020704701208C
:1039E000704700000021002805D17047C1174840EA
:1039F000401AFAD0C90713B5064B1B6898470CBC90
:103A0000441CA2401005120B0349091B0905194368
:103A1000114310BD3C7000201F04000010B54C0085
:103A2000620D8023D218DB00D21A5B057E2A10DDDE
:103A30009E3A13DACC170903490819435242D14080
:103A4000640001341532202A05DAD040084360436F
:103A500010BD002010BD0846604310BDC80FC0183F
:103A6000013810BD18B4024B5B6A019308BD000019
:103A7000B03C002018B4024BDB6D019308BD000080
:103A8000B03C0020C94211D300B5490049080022CA
:103A900000F014F8002904D4002240428A41114663
:103AA00000BD80210906002000BD000018B4024BB3
:103AB000DB6E019308BD0000B03C002018B4024B3F
:103AC0009B6F019308BD0000B03C002018B4024B6E
:103AD000DB6F019308BD0000B03C002010B5014829
:103AE000FEF72EF988D70410132370B51D78012D29
:103AF00015D039DD1E48FFF761FB06001D48FFF7B2
:103B00005DFB1D4C80223100200000F0B3F9022D36
:103B100027D01A48FFF74AFB194B186070BD194BA4
:103B2000154C23606360A360E36023616361A3615C
:103B3000E36123626362A362E36223636363A3635B
:103B4000E36323646364A364E36423656365A3653B
:103B5000E36523666366A366E36623676367A3671B
:103B6000E367094BA364D4E7034C074BA364D0E796
:103B70005344000053460000B03C00204C3300008A
:103B80003C700020DD3A00108D3B001007B5604608
:103B900001880A0A0230DF2AFAD1C9B2820804D3A6
:103BA000028840880004104300E00068014A505039
:103BB000039007BDB03C002051434343C9188C46D5
:103BC000110C83B24B4310B4040C614392B280B227
:103BD000504362431C041B0C001910BC59411304D0
:103BE000120CC018514161447047000048404140E8
:103BF00048400E4B5B6818470C4B1B6818470C4A33
:103C0000936F9B0802D2094BDB681847F0B5146E1E
:103C1000556E576F166FFFF7F6FF054A1466556627
:103C200057671667F0BD014B9B681847407000202E
:103C3000000000D007B548404140484001E0C04680
:103C400007B54200120E03D0FF2A03D1420218D852
:103C5000C00DC0054A00120E03D0FF2A03D14A024C
:103C60000FD8C90DC9050122414005D4414001D5F5
:103C7000814207BD884207BD0143491801D0C043B6
:103C8000001807BD00B5FFF7DBFF01D0002000BD25
:103C9000012000BD00B5FFF7D3FF804100BDC04645
:103CA00000B5FFF7CDFF01D9002000BD012000BD08
:103CB00000B5FFF7BFFF804100BD01231B06420096
:103CC000D21804D84A00D21801D800207047012029
:103CD0007047491A002807D108467047C10FC90725
:103CE00000D54042002817D0F44603B40B4B1B68A4
:103CF000984706BC81409E384042803107D20B066F
:103D000007D04900490AC005104308436047013005
:103D1000F8E7490A8902F5E7704700003C70002087
:103D200041000A0E80231B067E2A0BDD9E3A0BDA29
:103D3000C1174002400818435242D04049000131A7
:103D40004843704700207047C00FC01801387047C3
:103D5000C0420DD300B540004008002100F00EF82D
:103D6000002801D4404200BD8020000600BD0000B4
:103D7000014BDB691847000040700020014B5B6A73
:103D80001847000040700020014BDB6F184700000F
:103D90004070002010B50148FDF7D2FFF4D10410A7
:103DA000132310B510481C78FFF708FA0100012C06
:103DB0000AD003DD80220D4800F05CF80C48FFF7C4
:103DC000F5F90C4B186010BD084C5422200000F08F
:103DD00051F82300084A80332168002900D122606D
:103DE0000434A342F8D1E9E75346000040700020B4
:103DF0004C3300003C700020953D001070B504006D
:103E00000A4E300049F050F920003CF077F80500E8
:103E1000300049F079F8002D05D0054B2C199C4253
:103E200001D8280070BD0348FDF78AFF183600202E
:103E300000000420A0D7041070B50400054D280030
:103E400049F032F920003CF063F8280049F05CF8B2
:103E500070BDC0461836002001480421014B1847A8
:103E6000C02A0020CD310010014B1B68184700000C
:103E7000C02A0020014B5B6818470000C02A0020C0
:103E800010B5FFF7BBFF10BD10B5FFF7B7FF10BDB2
:103E900010B5FFF7D1FF10BD10B5FFF7CDFF10BD76
:103EA00010B5FFF7C9FF10BD9A4200D28854704781
:103EB0007047C046F8B557464E464546DE46E0B523
:103EC00099460A9B07009A460D9B88469346150023
:103ED0000B9E9B0710D10C9B9E420DD29D1B140084
:103EE0000E005D4422004B46013431002020B847CB
:103EF000A542F7D1B0460B9E002E27D04446751937
:103F00005346AA1B013E985D21004B46B847002E40
:103F1000F6D123002C0098460D9B9B070FD55B46DE
:103F2000E51A0C9BAB420AD94646984622004B46FE
:103F3000310020200135B8470134A845F6D82000CB
:103F4000F0BCBB46B246A946A046F8BD2C00E3E74C
:103F5000F0B54F464646D646C0B584B098460EAB3F
:103F60001B78129F994694460D9C109B119EBA0790
:103F700025D4002E4BD19C4200D3BFE001223A4011
:103F800092461F2C00D9B8E00C9A551E302201E051
:103F9000202C03D001342A55A342F9D85246002AD6
:103FA0000DD0A6420BD9202C44D00C9A551E30229D
:103FB00001E0202C3ED001342A55B442F9D1FA0652
:103FC0004DD57A053FD4002C39D10F9B102B00D151
:103FD00079E00F9B022B00D18AE030230C9A012458
:103FE00013704B46002B3FD02D230C9A13550134F0
:103FF0000C9B624600930397434602960194FFF799
:1040000059FF04B0E0BCBA46B146A846F0BD012253
:1040100015003D40AA463A422FD04A46002A02D116
:104020000C323A4200D0013E9C42BAD21F2CABD98E
:10403000202E27D92024FA06DAD57A0503D4A34204
:104040002DD0A6422BD00F9B102B32D0022B20D08C
:10405000202CCDD030220C9B1B191A700134202C3F
:10406000C6D04B46002BBFD17B070DD43B07BFD535
:1040700020230C9A13550134BAE79C429FD21F2C7F
:1040800000D881E720249AE72B230C9A135501349A
:10409000AEE7202CACD00C9B1B1901343AE0631E18
:1040A000012C92D00F9A102A2AD0022A2FD01C005D
:1040B000D0E7BB060ED4202C9AD00C9B1A190134E1
:1040C00078231370C4E7BB060DD478230C9A01241F
:1040D0001370BFE7202C00D18AE758220C9B1B19D4
:1040E0001A700134B4E758230C9A01241370B1E715
:1040F0000C9A603301241370ACE7202400265EE79D
:10410000023CBA06E9D40C9A12191C00D8E70C9AA2
:104110009246534462221A709AE7C04610B50028AE
:1041200000D110BD01F0FEFBFBE7C0460B0010B54F
:10413000002802D049681B68984710BDF0B5DE46DC
:1041400057464E464546E0B59BB09B46249B894664
:104150009846259B0B900C924046424619009A4681
:10416000FFF733FC002800D0D8E00122404651463A
:10417000774B5242FFF724FC002800D0CEE001220A
:1041800040465146734B5242FFF704FC002800D0D2
:10419000C4E00022002340465146FFF7FBFB002805
:1041A00000D0B9E1424653460A9209938023289AE7
:1041B000DB001A400E92289A1A4201D10623269358
:1041C0000A9A099B1600134300D0C7E0289B0025DC
:1041D00000261B0500D49BE100230D93269A0D9B1E
:1041E0009A4200DC9FE1D01A431E26938023289A2E
:1041F000DB001A430023002728920D93279B0024FD
:10420000BB4200D9DC1B0223289A1A400E92289A3E
:10421000134203D07B427B415B421C400D9B002B31
:1042200007D00A9809992A003300FFF752FB0A9039
:1042300009910022002340465146FFF7ABFB0028BE
:1042400005D0802000068446099961440991289A86
:10425000414B0B9D13400493269B0A9A0293099BA2
:1042600003940092019349465B4628000C9A00F0A3
:104270008BF90400002F62D0289B220098061F2390
:10428000C0179843631C984649465B466530A8476B
:104290000D9B0025DA179C18DB0F9A465440013F0E
:1042A00001E0202D13D00AAA94461F232000634466
:1042B0000A2101355E19FFF7C7F83031317020004F
:1042C0000A21FFF7C1F826000400092EE9D80523CA
:1042D0000693002304930A330393534605970B9FD9
:1042E000029312AB009342465B4649463800019563
:1042F000FFF72EFE0E9B0400002B20D00C9BC51A4E
:10430000279BAB421BD91E0022005B46494620205A
:104310000135B8470134AE42F6D810E0289B42463A
:104320000493279B49460393269B0B98029353467D
:10433000009201935B460C9A00F026F904002000DD
:104340001BB0F0BCBB46B246A946A046F0BDC04675
:10435000FFFFEF7FFFFFEFFFFFF7FFFF734B099FAB
:104360009C467800400D6044FFF740FB704A714B5B
:10437000FFF7C9FA704A714BFFF7A6FA3B03704A80
:104380001B0B1A4304000D00300011006D4B00227E
:10439000FFF795FA6C4A6D4BFFF7B5FA02000B0078
:1043A00020002900FFF790FAFFF738FB0D90FFF788
:1043B0001DFB674A674B04000D00FFF7A4FA0022BB
:1043C000654BFFF781FAFFF729FB644A0600644B4F
:1043D00020002900FFF797FA040030000D000F9627
:1043E000FFF704FB5F4A604BFFF78DFA02000B00FA
:1043F00020002900FFF763FA02000B0006000F00FF
:10440000FFF781FA320004000D003B003000390054
:10441000FFF75AFA002210901191544B2000290006
:10442000FFF757FA0022524BFFF74EFA02000B003B
:1044300020002900FFF74DFA00224E4BFFF744FA07
:1044400002000B0020002900FFF743FA0D00802135
:10445000040032003B000020C905FFF730FA0200DB
:104460000B0020002900FFF72FFA02000B00109824
:104470001199FFF72EFA0022314BFFF725FA3E4B38
:104480000F9C9C46644400222305FFF73CFA05007C
:104490000E0002000B000A980999FFF77BFA00282A
:1044A0000AD00D9B2800013B31000D930022304BB8
:1044B000FFF70FFA05000E00C6270D992B00633198
:1044C0008F42BF4128997F420437090500D495E601
:1044D000334300D182E6099C284A2100284B0A98E0
:1044E000FFF766FA002808D000222100254B0A9821
:1044F000FFF750FA002800D070E6269B002B00D171
:104500007CE60E9B5A1E9341269AD31A269375E693
:10451000002304270D9371E643460A9380231B066C
:104520005344099342E6002326935FE601FCFFFF14
:10453000FB799F501344D33FB3C8608B288AC63F92
:104540000000F03F0000F83F61436F63A787D23F50
:1045500071A379094F930A400000E03F1655B5BB9F
:10456000B16B0240EF39FAFE422EE63F00002C40CC
:104570000000244000001840FF0300002D431CEB06
:10458000E2361A3F80842E41F0B54E46DE4657464D
:104590004546E0B597B09946209E219F229B8346D1
:1045A000984607910C923B00320030003900FFF72B
:1045B0000CFA002800D0A9E1012230003900CA4BD2
:1045C0005242FFF7E7F9002800D0E1E00122300075
:1045D0003900C64B5242FFF7F3F9002800D0B7E08C
:1045E000002230003900C24BFFF7EAF9002800D062
:1045F00099E0002230003900BE4BFFF7CBF90028CC
:1046000000D090E00022002330003900FFF7C2F90B
:10461000002800D0B1E000230D93249B5B0501D45A
:104620000623984608AB9C461722002430234146B7
:10463000624404E0013413550139202C01D00929CA
:10464000F8D8884630003900FFF7E8F94346DA0029
:10465000A94B05009B181A685B6808920993FFF73D
:10466000C5F902000B0030003900FFF728F9089A5D
:10467000099BFFF748F90A900B91FFF7F3F982467F
:10468000FFF7B0F902000B000A980B99FFF717F932
:1046900000229A4B0A900B91FFF792F9002800D163
:1046A000C0E001239C46E2445046FFF79BF902001C
:1046B0000B0008980999FFF773F9002802D000232E
:1046C0009A4601354346002B6AD008AB17269C4614
:1046D00008956644554614E001235B4243440A2191
:1046E00028009A46FEF7B0FE013430313719397090
:1046F00028000A21FEF7A8FE092D00D8D0E0D046F8
:104700000500202CE8D10EAB98460323249A1340D1
:10471000012B00D196E02023249A01930392239A3F
:10472000434602921EE0249B58460493239B009626
:104730000197039343460C9A029307994B46FFF760
:10474000FDFC17B0F0BCBB46B246A946A046F0BD82
:10475000249B5B070ED40322694B24990192039199
:1047600023990291009358464B460C9A0799FFF7FC
:10477000A1FBE6E70422634BEFE73B003200002099
:104780000021FFF79CF8012306000F000D9344E77A
:10479000249B0393239B0293042301935A4BE1E749
:1047A0002800FFF723F902000B0030003900FFF763
:1047B00086F8524B002206000F00FFF7EBF80EAB15
:1047C000984600280AD10022300039004B4BFFF7F1
:1047D000F7F8002802D1EB0700D50135202C94D042
:1047E00008AA94461723280063440A2101341E199D
:1047F000FEF702FE3031280031700A21FEF7FCFD81
:10480000051EEBD10323249A1340012B1BD0202C2F
:1048100000D180E70D9B002B35D02D224146631C33
:104820000A5579E700220A980B99344BFFF7B2F842
:10483000002800D046E75346002B51D101239C4667
:10484000E2443FE72024239B002BE0D00D9B002B6C
:1048500003D1249A0C33134202D0239B013B2393B0
:10486000239BA342D3D908AB9C4617223023624432
:10487000202C00D14FE72399013413558C42C6D028
:10488000202CF8D147E7249B5B0724D4249A2300EB
:10489000120700D440E72022414601330A553BE786
:1048A0005746089D202C00D12DE72200302140469C
:1048B000002F09D00132B154202A00D123E7D3437D
:1048C0001B191B18002BF5D10EAB98462E23414621
:1048D000541C8B5482E72B224146631C0A551BE76C
:1048E000DB0700D4EEE6A9E7FFFFEFFFFFFFEF7F56
:1048F00065CDCD4165CDCDC158DA04100000E03F53
:104900005CD8041060D804106CD80410249B039366
:10491000239B029303230193004B23E768D80410E1
:10492000F0B5DE464E4657464546E0B59FB01C0002
:10493000289B91460993C94AC94B8B4608901A6037
:10494000002900D118E2002320789A46002800D1DF
:104950001AE226001D005C460AE02A006F1C4B4646
:10496000089D2100A8473D0001363078002870D00E
:104970002528F2D110239B46083B9A46043B9846D3
:10498000023B00219C46721C107816000300203B5D
:10499000DBB2102B03D8B34F9B00FB589F4603009C
:1049A000303B092B32D900230A932A2868D00023F0
:1049B00098462E283ED00300683BDBB2122B1CD851
:1049C000A94A9B00D3589F46012301321943DBE7D4
:1049D000634601321943D7E7434601321943D3E70F
:1049E0005B4601321943CFE7534601321943CBE707
:1049F00080235B007078194301360300253BDBB24E
:104A0000532BAAD8994A9B00D3589F4600270300EE
:104A1000B800C01901364000C018337830381A0089
:104A2000303A0700092AF3D90A9018000023984663
:104A30002E28C0D180237078DB0019430300303B5F
:104A4000721C092B00D8A1E12A2800D1B2E116007E
:104A5000B1E7A346AA462C00D14503D801235B4207
:104A60004B449A464B46524659460020089DA8475B
:104A700020001FB0F0BCBB46B246A946A046F0BD20
:104A8000099B40CB0A96002E03DB50780993561CF5
:104A90008DE72838014370420A9009935078561CDC
:104AA00085E7782800D1DFE1582800D14CE26F2853
:104AB00000D14FE3622801D100F030FC10230A003E
:104AC0009A430B92692801D000F0A9FC0A230C93A9
:104AD0004B0500D5D0E10B9A802311009B001940B3
:104AE0008B461A4200D0A1E2802311005B001940DE
:104AF0008A461A4200D0B6E313005B0600D5EDE209
:104B0000130009991B0601D400F076FC08C91BB2FA
:104B1000D8171A18424092B209919346DA0F1292AE
:104B2000002B09D1802310220B99DB000B4091430D
:104B30000B91002B00D0E4E20B9A6123920600D582
:104B400041230EA91F228C46DBB262440A3B5F461A
:104B50001395A34655460C9CB2460D9316000AE0E9
:104B60003033DBB201357355A74200D2EDE2202D80
:104B700000D1EAE2070021003800FEF765FCCBB265
:104B80000929EDD90D9A94466344DBB2EAE7802304
:104B90009B007078194301362FE77078682800D1A0
:104BA000CDE180230136194327E770786C2800D1C6
:104BB000BFE180235B00194301361EE7462800D180
:104BC0009BE10722099B0491073393430A9A19003A
:104BD0000392424602920CC90898009201930991EF
:104BE0002A004B462100FFF7CFFC01360500BCE64A
:104BF0002A006F1C4B46089D21002520A84701363E
:104C00003D00B2E68B0700D4ADE1099B2A009A462D
:104C10006B1C9846534601CB21009A46089F4B4691
:104C2000C0B2B8470A9B9C466544012B00D886E277
:104C3000089B4746B04626004C4699463A0023005A
:104C4000013731002020C847AF42F7D1A146534673
:104C5000340046460993013687E6C04621490010D4
:104C6000F06F002074D80410B8D8041004D90410D0
:104C7000099B04CB9B4643460992002B00D1C6E01A
:104C800013789C46002B00D1BDE34346013B099AB3
:104C90000133D0180A9F130001E0834203D05A78F1
:104CA0000133002AF9D1099A0A979B1A0B938023A2
:104CB0000A00DB001A400C92194204D00B9B4345BA
:104CC00001D943460B9302231A000A400D920B426E
:104CD00000D187E16046002800D168E10C9B002BE1
:104CE00000D10DE1A844C246099B57465B1B98467C
:104CF000089BB2462A0026004C46994609E023004C
:104D00003100551CC8474346585D002800D126E1B4
:104D10002A009742F3D1A1463D00340056460D9B30
:104D2000002B00D043E15B46013609931DE6099B49
:104D30001A0008CA9246002B48D0212211438B4604
:104D40000EA884461F216144099500220F27A4461E
:104D50000D0002E0202A0CD00B003C001C4020007B
:104D60003730092C00D807380132A85419090F2B05
:104D7000F0D86446099D32E0DC4B2078089300238C
:104D80009A46002800D0E4E5002465E64346060084
:104D90000A9F9800C018013240008019167803005D
:104DA00030003038303B0928F3D9300098461600DF
:104DB0000A9700E6099B023604CB9046D243404650
:104DC000D2171040804609933078F4E5102208008D
:104DD000904311321043834600224905B0D55B460B
:104DE000069308230593434604931023039300235B
:104DF000029316AB019200932A004B4621000898BB
:104E0000FFF7A6F85346050001360993ADE5137880
:104E10009C46002B00D1F7E202235B4237E72023B8
:104E200002009A43472A04D180231B01194302231D
:104E30009843452801D1202319430722099B049157
:104E4000073393430A9A19000392424602920CC90F
:104E500008980092019309912A004B462100FFF720
:104E60006DF90136050080E510230C930C230A0030
:104E70009A430B924B0503D501230B9A9A430B924D
:104E8000692800D127E6642800D124E60B9A802304
:104E900011009B0019408B461A4200D066E1802326
:104EA00011005B0019408A461A4200D039E2130013
:104EB0005B0600D53CE113001B0600D4A6E2099B6B
:104EC00004CB1204120C934609935B46002B00D0CE
:104ED0009AE10B9A1033110099430B91520500D4BB
:104EE00092E100239A460B9B06930A9B0593434647
:104EF00004930C9B039300230CE12023194360E6E9
:104F0000099B0A9A5B1B98464B4691461F00B24686
:104F10002600089C2A003B003100A047434601358B
:104F2000585D0028F6D14A463400B94656460A92E2
:104F3000F5E6C0239B00B078194302365DE5C02337
:104F4000B0781943023658E50C230A009A4314330B
:104F50001A43103B0B920C934B058DD496E7A14658
:104F600034005646DBE60A9A012A00D853E26B1E4B
:104F70009F18089BB04626004C4699462A002300FD
:104F8000013531002020C847BD42F7D1A146340089
:104F90004646099B3A0001CB210098467D1C4B46B2
:104FA000089FC0B2B847434601360993DDE40B9B26
:104FB0000A9AA8469A4200D8B5E694466544ED1A86
:104FC000089B4746B04626004C4699463A002300C7
:104FD000013731002020C847AF42F7D1A146340045
:104FE0004646A0E60B9A0A99531C914200D814E257
:104FF0004B199B1A1F00089BB24626004C46994647
:105000002A002300013531002020C847BD42F7D1D6
:105010000A9BA14601330B93099B34001B7856462B
:105020009C466046002800D058E67CE60722099B93
:1050300007339343013294469C4462465F68099269
:105040001A68FB171093119310981199030053409D
:105050000E930B007B400F9394460E9A0F9B121AEF
:105060008B410E920F93FB0F6246129300233A433B
:105070009B463DD00B9A6123920600D54123002226
:10508000DBB20EA90A3B8C4692460D9343461F3273
:1050900062441395159655460E9E0F9FA246904664
:1050A0000C9C14930CE03032D2B2434601355A5571
:1050B000BB4500D18AE1202D00D18AE106000F0016
:1050C0002200002330003900FEF7FCF9D2B2092A91
:1050D000E9D90D9B9C466244D2B2E6E7FF230999C9
:1050E00004C913401A00099117E5C046B13E0010EB
:1050F0000B9A1033110099430B915205BAD5002336
:105100009A460B9B06930A9B0593434604930C9B7C
:105110000393129B02935346019316AB2A0000930C
:1051200021004B460898FEF713FF013605001CE4EA
:10513000FF22099B02CB11408B460993C5E65346DB
:10514000454609930136FFF710FC56465C46AA46D1
:10515000139DD6E708230C930B910B99642800D07C
:1051600084E60B9B5B0500D586E6B4E40722099B29
:1051700007339343013294469C44624609921A686D
:105180005B6810009B4613005A46134307D10B9AE5
:105190001033110099430B91520500D5A1E60B9AEB
:1051A0006123920600D541230022DBB20EA90A3BFF
:1051B0008C4692460D9343461F3262445F461295D9
:1051C000A34655460400B24690460C9E13930DE04C
:1051D0003032D2B2434601355A550023BB4200D18A
:1051E00000E1202D00D100E104000F003200002377
:1051F00020003900FEF766F9D2B2092AE8D90D9BE2
:105200009C466244D2B2E5E70B9A6123920600D530
:105210004123DBB20EA90A3B1F228C460D932300CB
:1052200062445C461295170055469B46B2460C9E5A
:1052300008E03033DBB201357B55B4420ED3202D6C
:105240000CD0040031002000FEF7FEF8CBB2092993
:10525000EFD90D9A94466344DBB2ECE756465C46C0
:10526000AA46129D3FE6099B1A0008CAD917139255
:105270005A184A409246DA0F1292002B08D1802326
:1052800010220B99DB000B4091430B91002B2BD18B
:105290000B9A6123920600D541230EAA1F2794463C
:1052A000DBB20A3B0D9567445D460993A34654461D
:1052B000B2460C9E08E03033DBB201357B55B44278
:1052C0000ED3202D0CD0040031002000FEF7BCF8D6
:1052D000CBB20929EFD9099A94466344DBB2ECE7D3
:1052E00056465C46AB460D9D0B9B2A0006930A9BD7
:1052F00021000593434604930C9B08980393129B4B
:10530000013602935B46019316AB00934B46FEF7C2
:105310001FFE139B05000993FFF727FB02230C9345
:105320001AE7099B04CB92461293002A08D18023E6
:1053300010220B99DB000B4091430B91002B2BD1DA
:105340000B9A6123920600D541230EAA1F2794468B
:10535000DBB20A3B0D9567445D460993A34654466C
:10536000B2460C9E08E03033DBB201357B55B442C7
:105370000ED3202D0CD0040031002000FEF764F87D
:10538000CBB20929EFD9099A94466344DBB2ECE722
:1053900056465C46AB460D9D0B9B2A0006930A9B26
:1053A00021000593434604930C9B08980393002324
:1053B00002935B46019316AB00934B46FEF7C8FD84
:1053C000129B050009930136FFF7CFFAB44200D8CB
:1053D00071E6149B54460E960F97AA469846159E62
:1053E000139D8EE6A64200D8FBE6139B56469846D0
:1053F000AA465C46129D76E508C9D8171A1842409D
:105400000991FFF78AFB00230B9350E4099B04CB1F
:105410009346099359E52F00BBE50B9301E6063B44
:105420000C939AE60EB4012210B585B007AC08CCF7
:1054300001000094524204480394FFF771FA05B04A
:1054400010BC08BC03B01847A93E00100CB410B53E
:1054500084B006AC08CC0A00009401000448039410
:10546000FFF75EFA04B010BC08BC02B01847C04693
:10547000A93E001000B583B0009313000A0001009C
:105480000248FFF74DFA03B000BDC046A93E001028
:1054900000B585B0039101210290009303481300E9
:1054A0004A4202A9FFF73CFA05B000BD2D410010A9
:1054B0000FB410B50C4984B006AA08CA0C68039250
:1054C000002C0BD0009201220848524202A9A047AA
:1054D000012004B010BC08BC04B01847180000F04C
:1054E0006DFA0020F5E7C046F06F00201D41001066
:1054F00010B5094A0300146884B0002C08D00122BA
:1055000000910648524203A9A047012004B010BDF3
:1055100000F054FA0020F9E7F06F00201D41001060
:1055200000BEFDE7094A03001068002805D00849BD
:10553000C3188B4207D81360704706480449C31844
:1055400010608B42F7D901204042F5E7E86B00205C
:1055500000000420747100200020704701204042A8
:105560007047C046030010B508001100002B05D19C
:10557000044B1A685B6800F073F910BD01204042CB
:10558000FBE7C04650D704100300013B10B50800EC
:105590001400012B06D801230022210000F0E0F8BE
:1055A000200010BD01204042FBE7C04601204042E0
:1055B0007047C046012040427047C046012040422B
:1055C0007047C0460300022200209A4240417047C3
:1055D00010B5FFF7A5FFC04610B50C0082B019004A
:1055E000002A0AD0064B01920093020023000548CE
:1055F000FFF75EFF0120FFF793FF034B1A00F2E76E
:10560000A8DA0410B8DA0410F4D1041070B5FDF76C
:105610001BFE074D074EB54209D20024013E761B02
:10562000B60808CD984723000134B342F9D170BDC4
:1056300014D104103CD10410030010B5080011006F
:105640001B68984710BDC046F0B546464F46D64643
:10565000C0B5437D80460E001700002B46D0002ABF
:105660003FDD4B1E9946244B0125002400209A461D
:105670000DE04B461B5D0D3B5A425341325DDBB2A0
:105680000A2A0BD02B00013401359F421ADD002C71
:10569000EFD14346325D1B7D0A2AF3D1002BF1D1B5
:1056A000A04204DA4346211A1B6830189847434643
:1056B00050461B6802219847013428002B00013511
:1056C0009F42E4DC874204DD4346391A1B683018E8
:1056D0009847F619013E33780D3B5A4253414246F2
:1056E0001375E0BCBA46B146A846F0BD0368110088
:1056F00030009847F5E7C046E8DA0410F0B5C64632
:105700000C000968060000B5802906D04B1C2360F8
:105710006418267180BCB846F0BD0F4B1D68002D83
:1057200016D0231D98460D4F02E02D69002D0FD095
:105730002B68002BF9D03B68002B01D0AB42F4D191
:10574000280041462268FFF77FFF2D69002DEFD129
:1057500001230021DBE7C046D86B0020E06B00206E
:10576000F0B5DE4657464E464546E0B585B01700D3
:105770001C0006000D00FDF7DDFA0023314A121867
:105780004B41002B59DB304908008A4647F034FC76
:1057900001906B1C03D130003CF0A2FF0500002CEF
:1057A00026D12A4B98462A4B1C68002C15D0002F76
:1057B00021D1284F02E02469002C0ED02368002B51
:1057C000F9D03B68002B01D0A342F4D120002A007D
:1057D0003100C0472469002CF0D1019B002B28D157
:1057E000280005B0F0BCBB46B246A946A046F0BDB5
:1057F000194B9846D7E7174B994602ABDF1D0A2392
:105800009B4602E02469002CE7D02368002BF9D0E6
:105810004B461B68002B01D0A342F3D12A00310074
:105820002000C0475B460122390020003B70C04782
:10583000E8E7504647F068FBD2E70122074B5242A7
:10584000A1E7C04640420F00203600203956001024
:10585000D86B0020E06B002049560010FFFFFF7F4F
:10586000F8B557464E464546DE4698461A4BE0B5D3
:105870009A461A4B07000E0093469946184D534618
:105880001C68002C03D115E02469002C12D02B6871
:10589000002B01D0A342F7D1A368002BF4D0310034
:1058A000380098470028EFDDF0BCBB46B246A94659
:1058B000A046F8BD4B465B6A984508D84A46926AAE
:1058C0005A4501D2984502D002204042ECE701201F
:1058D0000021FDF739FAD2E7D86B002000400540DF
:1058E000E06B00200A4A1368002B05D10CE01A0077
:1058F0001B691032002B07D09842F8D1002902D141
:1059000003691360016170470029FCD01060FAE759
:10591000D86B002010B500F0B1F900F0E7FA0120D3
:1059200010BDC046F0B5CE46474680B583B06B4645
:105930000600DD1D2870FDF7FDF900231A4A121834
:105940004B41002B2BDB19490800884647F054FBDC
:10595000174B81461C68002C14D0164F02E02469B6
:10596000002C0FD02368002BF9D03B68002B01D00E
:10597000A342F4D1200001222900FFF765FE24692B
:10598000002CEFD14B46002B05D1300003B0C0BC3A
:10599000B946B046F0BD404647F0B6FAF5E70122F9
:1059A000054B5242CFE7C04640420F002036002050
:1059B000D86B0020E06B0020FFFFFF7F70B5040074
:1059C0003CF08EFE01230100050001222000FFF7BC
:1059D000C7FE084B1C68002C06D06368002B05D05E
:1059E00098472469002CF8D1280070BD2469002C48
:1059F000F3D1F9E7D86B0020F0B5CE46474680B525
:105A0000A5B004000D00FDF795F900232A4A1218ED
:105A10004B41002B49DB294E300047F0EDFA0023C3
:105A20000700039322002B00254803A9FFF730FD50
:105A3000039B8046002B14D1224B1C68002C06D0FF
:105A40006368002B0BD098472469002CF8D1002FF5
:105A500027D1404625B0C0BCB946B046F0BD246948
:105A6000ECE7184B1D689946002D22D0164C02E039
:105A70002D69002D11D02B68002BF9D02368002B45
:105A800001D09D42F4D1039B28001A0004A9019380
:105A9000FFF7DAFD2D69002DEDD14B4603951C680B
:105AA000CCE7300047F030FAD3E70122074B5242EF
:105AB000B1E70395CBE7C04640420F0020360020F7
:105AC000FD560010D86B0020E06B0020FFFFFF7F29
:105AD0000FB400B583B004A901C90191FFF78CFF91
