:020000041000EA
:1000000000B5324B212058609868022188439860DF
:10001000D860186158612E4B002199600221596106
:100020000121F02299502B49196001219960352056
:1000300000F044F80222904214D00621196600F024
:1000400034F8196E01211966002018661A6600F04E
:100050002CF8196E196E196E052000F02FF8012189
:100060000842F9D1002199601B49196000215960AB
:100070001A491B48016001219960EB211966A021F2
:10008000196600F012F800219960164914480160C1
:100090000121996001BC002800D000471248134993
:1000A000086003C880F30888084703B5996A0420EC
:1000B0000142FBD001200142F8D103BD02B5186610
:1000C0001866FFF7F2FF186E186E02BD00000240BE
:1000D000000000180000070000035F00212200005C
:1000E000F4000018222000A00001001008ED00E03C
:1000F00000000000000000000000000074B24E7A12
:1001000000200420F7010010C30100101D4701105A
:10011000C1010010C1010010C1010010C101001097
:10012000C1010010C1010010C1010010C701001081
:10013000C1010010C1010010C9010010CB01001065
:10014000CD010010CD010010CD010010CD01001037
:10015000CD010010CD010010CD010010CD01001027
:10016000CD010010CD010010CD010010CD01001017
:10017000CD010010CD010010CD010010CD01001007
:10018000CD010010CD010010CD010010CD010010F7
:10019000CD010010CD010010CD010010CD010010E7
:1001A000CD010010CD010010CD010010CD010010D7
:1001B000CD010010CD010010CD010010CD010010C7
:1001C00000BE00BE00BE00BE00BE00BEEFF3058054
:1001D000103800BEF2EB887130AF051054AF051037
:1001E0003802001090A31AE71E481F49086006C88D
:1001F00081F3088810471D480068002801D019487D
:10020000F3E70DA40ECC002902D000F012F8F9E7B4
:100210001749184A002000E001C19142FCD116495B
:100220008847164988471649884700BEFDE701C937
:1002300001C29A42FBD3704754AF05104001002021
:100240002036002034E405100000042000000420C3
:1002500034E4051000100420001004200000000009
:10026000704700000000000008ED00E0000000D032
:10027000203600207C71002071650010851100106F
:1002800035650010F8B5C0460448054B10B58342EB
:1002900003D0044B002B00D0984710BD203600201F
:1002A000203600200000000006480749091A8B107C
:1002B000C90FC91810B5491003D0044B002B00D04A
:1002C000984710BD20360020203600200000000096
:1002D00010B5074C2378002B09D1FFF7D5FF054B4C
:1002E000002B02D0044800E000BF0123237010BDA2
:1002F000B83E0020000000005CDE0410054B10B585
:10030000002B03D00449054800E000BFFFF7CCFFF5
:1003100010BDC04600000000BC3E00205CDE0410A2
:1003200010B5092812D0172802D0182829D010BDDE
:10033000D0228023120651681B04194218D152683A
:100340001A42F4D10122134B1A70F0E7124A1368D3
:1003500001331360D0231B065B68104ADB0603D40D
:100360001368013B1360E2E7136801331360DEE7B3
:1003700003F066F901220A4B18605960094B1A70A4
:10038000D5E703F05DF90122074B18605960074B70
:100390001A70CCE77571002010710020D86C002015
:1003A000983C002074710020883C0020737100206C
:1003B00010B509F091FA1F211D2001F0DBFF00228A
:1003C00000211D2001F0FAFF00211D2002F0EAF8B3
:1003D0001F211A2001F0CEFF002200211A2001F077
:1003E000EDFF00211A2002F0DDF8172002F0EEF8F0
:1003F000D024802324061B04A3620122002117209D
:1004000001F0DCFF182002F0E1F880235B04A36216
:1004100001220021182001F0D1FF0421002001F069
:10042000A9FF264B26481A6893009B18254A9B0073
:100430009918254A18184A60FF220A61234A9A1817
:1004400012681204120C02600122096804208A4317
:100450001F498C4663441A6002F0B8F81023092043
:10046000636202F0B3F880239B00A36200220121A3
:10047000092001F0A3FF082002F0A8F880235B0008
:10048000A36200220121082001F098FF11491248BF
:1004900009F0E4F903210C2001F06CFF03210D2089
:1004A00001F068FF002201210C2001F087FF0022EB
:1004B00001210D2001F082FF10BDC04658710020BF
:1004C0000C100540000005400D0300000C00054025
:1004D00000100540801A0600082B0020F0B5574692
:1004E000DE464E4645468C4BE0B51C6899B0E30F9E
:1004F0009A46E317E41803905C40092C00D8F2E018
:10050000632C00D8B4E0FA239B009C4200D2F9E0AF
:10051000824B9C4200D8F8E0814B20009846814BEA
:1005200001279946804B814D9B4608E0464500D8FF
:10053000B7E04E4500D8C4E05E4500D8C4E07C4931
:10054000060003F0BBFB39000437AE42EED8CD1CE9
:100550000CAB9B4639000EAB51442D2258460593F7
:100560000C9332F053F80C9B9C46E244714B013DD6
:1005700098466A4B554499462000642103F09EFB3F
:1005800020004E00642103F099FB43469B195B78E1
:1005900027006B7043469B5D04002B70023D4F4566
:1005A000EAD8FA239B009F4200D371E03034E4B2D2
:1005B00053461C700F230022009300215E4B5846C7
:1005C00032F074F9060014AD129503680836040081
:1005D000B34200D17BE01293836814936368139352
:1005E000002363602372139B26600493049A534B89
:1005F0009B1A022B00D88BE00322514912A832F03B
:1006000019FA070008AE0696036808370400BB42D3
:1006100063D0069383680893636807930023276079
:10062000129863602372A84203D01499013104F038
:10063000E9FB0C98059B984204D05B469968013110
:1006400004F0E0FB069B3F48009300210123039A3E
:1006500001F090FC0698B04203D00899013104F0F3
:10066000D1FB19B0F0BCBB46B246A946A046F0BDCE
:100670000CAB9B460EAB05930C9353462D22991C55
:10068000584631F0C3FF0C9B9C462A4BE2449846E7
:100690004346524664001B195B78537043461C5D09
:1006A00086E70CAB9B4605310EAB51442D225846D4
:1006B00005930C9331F0AAFF0C9B3D009C46E2444D
:1006C00054E78F1D4D1D43E7CF1D8D1D40E71022C0
:1006D0003100280004F080FB80E710223900300050
:1006E00004F07AFB98E70CAB9B460EAB05930C939A
:1006F00053462D22591C584631F088FF0C9B9C46CE
:10070000E24453E70225032722E7032504271FE7D6
:100710000D4827F06DFBC046647100200F270000D4
:100720003F420F007F969800FFE0F5059F8601008D
:100730001027000064E10410A0DF0410FFFFFF3F5A
:10074000C8DF041014710020B0DF0410F0B54E466D
:10075000DE4657464546E0B5914B93B01C68994636
:10076000E30F0393E317E41804905C40092C00D8CE
:10077000FCE0632C00D8A7E0FA239B009C4200D247
:1007800005E1884B9C4200D804E1874B2000984645
:10079000864B01269A46864B864F9B4608E0454588
:1007A00000D8ACE0554500D8BDE05D4500D8BDE0BF
:1007B0008149050003F082FA31000436BD42EED8CB
:1007C000CD1C0CAB9A46039F0EAB2D225046B91997
:1007D00005930C9331F01AFF0C9A3B009446634446
:1007E00003939C46754B6E1E98466E4B66449B4623
:1007F0002000642103F062FA20004D00642103F020
:100800005DFA43465B195B782700737043465B5D76
:1008100004003370023E5F45EAD8FA239B009F42F2
:1008200064D23034E4B25246039B1C705268644B6D
:100830009A4200D1B1E001225046624932F0FAF802
:10084000060008AD0695036808360400B34200D1DF
:1008500086E0069383680893636807930023266005
:10086000636023720C98059B984204D053469968A4
:10087000013104F0C7FA4B461B68002B59D06E2695
:10088000092B00DC0636049A4F4C90464F4B6E21E4
:10089000200000930123069F01F06CFB42462000DC
:1008A000012331000832009701F064FB0698A8424A
:1008B00003D00899013104F0A5FA13B0F0BCBB468F
:1008C000B246A946A046F0BD0CAB9A46039D0EABBE
:1008D0002D225046A91C05930C9331F097FE0C9ADB
:1008E0002B00944663440393344B9846434664007C
:1008F0001B195B78039A537043461C5D93E7039D75
:100900000CABAC469A4605310EAB61442D225046E5
:1009100005930C9331F07AFE0C9B9C46654403953D
:10092000039B35005DE78E1D4D1D4AE7CE1D8D1DD5
:1009300047E7254C254B049E6E2132002000009392
:10094000012301F017FB3200214B2000009374219A
:100950000123083201F00EFB0698A842A9D1ACE7AA
:1009600010223100280004F037FA75E70CAB9A46E4
:10097000039D0EAB2D225046691C05930C9331F05C
:1009800045FE0C9A2B0094466344039349E70225E5
:10099000032616E70325042613E70E4827F028FA56
:1009A000906B00200F2700003F420F007F969800B9
:1009B000FFE0F5059F8601001027000064E10410A8
:1009C000FFFFFF3FCCDF041014710020D0DF0410C4
:1009D000D4DF0410B0DF0410002310B5214C82B026
:1009E0002372214B4022009380213C23200001F000
:1009F00013FA002832D0200001F0B4FA1B4B022277
:100A0000002120000093022301F0B4FA184B1422B5
:100A1000002120000093012301F0ACFA154B1E22A7
:100A2000002120000093012301F0A4FA124B2D2293
:100A3000002120000093012301F09CFA0F4B372284
:100A4000002120000093012301F094FA0020FFF719
:100A50007DFE200001F0C2FA02B010BD084805F08A
:100A60005BFFF9E714710020082B0020D8DF041089
:100A7000E0DF0410F8DF041010E0041020E00410A0
:100A800074DE0410194B10B51B780400042B21D818
:100A9000174A9B00D358083020609F46072215490B
:100AA00004F09AF9072363600023E373200010BD6C
:100AB00007221149F4E70422104904F08DF90423B8
:100AC000636000232373F1E707220D49E8E707225B
:100AD0000C49E5E708300B220B49206004F07CF953
:100AE0000B2363600023E374E0E7C0467A710020C3
:100AF0006CE0041050E0041058E0041038E00410DA
:100B000040E0041048E0041060E00410E021224AB4
:100B1000C901136870B50B4020490B600421204BBC
:100B20001960FC3113680B42FCD0FA2080210425A7
:100B300054681B4E2404184A240C80004900356078
:100B400013680B42FCD0536801381B041B0CE418DB
:100B50000028F4D1200003F093FB124B002203F095
:100B6000FAFA03F0A5FBF823DB00984200DC0E48FC
:100B70000E4B984200DD180003F082FB0C4A0D4B2F
:100B800003F007FB00220C4B03F0D3FA03F090FBB9
:100B900004F016F870BDC04600C0044000D0044008
:100BA00000E0044000408F40C10700002E0A000012
:100BB0006628568BA69CC43F00007440F8B51D4CB7
:100BC0002378BFF35B8FDB0726D51B4E02F038FD81
:100BD00002000B0004000D0030687168121A8B418E
:100BE0001100002B04DC00D0F8BD144B9942FBD956
:100BF000134F386803F0E4FF124903F072FF124903
:100C000003F06FFF114903F080FF114B34607560F2
:100C1000186000233B60E7E7200014F0DBFA0028AF
:100C2000D3D002F00DFD044E30607160200014F04E
:100C3000EDFACBE704410020203600203F420F00B0
:100C40001071002000004041560E08420000704222
:100C50004C71002008B4F0B50D00110082B01C23C7
:100C60006E460400C81D00AFC008FB18C000301A53
:100C700004CB85463B60A8470500200008306E463F
:100C800020607D600F2D10D8012D0BD13378237299
:100C900000236560BD464355200002B0F0BC08BC8F
:100CA00001B01847002DF3D007E000222000391DC5
:100CB00031F08EFC7B682060A3602A00310004F0D4
:100CC0008BF87D682068E3E7F0B5234B8FB0050013
:100CD000186803F0CFFF3A22009001911F4B204982
:100CE00008A8FFF7B7FF0C230022009300211D4B3B
:100CF00008A831F0DBFD070004AE02960368083750
:100D00000400BB4221D00293836804936368039379
:100D1000002327600898636023720AAB984203D0CF
:100D20000A99013104F06EF8029B0F4800932A00E3
:100D30000123002101F01EF90298B04203D004996A
:100D4000013104F05FF80FB0F0BD1022390030001F
:100D500004F042F8DAE7C046F06C002080E00410AE
:100D6000D963001084E0041014710020F0B5234B07
:100D70008FB00500186803F07DFF3A2200900191C2
:100D80001F4B204908A8FFF765FF0C2300220093A2
:100D900000211D4B08A831F089FD070004AE029622
:100DA000036808370400BB4221D002938368049390
:100DB00063680393002327600898636023720AAB7B
:100DC000984203D00A99013104F01CF8029B0F48A5
:100DD00000932A000123002101F0CCF80298B042D0
:100DE00003D00499013104F00DF80FB0F0BD1022CA
:100DF0003900300003F0F0FFDAE7C0464C71002004
:100E000080E00410D963001094E0041014710020F5
:100E1000F0B5234B8FB00500186803F02BFF3A2282
:100E2000009001911F4B204908A8FFF713FF0C23E6
:100E30000022009300211D4B08A831F037FD070068
:100E400004AE0296036808370400BB4221D0029327
:100E500083680493636803930023276008986360A2
:100E600023720AAB984203D00A99013103F0CAFFFA
:100E7000029B0F4800932A000123002101F07AF819
:100E80000298B04203D00499013103F0BBFF0FB0C8
:100E9000F0BD10223900300003F09EFFDAE7C046B3
:100EA000DC6C002080E00410D9630010A4E0041082
:100EB00014710020F0B5234B8FB00500186803F0C3
:100EC000D9FE3A22009001911F4B204908A8FFF754
:100ED000C1FE0C230022009300211D4B08A831F015
:100EE000E5FC070004AE0296036808370400BB4225
:100EF00021D00293836804936368039300232760DF
:100F00000898636023720AAB984203D00A990131B2
:100F100003F078FF029B0F4800932A000123002171
:100F200001F028F80298B04203D00499013103F08F
:100F300069FF0FB0F0BD10223900300003F04CFF04
:100F4000DAE7C046E06C002080E00410D9630010AE
:100F5000B4E004101471002010B5474C82B020009A
:100F600001F000F8454B1B78062B1AD8444A9B0029
:100F7000D3589F46434B02220021200000930223B6
:100F800000F0F8FF0020FFF7E1FB1420FFF740FF1F
:100F90001E20FFF7EBFE2820FFF78CFF3220FFF723
:100FA00093FE200001F01AF802B010BD364B022269
:100FB000002120000093022300F0DCFF0020FFF757
:100FC000C5FB324B2000009314220123002100F0C6
:100FD000D1FF1E20FFF71CFFE3E72D4B20000093FD
:100FE00002220223002100F0C5FF2A4B20000093BB
:100FF00014220123002100F0BDFF274B1E220021F7
:1010000020000093012300F0B5FF0020FFF79EFBB6
:101010003220FFF763FAC4E7204B022200212000B0
:101020000093022300F0A6FF0020FFF78FFB14209F
:10103000FFF740FF3220FFF751FAB2E7184B9AE76B
:10104000184B0222002120000093022300F092FF9F
:101050000020FFF77BFB0F4B20000093142201239D
:10106000002100F087FF0C4B1E220093002101237A
:10107000200000F07FFF94E7147100207A710020B7
:1010800004E1041048E00410E8E00410F0E004106B
:1010900040E00410E0DF0410C4E0041050E004104D
:1010A00058E00410DCE00410F8B52B4C2378002B3A
:1010B0001CD02A4B2A491A685B6808684968121ACA
:1010C0008B4116001F1E12DDD021090648688021C1
:1010D000050009040D40084210D00121214D29705E
:1010E000002F15DC02D1204B9E4211D8F8BD002BF9
:1010F0000AD01C4D29780029F8D0F1E72570194D48
:1011000029780029F2D0EBE718498A42F1D9DBE7C8
:101110000622174BFF211A70164B013A1A70D02382
:101120000B321B069A61144B1A6893009B18134AE2
:101130009B009A1812684A40114912048C46120CFE
:1011400063441A60FFF708FFFA20400002F0DCF960
:10115000002323702B70C9E774710020903C00209D
:10116000983C00207B710020BFC62D009F860100A7
:101170007A71002079710020587100200C00054020
:101180000C100540F0B5DE4657464E464546E0B5E4
:101190009FB013F0C3FF002005F070FF05F06CFB5B
:1011A000002001F013FAD0230124FA201B069C61D1
:1011B000800002F0A9F9FFF7FBF8FFF7A7FC03F0A6
:1011C00021FDD44B1860FFF707FC0023D24AD34916
:1011D0001370D34B402215A81C7013F0A9FFD14AFD
:1011E000D14915A813F0AAFFD04B012204210920F0
:1011F00001F070F901220C21172001F03FF90122C2
:101200000421182001F03AF9C94B9B46C94B984676
:10121000C94B9946C94B9A460425C94CC94805F0A3
:101220007BFB02F00DFAC84B03C3002900D152E347
:10123000FA220023920002F07FFD0F90C34B1B782F
:10124000002B10D0C24B1B78002B09D0B44BB24AF4
:101250001B781370022B00D152E30023BC4A137099
:101260000023BA4A1370FFF71FFFBA4B1B78002BFD
:1012700020D0B54B1A685B6810921193B64B1A6870
:101280005B681292139312981399109A119B121A79
:101290008B411100002B03DC0CD1B04B994209D9D2
:1012A00004229D4B1B789343012B00D11DE30023A7
:1012B000A84A1370FFF782FCE0222368D201134092
:1012C000A74A13600422A74B1A60FC32236813421A
:1012D000FCD0FA2280266068A2490004000C92002B
:1012E00076000D6023683342FCD06368013A1B042A
:1012F0001B0CC018002AF4D102F0C2FF9A4B002246
:1013000002F029FF02F0D4FFF823DB00984200DC52
:101310009648974B984200DD180002F0B1FF954ABD
:10132000954B02F036FF0022944B02F002FF02F0D0
:10133000BFFF03F045FC03F065FC764B186015A871
:1013400013F028FF8E4903F0E0FB8E4B18608E4BA4
:10135000186802F095FF00228C4B02F0FCFEC022C0
:101360008B4B120602F0F7FE03F00AF8FC21890508
:1013700003F0CBFB874B28211860684800F096FEED
:1013800000F0B2FE844B1860844B1E68052E00D11D
:10139000A7E2731C10937B4BB6001F68804B9959D2
:1013A0004346186803F097FB391C03F097FB43464C
:1013B00018607B4B109A9F51784B7A491A6003F062
:1013C00090FB554B1B78062B00D927E7764A9B00EC
:1013D000D358061C9F4658460DF060FF0022734903
:1013E00000200CF021FED02310221B065A614B4630
:1013F0006F491A688C4693009B186E4A9B009A1896
:10140000126863441204120C1A60FFF7A5FD012351
:10141000434A137000E753466749186803F075FBA9
:101420004149041C381C03F070FB011C201C03F014
:1014300055FB5346186018A8FFF724FB564B189C21
:10144000186803F017FC0C900D91524B186803F0CC
:1014500011FC0A900B91594B186803F00BFC089093
:101460000991301C03F006FC53460690079118685A
:1014700003F000FC04900591424B186803F0FAFB5E
:101480000F9B029003910093002322000193584682
:101490004B490DF03FFF18981AAB984204D01A9BA5
:1014A000591C0F9303F0AEFC464B186803F088FB01
:1014B000354B041C186802F0E3FE0022334B02F0A7
:1014C0004AFEC022324B120602F045FE02F058FFDF
:1014D000011C201C03F05EFB002800D12AE2D0236F
:1014E00010221B065A614B4631491A688C469300FC
:1014F0009B18304A9B009A18126863441204120C1D
:101500001A600523044A1370FFF726FD0523044AD9
:10151000137081E6906B00207A710020082B002068
:1015200079710020CDCC4C40CDCCCC3D21030010B6
:10153000B83700205C40002058710020087100205E
:1015400000C0044020E10410903C00207571002090
:101550007B71002073710020883C00209F86010071
:1015600000D0044000E0044000408F40C10700006C
:101570002E0A00006628568BA69CC43F00007440CB
:1015800000007A44DC6C0020D86C00200000284069
:10159000CA014140E06C0020F06C0020584000205F
:1015A000444000200000A04048E1041034E304104F
:1015B0000C1005400C0005406666663F4C7100202B
:1015C0002CE10410946C0020D02310221B069A6199
:1015D0004B46EE491A688C4693009B18EC4A9B00D8
:1015E0009A18126863441204120C1A60C023E94A64
:1015F0009B011168FA244B40E021C9010B40E649E8
:1016000000200B6080210425E44EA40049003560D1
:1016100013680B42FCD05368013C1B041B0CC01820
:10162000002CF4D102F02CFE0022DD4B02F093FDE1
:10163000DC4ADD4B02F0ADFD0022DC4B02F082FD06
:1016400002F036FEDA4B186003F0BAFAD94903F01B
:1016500048FAD94903F059FA03F0D4FAD74B1422C7
:101660001880D74B00211C6043460024D5481C60DD
:1016700003F0ACFB53461C60FFF76EFC0423D24A18
:101680001370C9E55346D149186803F03EFAD049B2
:10169000041C381C03F039FA011C201C03F01EFA4C
:1016A0005346186018A8FFF7EDF9CA4B189C186844
:1016B00003F0E0FA0C900D91C74B186803F0DAFACA
:1016C0000A900B91C54B186803F0D4FA0890099161
:1016D000301C03F0CFFA534606900791186803F0C8
:1016E000C9FA04900591BE4B186803F0C3FA0F9B2A
:1016F0000290039100930023220001935846B949B8
:101700000DF008FE18981AAB984204D01A9B591C89
:101710000F9303F077FBB44B186803F051FAB34B07
:10172000041C186802F0ACFD0022B14B02F013FD5E
:10173000C022B04B120602F00EFD02F021FE011C89
:10174000201C03F019FA002800D109E1D02310224F
:101750001B069A614B468D491A688C4693009B186C
:101760008B4A9B009A18126863441204120C1A6088
:101770000323A14A1370FFF7EFFB0323924A137070
:101780004AE500229D4900200CF04EFC012000217A
:10179000404205F035FDD02310221B065A614B460E
:1017A0007A491A688C4693009B18794A9B009A18CC
:1017B000126863441204120C1A600123824A1370E7
:1017C0002AE505F051FC01228C498D480CF02CFCD7
:1017D000002005F0C5FCD02310221B065A614B46A1
:1017E0006A491A688C4693009B18694A9B009A18AC
:1017F000126863441204120C1A60C023654A9B01EC
:101800001168FA244B40E021C9010B4062490020D5
:101810000B6080210425614EA400490035601368E7
:101820000B42FCD05368013C1B041B0CC018002C5D
:10183000F4D102F025FD0022594B02F08CFC594AEC
:10184000594B02F0A6FC0022584B02F07BFC02F040
:101850002FFD574B186003F0B3F9564903F041F9D7
:10186000554903F052F903F0FFF9544B1422188044
:10187000534B00211C604346002452481C6003F077
:10188000A5FA53461C60FFF767FB02234E4A13700C
:10189000C2E4D02310221B069A614B46FF211A682E
:1018A000381C93009B183A4A9B009A1812684A40C9
:1018B000364912048C46120C634452491A6003F0F4
:1018C00069F9002800D11FE60023484A13604A4AFC
:1018D0000533137018E6FA21890002F0EFF90F9032
:1018E000ACE401230026109355E5D0231B065B686A
:1018F0001B0200D5DBE40121012002F047F8D6E409
:101900000622584640490CF073FC002608280CD1EA
:10191000013632003D493C4804F036FD0622584667
:1019200039490CF065FC0828F2D0584638490DF0CA
:10193000F1FC92E4214B10211A88D0231B069961F7
:101940004B4619688B005B1811499B0059180968B0
:101950004A400E4912048C46120C63441A60D3E5C7
:10196000164B10211A88D0231B0659614B46196863
:101970008B005B1806499B00591809684A400349C7
:1019800012048C46120C63441A60F4E60C100540F5
:101990000C00054000C0044000D0044000E00440BA
:1019A00000408F40C3D32B6519E2983F0000F03F01
:1019B000647100200000C84200007F436C71002069
:1019C0005840002044400020797100206666663F40
:1019D000CDCCCC3DF06C0020E06C00204C710020A0
:1019E000DC6C00202CE10410C8260020D86C0020FC
:1019F00000002840CA0141407A71002034E30410FD
:101A0000183A002000004844B426002034DF0410B7
:101A100040DF041010B5164813F0DEFE01F010FE92
:101A2000144B1860596001F00BFE134B186059609D
:101A300001F006FE114B1860596001F001FE104BD9
:101A40001860596001F0FCFD0E4B0F4A1860596098
:101A5000002313600D4A136001F0F2FD0C4B186077
:101A6000596001F0EDFD0B4B1860596010BDC04688
:101A7000BC560020903C0020B03C0020983C002048
:101A8000A03C0020883C002058710020A06C002061
:101A9000A83C00202836002001207047002801D1F2
:101AA000014870470020FCE7D0260020F0B5C6466C
:101AB00000B588B0984602AB17001A00104C8C464F
:101AC00022CC22C215000F4C43CC43C221780E4CCD
:101AD00011700E4A604601920821220004F068FC51
:101AE0002B0022001021380004F062FC22000421A7
:101AF000404601AB04F05CFC08B080BCB846F0BDC9
:101B000034E204103CE2041030E20410312E3000C4
:101B100010B512F041FF032303405A425341D8B29B
:101B200010BDC04670B504000D00160012F034FF61
:101B3000830705D000232B6080239B00338070BD7A
:101B40002A000121200012F09FFF0028F2D1F3E7C4
:101B500070B51C000125002B05D0002A05D00021FE
:101B60001500084B1970280070BD0022002112F0EA
:101B70008BFF002803D1034B1D702500F3E70025E0
:101B8000F1E7C0467771002070B51D000D4B0400D1
:101B90001B780E0082B0002B11D112F0FDFE8307DE
:101BA0000DD1069B32005B0A009329000023200020
:101BB00012F012FF002802D1069802B070BD012079
:101BC0004042FAE777710020074B10B51A780023DE
:101BD000002A06D112F0D4FE0123800858400123C8
:101BE0000340180010BDC0467771002070B51D007D
:101BF0000D4B04001B780E0082B0002B11D112F0A7
:101C0000CBFE83070DD1069B32005B0A00932900AF
:101C10000023200012F00CFF002802D1069802B029
:101C200070BD01204042FAE77771002010B5002313
:101C30002022052106F064FC0120404210BDC04670
:101C40000048704790E2041000487047A4E2041076
:101C500070B5002826D0052831D81A4B8000C65808
:101C6000300041F0CDFBC0B2011C1F2815D8C9B20D
:101C7000002821D00023144DAA1CF05C0133DCB2F3
:101C800010800232A142F8D8C0230131C9B2490004
:101C90009B0019432800298070BD1F21C9B200286C
:101CA000E8D109E0084D074B02221968A81C03F08F
:101CB00093F8C1218900EDE70449034DEAE70020CC
:101CC000EAE7C046FC290020A459002002030000D6
:101CD000F0B54E464546DE465746E0B58FB01E008D
:101CE000019318AB20CB0B91197807230C9129781D
:101CF00006950B405C1EA341C90859186B780791E3
:101D0000002B00D181E000297FD0013A0D92012201
:101D1000F1009246089106320021934604000A9190
:101D20000A98069A84460C99D2788A1A53430199E4
:101D3000079A634453430A0042430B980533844691
:101D4000624402928C460A000993534600210D9882
:101D50009B1A6044049003910593099A069B94464C
:101D6000039A63449B5C019D984608239C46029B12
:101D7000049F99464D442B00454698460AE0634629
:101D8000013BDBB29C46019B6D08994663464F447C
:101D9000002B27D053462B42F1D0059B9946019B3F
:101DA000B944002BEBD0029923784A468B4215D9CF
:101DB000607882420CD2D0084343584656461040C1
:101DC00086403000E6685B18F65C3043E668F05405
:101DD000BA4203D0237801328B42E9D80131414520
:101DE000E2D1CCE70899049A8C46039B62440492A2
:101DF000079A013303939A42AFD10A9A069B0132A4
:101E00005B78D2B20A929A428AD30FB0F0BCBB463A
:101E1000B246A946A046F0BDF0B5DE464E46454660
:101E20005746E0B58BB01F00149B06009B46D3B20B
:101E3000737015009846D3085A46C8B2DBB23070AA
:101E40005843B3703061F77072600130894602F018
:101E500087FFF060002800D174E03B4B03AC039394
:101E60004346013B2371D32363718023DB01E3806D
:101E70008D232372337A0130F060002B48D1142374
:101E80006372324B6D006381DA232373A94551DD00
:101E900002236373813BE3815933FF332374183387
:101EA00063742B4B02AD63822A4B08930023237685
:101EB00025336B449A46284B9846284B99460BE0AD
:101EC000431C03D14146264804F0B0FD013454457B
:101ED00016D07368F7789B46002322782B706A70BF
:101EE000390000932A000233584607F0E1FC831CB6
:101EF000E6D141464846013404F098FD5445E8D106
:101F000001200BB0F0BCBB46B246A946A046F0BDCE
:101F1000102363720D4B6D006381DA232373A9458F
:101F20000CDCC83B6373913BE3815933FF3323746B
:101F3000B73BB5E712236373913BACE702236373AE
:101F4000813BF1E73061DCE7AED580A8A1C8FFFF97
:101F5000DB300000A4A6AF2008E3041038E304102F
:101F600018E30410030010B50021C0681A6902F0DC
:101F70002DFF10BDF0B54E4645465746DE46E0B54E
:101F800083B00C9D81462C78924698460E00002C1A
:101F900016D05F00104B47449B467F002300203B38
:101FA00001355E2B13D85B463100019400935246F5
:101FB00043464846FFF78CFE2C78F619002CEDD1ED
:101FC00003B0F0BCBB46B246A946A046F0BD2C7893
:101FD000F619002CE2D1F3E758E30410F0B5CE4631
:101FE0004746212380B5027887B004AC511E237088
:101FF000A170002322216370E170237183780600B1
:10200000013B6371402A03D1202363703F33A370E7
:102010001627224B6F449846214B03AD994608E0A2
:10202000431C03D141461F4804F000FD0134A74280
:1020300013D0002322782B706A70F17800932A0065
:102040000233706807F034FC831CE9D141464846EE
:10205000013404F0EBFCA742EBD140220024F368EA
:10206000013B1A703369F2680133F1787068013A04
:10207000009407F01DFC831C0AD0431C03D10A49BD
:10208000084804F0D3FC07B0C0BCB946B046F0BD68
:102090000549034804F0CAFCF5E7C04608E304100C
:1020A00038E3041018E3041048E304100B2270B561
:1020B000002604000D0084B06A44167000230096C8
:1020C00007F000FC022329002000009603AA07F075
:1020D000F9FB6B463F201B7B18406B465B7B000285
:1020E000184304B070BDC04610B502F069FD034945
:1020F00002F0F1FC024902F008FD10BD00007A4434
:10210000C616023CD0231B061B68F0B59A00454654
:1021100090464146934ADE465258574693465A1EC9
:10212000934130224E465B421A4013008E4AE0B57E
:10213000944683B0634401938C4B08269A4635003D
:10214000083DEA081300019908339B005C58002CF5
:1021500027D05B46002B2ED001230F27994639004C
:102160002140274217D0524640462B001258203BB0
:10217000EA40DB1713404A4613420CD107220800FD
:102180002A40920090400200EB0879483C339B00C3
:102190001A502800D84724090135002C01D0B54237
:1021A000DDD30836282ECAD103B0F0BCBB46B246F8
:1021B000A946A046F0BD0F2318002040234209D0B5
:1021C00041466A4B59583300E940283BDB0F0B422C
:1021D00000D197E02309F11F002BE2D00F2210005D
:1021E00018401A4211D04246604B9A583300CA40F8
:1021F000273BDB0F134208D10722CB08114089008F
:1022000088405B4A3C339B009850230AB11F002B47
:10221000C7D00F22100018401A4211D04246534B2B
:102220009A583300CA40263BDB0F134208D10722DD
:10223000CB081140890088404D4A3C339B009850A0
:10224000230B711F002BACD00F22100018401A4234
:1022500045D1230C311F002BA3D00F2210001840B2
:102260001A4258D1230DF11E002B9AD00F221000D4
:1022700018401A4262D1230EB11E002B91D00F22BA
:10228000100018401A4211D04246384B9A58330079
:10229000CA40223BDB0F134208D10722CB08114072
:1022A00089008840324A3C339B009850240F711EAD
:1022B000002C00D175E7534642469A583300CA4075
:1022C000213BDB0F134200D06BE70722CB08114004
:1022D00089008C40264A3C339B009C5061E7424673
:1022E000224B9A583300CA40253BDB0F1342B0D132
:1022F0000722CB081140890088401D4A3C339B00CF
:102300009850A6E707231D40AD00A840184B3C326B
:102310009200D0505EE74246144B9A583300CA40B0
:10232000243BDB0F13429DD10722CB0811408900CB
:1023300088400F4A3C339B00985093E742460B4B32
:102340009A583300CA40233BDB0F134293D1072234
:10235000CB08114089008840054A3C339B009850C7
:1023600089E7C046986C0020004101403C71002084
:102370000040014010B54024084A83009A181268B2
:10238000C0005440C0222240054CA44663441A6059
:10239000044B9C466044416010BDC04604C00140EF
:1023A00004D0014000400140034BC0009C46604403
:1023B00043681F2018407047004001400B4B8000CD
:1023C0009C46604400290ED100230431002A00D12C
:1023D0001900802203685201594094460C2360443E
:1023E0000B40036070470C210823EFE704C0014055
:1023F000064BC000C3181B6809045940C0239B0248
:102400001940034B9C466044016070470440014002
:1024100004500140064BC000C3181B680903594013
:10242000C0239B011940034B9C46604401607047E8
:102430000440014004500140054B8000C3181B6854
:102440004B4001211940034B9C466044016070479A
:1024500004C0014004D00140064B8000C3181B6833
:102460000901594030231940034B9C4660440160E8
:102470007047C04604C0014004D00140D0231B0671
:102480001B6830B50500581E834110485C428446E5
:1024900007203023284023408000EC0881402000A2
:1024A0000B4D3C3063448000A40041511B19002AAD
:1024B00005D08022920194466344196030BDC02249
:1024C0009201944663441960F8E7C0460041014018
:1024D00000400140F8B545469846D0231B06DE462D
:1024E0001C689B462B4B57469A46A3004E4699467E
:1024F000E0B5534616004A469B5807000D00002BD6
:1025000034D04346002B3FD053464A46414699506B
:10251000D0231B061C6807201F4A631E9C4194465B
:10252000FA081100302338408000854064421B487F
:1025300023403C316344890092000D509B18002ECB
:102540000ED0802292019446634401210D201D602B
:1025500000F084F9F0BCBB46B246A946A046F8BDDF
:10256000C0229201944663441D60F3E74346002B6A
:10257000D1D0534641460D2099500022084900F021
:10258000A9F95B461C68C6E70D20054900F096FADC
:10259000BAE7C046986C002000410140004001406D
:1025A000052100108000002905D0064B9C464023E1
:1025B000604403607047044B9C46402360440360C2
:1025C000F8E7C04604E0014004F001400123D022B6
:1025D00083404021120693629361094A83009A184E
:1025E0001268C0005140C0220A4006498C4663442C
:1025F0001A60054B9C460523604443607047C04603
:1026000004C0014004D00140004001404021094A7B
:1026100083009A181268C0005140C0220A4006493F
:102620008C4663441A60054B9C461F2360444360FC
:102630007047C04604C0014004D001400040014042
:102640008023DB051868000F7047C0460FB400B543
:10265000084883B004F060F9049B002B07D005A95B
:102660001800019103F0F6FE034804F055F901202B
:1026700003F008FF38E504109CDF0410EFF310802E
:1026800072B6034A1368002BFCD0BFF35F8F70470C
:102690002C0100D0BFF35F8F0022024B1A6080F341
:1026A000108870472C0100D070B5EFF3108C72B613
:1026B0000D4D2B68002BFCD0BFF35F8F0724CB0898
:1026C000C618C05C01230C40A3401C000440034218
:1026D00007D103433370BFF35F8F2C608CF31088F6
:1026E00070BD1000FFF7B2FF2C0100D0F8B54746CF
:1026F000CE46884680B5EFF3108C72B6214D2C681B
:10270000002CFCD0BFF35F8F9A422CD8D408072747
:10271000055D061901241740BC402C421FD007213B
:102720000127894609E0D408055D06194C463900A1
:102730001440A1400C00294211D001329342F2D240
:1027400001204042BFF35F8F00220E4B1A608CF3D2
:10275000108800280FDBC0BCB946B046F8BD2C433A
:1027600010003470EEE7BFF35F8F00232B608CF313
:102770001088012040424346002BECD00898FFF718
:1027800065FFC0462C0100D030B5EFF3108C72B657
:102790000A4C2368002BFCD0BFF35F8F0723012274
:1027A000CD0819408A40435D93434355BFF35F8F83
:1027B000002323608CF3108830BDC0462C0100D06C
:1027C000044A1078431CDBB2172B00D91023137076
:1027D0007047C046142A0020064B10B5C3180100EC
:1027E0009B00BFF35F8F002203481A60FFF7CCFF06
:1027F00010BDC04640000034A46C002000B5054B5D
:1028000083B00100009318221F230348FFF76EFFD7
:1028100003B000BD48E50410A46C00200021044B67
:10282000044ABFF35F8F02C39342FAD17047C04698
:10283000000100D0800100D0054B064A1360064A13
:10284000136053609360D360136153619361704769
:102850008080808000E400E004E400E01F23184052
:102860001E3B8340002905D0C021044A4900535033
:1028700013607047802201498B50FAE700E100E0C5
:1028800070B50D00EFF3108672B60F4A1368002B77
:10289000FCD0BFF35F8F0D4B10309B6884001B5939
:1028A0000B4A934203D09D4201D001F001F9074B3E
:1028B0009B681D51BFF35F8FBFF35F8F0022024BF8
:1028C0001A6086F3108870BD240100D000ED00E08E
:1028D000CD010010F0B557464E46DE464546E0B500
:1028E00085B0060002911700EFF3108B72B6674AAD
:1028F0001368002BFCD0BFF35F8F0025644B5D573E
:102900009A46002D00DAA4E06B00624C03935B1939
:102910009B009846A146C1444B4652469B791036CF
:1029200013705D4BB2009B68019299580B1B5F2B93
:1029300034D95A4B994200D0A4E0039B584A9C4694
:10294000584B6544AD006353434602336519E418A0
:10295000554B0121043B1B1B1B055B0D13436B8077
:10296000524BEF71AB80FF23AB71029BAB604B46C8
:102970000B431900484B019A9B689950BFF35F8F36
:10298000BFF35F8F0022414B1A608BF3108805B0B4
:10299000F0BCBB46B246A946A046F0BD01200A00E5
:1029A0008243D379BB422FD845464E461300404957
:1029B0001B1B5B415943090D3A4B63533A4B02359C
:1029C0006519043B5B1B1B05354D5B0D2B43738069
:1029D0000426B446E0444444131F1B1B4C46A1711B
:1029E00002991B05A16049465B0D2B43A380314B27
:1029F000E77101431360BDE75800C018800020183C
:102A0000C679BE422BD902000623D356002BF3DA37
:102A1000101D82462848804604267642B446E1448A
:102A200050464E46361A3005400D824656461C48E2
:102A3000957106439680039A944665441D4AAD00FD
:102A4000641922604246A371029BA280E771A360D1
:102A500090E701F02DF8002553465D5754E7101D0F
:102A6000824690884005001584464046D444664618
:102A700004302018301AE0260005400D360230439D
:102A80008046C9E701F014F857E7C046240100D09A
:102A900078710020182A002000ED00E0CD01001020
:102AA00000E0FFFF00A1FFFF782A002001BDFFFF2B
:102AB000AAAA00000148804701BD0000F0B5DE462B
:102AC00057464E464546E0B50C0083B0EFF31089FB
:102AD00072B65F4A1368002BFCD0BFF35F8F5D4B6B
:102AE0009A68030010339F00D5595B4A904695427F
:102AF0003DD0A5424ED0594EAA1B5F2A37D8584A1E
:102B000093461268944601226146924682401140E3
:102B10001F22104052468240924601918022514627
:102B200058468150BFF35F8FEFF305829346002A2A
:102B300032D101232A009A439068844208D17CE074
:102B40004B005B189B00F318986884422ED01A0043
:102B5000062151560029F3DA84424DD0019B002B07
:102B60001FD0C02251463E4B520099501960394B3C
:102B70009B68DD51BFF35F8FBFF35F8F0022344B43
:102B80001A6089F3108803B0F0BCBB46B246A94670
:102B9000A046F0BD1500EAE79342CAD000F088FFD6
:102BA000C7E7802351462E4AD150E0E70621595607
:102BB000002922DB4A005018800034188046A068A3
:102BC0009860E079D871062020569871002825DB9E
:102BD000A488F01A6405241544440019E024000573
:102BE000400D24022043988052181E4B9200B618C4
:102BF0001A781970B271B1E71300594600290FD144
:102C0000FF3191711849918016490A789A71174AD3
:102C10009B1B5B415A43120D0A709FE71448E2E781
:102C2000144A1549D21A083A5002400D01439980BE
:102C3000124952080A43DA8090E7062151561300E0
:102C40000029B7DA5A46002AEAD14546DCE7C046F1
:102C5000240100D000ED00E0CD010010182A002072
:102C600000E100E07871002001BDFFFFAAAA00008A
:102C700001BD0000822A002000F0FFFF00F8FFFFE6
:102C800070B501240443EFF30581EFF3108C72B6A5
:102C90002D4A1368002BFCD0BFF35F8F2B4A050031
:102CA0002B4BAD1A6D416B431B0D2A4D8900AE684D
:102CB0005BB27658A6422CD00621515699422CD0B0
:102CC00012215156994234D01E215156994232D088
:102CD0002A215156994230D03621515699422ED050
:102CE00042215156994222D04E215156994228D024
:102CF0005A2151560724994210D0174A117813705F
:102D00008171BFF35F8F00220F4B1A608CF3108824
:102D100070BDAA68114C5450EFE7002461000919F6
:102D200089005218FF2191710D499180E5E7052432
:102D3000F4E70124F2E70224F0E70324EEE7042499
:102D4000ECE70624EAE7C046240100D0182A002058
:102D5000AAAA000000ED00E078710020CD0100106B
:102D600001BDFFFF024B9C46614489000160704732
:102D700040000034F8B5134D134E2C00FF27B54228
:102D80001ED22368002B0FD0FFF71AFD0100280088
:102D9000FFF7E8FFA780BFF35F8F0834B4420FD27C
:102DA00023682500002BEFD1FFF70AFD0100280062
:102DB000FFF7D8FF2771BFF35F8F0834B442EFD31A
:102DC000F8BDC046003600202036002010B50400B3
:102DD000FFF7F6FC01002000FFF7C4FFFF2323717B
:102DE000BFF35F8F10BDC04610B504000120FFF790
:102DF00005FD044B9C46604480002060BFF35F8F5C
:102E000010BDC04640000034054B10B59C46040080
:102E1000006860448010FFF7DFFC0023236010BDD2
:102E200000FFFF2F0A4B1968EFF3108072B60A6893
:102E3000002AFCD0BFF35F8F1B68BFF35F8F0022B7
:102E40001A6080F3108840BF002000217047C04600
:102E500054710020F0B5DE4657464E464546E0B573
:102E600085B0EFF30582032313409A00110003920B
:102E7000B64A5258904601229A40B54B91461A6084
:102E800031E043469B881BB2002B00DB9DE04346AC
:102E90009B79002B00D0EFE0434608241C5F002CF8
:102EA00000DA17E142465269630094461B19DB00C1
:102EB00063449C68DD68631C00D113E1A54B039952
:102EC0009C4661449A6A0B69A01A9B1A984200D2E8
:102ED0000C61A04800F0ACFB241A8D41002D00DDF0
:102EE000F8E000D12EE14B469A484363434608225E
:102EF0009B5E9A46002BC4DB424652695B009346B8
:102F00005344DB009B445B469E68DF6800F090FB07
:102F1000801BB9410029B4DB002F00DAEDE05B46ED
:102F20008D4A1B69934200D1E0E041465A46082091
:102F3000085E5288000410435A46516998470400BD
:102F40000D0023002B4300D1D7E0002D00DBF0E083
:102F5000361BAF4134003D005B469C60DD600021C4
:102F6000595E00298DDB43465B6922009C462B009D
:102F700048004018C00060448668C768921BBB4187
:102F8000002B00DA7DE74346664602000094019577
:102F900019810CE07B00DB19DB00F3180098019924
:102FA0009C68DD68001BA941002904DB1A0000238E
:102FB000D75E002FEEDA5B461F80534613804346F0
:102FC0009B881BB2002B00DA61E743461A69EFF3D6
:102FD000108172B61368002BFCD0BFF35F8F43469D
:102FE0009B8842461BB29A4601235B429380136939
:102FF000BFF35F8F00221A6081F310885346002BC5
:1030000000DA44E743465B699C46082343449B46F9
:1030100053465F0043465744FF0008229A5E6744C8
:103020005E46BC68FD68002A19DB3B0000940195F0
:1030300067469C4604E01E000023F25E002A0BDB7C
:103040000098019953009B18DB00FB189C68DD6811
:10305000001BA9410029EEDA6346BC461F00534617
:10306000338000217B5E3A809A46002BD0DA4346BB
:103070009B79002B00D10FE7002342469371434612
:1030800046460821595E08364B1C23D047468C46DD
:10309000556902E006004B1C17D04B005B18DB00A3
:1030A000E8180A00E95E43881BB2002BF2DA01231C
:1030B0005B42DC178360C4606245ECD031803B89A1
:1030C000944603803A814B1CE7D16446B846002CF5
:1030D00000DBE7E640BF05B0F0BCBB46B246A94600
:1030E000A046F0BD6B1C00D0E8E6F2E65B465C69EA
:1030F000200023699847002821D15B4642461B885F
:1031000013811269EFF3108372B611680029FCD0A5
:10311000BFF35F8F4246594652880A804246514665
:1031200051801269BFF35F8F0021116083F3108813
:10313000A7E6084800F07CFA24184D410CE76568C2
:103140002468FEE6002C00D1CDE6C3E72C710020F8
:103150003C70054000400540552E001070B52E4CC7
:103160002569002D04D00A212C48FFF7FBFD70BD16
:103170002B4E0321300000F051FAE660FFF720FBF0
:10318000284B03229C46D02322701B061B6801217A
:103190006370254B6044A3600F23800020610220F0
:1031A000638063694942A1801980023119864731E1
:1031B0001D83585218315A5275325C39995218325F
:1031C0000131995218320131995218320131995214
:1031D000083518329D520231183299521832013195
:1031E00099521832013199521832013199521832DC
:1031F000013199521832013199520C4B0C49DC6063
:1032000001303562FFF73CFB01210320FFF726FB6D
:10321000084B1D60A7E7C046902A0020547100208B
:103220000040054040000034FFFF10002C710020DA
:10323000552E00103860054000487047902A002045
:10324000F8B51F0008AB1B7804001600002B07D14F
:1032500000F0F6F932003B00121A8B41002B4CDBD8
:103260002269EFF3108072B61368002BFCD0BFF315
:103270005F8F62690223E15E94464B005B18DB00BE
:103280006344002901DB1A8862802269BFF35F8FE3
:103290000025156080F31088002930DB069A9E60B7
:1032A000DF601A61079A5A615A8801325204520C3F
:1032B000161C002A1FD0B0B20A045E801043266993
:1032C000EFF3108572B63268002AFCD0BFF35F8F2F
:1032D000A2881A80A1802369BFF35F8F00221A6041
:1032E00085F31088074923788C4601329A40E368B9
:1032F00063441A60F8BD0126DDE70020FAE70120EB
:103300004042F7E73C20000070B5C646010000B51A
:103310000469EFF3108C72B620680028FCD0BFF36C
:103320005F8F02200D5E48696C0080466419E400DE
:103330004444002D01DB208848800869BFF35F8F7B
:10334000002606608CF31088002D30DBE360638874
:103350000598013320615B0406985B0CA2606061F4
:103360001A1C002B21D090B22B04628018430A69EA
:10337000EFF3108672B61368002BFCD0BFF35F8F9B
:103380008B8823808D800B69BFF35F8F00221A60CA
:1033900086F310880B7801329A40CB6805498C4639
:1033A00063441A6040BCB04670BD0122DBE70120D7
:1033B0004042F7E73C20000010B543890A149342CD
:1033C00033DD53009B184269DB0094460469634473
:1033D000EFF3108C72B62268002AFCD0BFF35F8F27
:1033E0005A88090494B2090C8A4208D00369BFF3D1
:1033F0005F8F00221A608CF31088002010BD80229D
:10340000120214435C80012302698371BFF35F8F52
:10341000002111608CF31088054902788C46934096
:10342000C268012062441360E8E70020E6E7C04676
:103430003C20000040787047F0B504000D000626DF
:103440007642F717C64636196F4100B582B08F42F3
:1034500014D811D000F0F4F832003B00121A8B415E
:10346000002B15DC002B44D02000290000F01CF9B3
:1034700002B080BCB846F0BD8642EBD900260027DA
:1034800000F0DEF832003B00121A8B41002BE9DD20
:1034900000F0D6F832003B00121A8B41002B0ADBF9
:1034A00000230193144B3200009314483B00FFF7B4
:1034B0002BFF0028D8DBB0460026BC46104A114F2F
:1034C0007B6A9C4504D8B96A8845CDD99C45CBD147
:1034D0001168EFF3108072B60B68002BFCD0BFF3BD
:1034E0005F8F1368BFF35F8F1E6080F3108820BF6B
:1034F000E6E7002AB8D0CBE7252E0010902A00205E
:10350000547100200040054070B5060000F098F8A6
:10351000FA2204000D00002330000021920001F087
:10352000BDFA00196941002902DBFFF785FF70BD74
:10353000012001494042F8E7FFFFFF7FF0B5CE468A
:10354000474680B504000D0083B0EFF30587002FD8
:103550003BD12F4E81463378F26804339B00916A49
:103560009B58421A5B1A9A420ED320BF294A002068
:10357000536AAB4203D3926A013091453CD803B001
:10358000C0BCB946B046F0BD00F05AF822002B008E
:10359000121A8B41002B26DB1F4B220000933000B8
:1035A0002B000197FFF7B0FE011E1CDD194BA8464A
:1035B0005A6A954225D920BF3000FFF7FDFE154A13
:1035C0000020536A9845DAD8D5E7124A0020536A9A
:1035D0008B42D4D3926A0130A242D0D2581A421EF2
:1035E0009041C0B2CBE70B4A0020536AAB42C6D32E
:1035F000926A01209145C2D9E81A421E9041C0B298
:10360000BDE79B6A9C42D7D99542D5D1D3E7C04646
:10361000902A002000400540252E001010B5024AD7
:103620000248FFF741F810BD70E50410A86C0020B7
:103630000300416A0A00986A596A8A42FAD17047BF
:10364000034B596A0A00986A596A9142FAD1704745
:103650000040054070B504000D00124A536A19007D
:10366000966A536A8B42FAD13000190024184D41F2
:10367000AB4211D80ED02B000A494A6A9A42FCD3B9
:1036800007D1084A02E0516A994202D1916AA142E7
:10369000F9D370BDA642EED9012301246442E51797
:1036A0005B42E9E700400540064A536A9942FCD86C
:1036B00007D1044B02E05A6A914202D19A6A8242CF
:1036C000F9D370470040054010B53DF089FF10BDAB
:1036D0000022835E0A4A944663444B610223C35628
:1036E000013B0B610323C356CB600523C3568B609C
:1036F0000623C3564B600723C3560B607047C04672
:1037000094F8FFFFF8B5DE464E4657464546E0B50D
:103710008B4605000A991800160000F0CFFA0A9BA4
:103720006C001F02324B64199C46A4006444636819
:1037300081469F4200D967602B1FDBB29846012B60
:1037400030D9C02380229B01E31812011A60294B53
:10375000AD0059599A4600291BD122687601724062
:10376000E0268023164042465B01E3181E60012AD2
:1037700030D9802380229B01E31812011A6053463E
:103780004A4667605A51F0BCBB46B246A946A046BD
:10379000F8BD586900F092FA431C5800C01803386D
:1037A000FDD2DAE75B46012BCBD1C02303229B017C
:1037B000E3181A60023AA3681A42FCD0E023226898
:1037C000760156401E4080230A4A5B019246E31868
:1037D0001E60AD005A462168514003220A401A601B
:1037E00001225B469A40A3681A42FCD0C1E7C0465A
:1037F00000800040B06C0020F0B546464F46D646EB
:10380000C0B51F00344B44009C462418A4006444F7
:10381000636888461600FF2B02D880235B00636034
:10382000031FDBB29A46012B30D9C02380229B01B3
:10383000E31812011A60294B85005959994600294D
:103840001BD1226876017240E02680231640524642
:103850005B01E3181E60012A30D9802380229B017E
:10386000E31812011A6080235B0063604B465F51CE
:10387000E0BCBA46B146A846F0BD586900F01EFA51
:10388000431C5800C0180338FDD2DAE74346012B29
:10389000CBD1C02303229B01E3181A60023AA3682C
:1038A0001A42FCD0E0232268760156401E40802355
:1038B0000A4A5B019146E3181E6085004246216872
:1038C000514003220A401A60012342469340A268F5
:1038D0001342FCD0C1E7C04600800040B06C00201D
:1038E000014B8000C0587047B06C0020F8B5040050
:1038F00020481D0017000E0000F0E0F9010038001C
:1039000000F0DCF9069B29041B0319432368002BF4
:103910001EDB194B194DE21853425A4180235B01BB
:103920009C461203164B62441A60164B1A6017002D
:103930002B689F43FBD1144B2660E2182123A06023
:1039400013602368002BFCDA0823E1601360F8BDE4
:103950003F2322681340B342DBD1A3681B051B0D34
:103960008342D6D1EE22E368D20213408B42D0D1FB
:10397000EDE7C046001BB7000040FDBF08C0004097
:1039800000E0004000F0004004300000184B02004E
:10399000184810B5D8618020174BC0051860174C27
:1039A0001748046000290AD0E021164BC9041960A9
:1039B000002A09D18022134B12061A6010BDE021A3
:1039C000C9041960002AF5D053019B1A980080237E
:1039D000801800015B04984200D30B4880220B4BF7
:1039E000D2051860024B5860064B1A60E6E7C046E5
:1039F000008005402131B76A00B00540FCFF01009E
:103A00000820014000A00540FFFFFF0004710020D6
:103A10008023024A9B000B43D3627047008005401D
:103A2000142310B50100188804331B88984710BD73
:103A3000162310B50100188802331B88984710BD63
:103A4000F8B54746CE4680B50F1E19D014239946C7
:103A5000043304000025012698464B461888434647
:103A600021681B88984701C4431E98410135404294
:103A70000640AF42F1D13000C0BCB946B046F8BDF7
:103A80000126F8E7AA23064A1B0113602F230549E4
:103A9000D360054B19605368002BFCDA7047C046B1
:103AA0000040024000B0FA00006002407047C0468B
:103AB00010B50148FEF7CAFD94E5041070B5074D36
:103AC000074EB54209D20024013E761BB60808CD48
:103AD000984723000134B342F9D170BDF8DD0410DA
:103AE00034DE0410054B064A06491A60064A074BA5
:103AF0001A6010000B689843FBD1704700E000404B
:103B0000BFCDFBFE08C00040FE7F3C0000F000403F
:103B1000044BDB6C002B03D18022034BD2021A60D2
:103B20007047C046000011504C201150044A054B0C
:103B30001A60054A1368DB018033FBD17047C04629
:103B4000FFFFFF0100F0004008C000404022034B8F
:103B50009A675A671A67DA667047C04600F00140F4
:103B600010B5FEF75BFE10BD70B5044D044C280087
:103B7000C022A16801F030F9A56070BD00000020EE
:103B800000ED00E0002310B5294C82B0A367FFF7D9
:103B900079FF0122274B1A60636C012BFCD10322B1
:103BA000254B1A60224A936B012BFCD10133009301
:103BB0000121224A22480433FFF798FE0523012100
:103BC0000093204A2048FFF791FE002202210420A2
:103BD0001E4BFFF711FE0022012105201C4BFFF7B1
:103BE0000BFE0022002107201A4BFFF705FE0022E2
:103BF00000210820174BFFF7FFFD8023DB00009317
:103C0000002200210920134BFFF77CFD0022104BFE
:103C100000210620FFF7F0FD0420FFF761FE0E49AA
:103C200000F04CF801000020FFF7F2FE02B010BDDA
:103C3000008000403CB0004030B00040002F685988
:103C400000800240008C864700C00240001BB70085
:103C500040597307006CDC0240420F000148042108
:103C6000014B1847B02A0020413A0010124A936FC6
:103C70009B0815D29066D166002905D0FFE7FFE7C3
:103C8000FFE7516F106F704704B580210906C21716
:103C90005140002800D0C84349F0F6FF002104BD80
:103CA000F0B5146E556E576F166FFFF7E3FF14668D
:103CB000556657671667F0BD000000D0114A936F34
:103CC0009B0813D210665166002905D0FFE7FFE775
:103CD000FFE7516F106F704704B5002801D0002036
:103CE000C04349F0D1FF002104BDC046F0B5146EB9
:103CF000556E576F166FFFF7E5FF146655665767E9
:103D00001667F0BD000000D094464A4A926F9208B0
:103D1000624601D228E0C046F0B5464E346E756E5C
:103D2000776F366F00F020F89446424A1466556665
:103D3000576716676246F0BD94463E4A926F9208F6
:103D4000624601D254E0C046F0B53A4E346E756E0C
:103D5000776F366F00F04CF89446364A1466556615
:103D6000576716676246F0BD002B24DB11D000298F
:103D70003EDA00B5C943404200D1013100F038F8C5
:103D8000C943404200D10131DB43524200D10133EB
:103D900000BD002AEBD1002801D1002905D0002068
:103DA000C90FC90701D1C043410800B549F044FF1C
:103DB0000022002300BD00B500290ADBDB4352428C
:103DC00000D1013300F014F8C943404200D1013161
:103DD00000BDC943404200D10131DB43524200D112
:103DE000013300F005F8DB43524200D1013300BD3E
:103DF000002923D1002B18D1002A0CD0BC460D4F2E
:103E000038667A6600210023FFE7FFE7FFE77A6F55
:103E1000386F67467047002801D00748010000B599
:103E200049F00AFF0022002300BD02000B00002021
:103E300000217047000000D0FFFFFFFF002B00D0E3
:103E4000BFE0130C28D1002AE7D080B4114F3966A7
:103E50007A66FFE7FFE730B4040C7B6F396F1B0411
:103E600023433B667A66FFE7FFE7FFE7C04684B27D
:103E70007B6F3D6F1B0423433B667A66FFE7FFE7DA
:103E8000C04600232C042D0C7A6F386F001969414D
:103E9000B0BC7047000000D0F0B594460025140E69
:103EA00001D112020835140F01D112010435940F0B
:103EB00001D192000235D40F01D152000135D40B4B
:103EC0000134254F7C66254C3C660E0C93B2FFE70F
:103ED000FFE7FFE73C6F6643360C7703BE4673434C
:103EE000DF0B5B04C01AB941130C7343DB18C91A0A
:103EF000CE086643360CB64493B273431F0F1B01C2
:103F0000C01AB941130C73431F0B1B05C01AB941EA
:103F1000860D8F023E436643360C092D24DB520A80
:103F20007243801A7703460A6643360C16235B1BDE
:103F3000DE40DF40BF1964466643821B704604358D
:103F400006330100D940A840C01900D30131A24274
:103F500006D20023F0BD0000000000D0FFFFFFFFED
:103F6000121B0130F3D3F1E709277F1BFE406446A3
:103F7000A2B27243801A00D20139220C7243130C90
:103F80001204821A99410B00704604351337010060
:103F9000F940A840801900D30131002B02D1A24280
:103FA0000AD2F0BD013000D30131121BFAD2013B1D
:103FB000F8D1A24200D2F0BD013000D30131121B72
:103FC000F7E7F0B51C0C00D080E00CB400251C0A0B
:103FD00004D11B02160E3343120208351C0B04D108
:103FE0001B01160F3343120104359C0B04D19B00B7
:103FF000960F334392000235DC0B02D192185B41DD
:1040000001351C00971864410134464F7C66464CCC
:104010003C660E0CFFE7FFE7FFE7C0463C6F6643D8
:10402000360C7703BE4697B27743C01B00D20139E6
:10403000C01B00D201399FB27743C91BC91B170CA3
:1040400077437E04FF0B801BB941CE086643360CD4
:104050000C2D33DBB644120B1F053A431B0B97B2F2
:104060007743C01B00D201399FB27743C91B170C9D
:1040700077433E043F0C801BB941860D8F023E43BF
:10408000664329277F1BFE400C3D7746AF40BF1992
:1040900030BCA2B2ABB272437343801A9941220C76
:1040A0007243130C1204801A994102000B0001376D
:1040B000001BA941F9D2781E0021F0BD0C277F1BFF
:1040C000FE4077467F0BAF40FF19E0E700245D1C00
:1040D00007D0144F7D663966FFE7FFE7FFE7FFE78C
:1040E0003C6F95B29EB265436643401BB141150CCF
:1040F0001E0C6543664336042F0C3E432D04401BC3
:10410000B141994204D202000B0020000021F0BD11
:1041100001D19042F7D3801A994101349942F2D3E8
:10412000F6E70000000000D0FFFFFFFF48404140DD
:10413000484018B41B4B5B68FC46019308BD04DF84
:104140006B44001018B4174B1B68FC46019308BD64
:1041500000DF754400109446134A926F920809D20A
:10416000624618B40F4BDB68FC46019308BD0CDFB8
:104170002D4700100C4AF0B5146E556E576F166F30
:104180006246FFF7EEFF084A1466556657671667E2
:10419000F0BD18B4034B9B68FC46019308BD08DFD3
:1041A000D1450010B83C0020000000D0FFB55040C1
:1041B0004240504059404B40594000E0FFB5154F38
:1041C0004C00640D03D0BC4204D10C0314D8002071
:1041D000090D09055C00640D03D0BC4204D11C0329
:1041E0000AD800221B0D1B0501264B4009D44B4069
:1041F00003D58B4200D18242FFBD9942FCD190424F
:10420000FFBD0B43DB1803431343F5D0C9434918E3
:10421000FFBD0000FF07000000B5FFF7CFFF01D092
:10422000002000BD012000BD00B5FFF7C7FF8041A1
:1042300000BDC04600B5FFF7C1FF01D9002000BD99
:10424000012000BD00B5FFF7B1FF01D9002000BD7E
:10425000012000BD00B5FFF7A9FF804100BD01208E
:1042600040054A00121804D85A00121801D800203C
:1042700070470120704700000021002805D17047D9
:10428000C1174840401AFAD0C90713B5064B1B683E
:1042900098470CBC441CA2401005120B0349091B93
:1042A00009051943114310BD507100201F0400007F
:1042B00010B54C00620D8023D218DB00D21A5B05CA
:1042C0007E2A10DD9E3A13DACC17090349081943F8
:1042D0005242D140640001341532202A05DAD04020
:1042E0000843604310BD002010BD0846604310BD68
:1042F000C80FC018013810BD18B4044B5B6AFC46E7
:10430000019308BD24DFDD4800100000B83C002008
:1043100018B4044BDB6DFC46019308BD5CDFE94932
:1043200000100000B83C0020C94211D300B549007C
:104330004908002200F018F8002904D40022404265
:104340008A41114600BD80210906002000BD000001
:1043500018B4044BDB6EFC46019308BD6CDFEB48E0
:1043600000100000B83C002018B4044B9B6FFC46C2
:10437000019308BD78DF074900100000B83C002019
:1043800018B4044BDB6FFC46019308BD7CDF754914
:1043900000100000B83C0020132370B51D78012DDB
:1043A00019D014DD1E48FFF743FB06001D48FFF738
:1043B0003FFB1D4C80223100200000F00DFD022D3E
:1043C00006D01A48FFF72CFB194B186070BD164C2D
:1043D000184BA364F5E7174B134C23606360A3608D
:1043E000E36023616361A361E36123626362A362AB
:1043F000E36223636363A363E36323646364A3648B
:10440000E36423656365A365E36523666366A3666A
:10441000E36623676367A367E367A364D1E7C046E6
:104420005344000053460000B83C00204C330000C9
:10443000507100203944001007B5604601880A0A0F
:104440000230DF2AFAD1C9B2820804D30288408838
:104450000004104300E00068014A5050039007BD7B
:10446000B83C00200FB403BC0CBCF0B50124E40739
:10447000634000E0F0B50C0DCF0F661E3605891BBA
:10448000640503D3C943404200D30131640D03D016
:10449000661CF60A07D0E41B00207F00791C890700
:1044A0008912803C24031D0DDF0F6E1E36059B1BF9
:1044B0006D0503D3DB43524200D301336D0D03D0AE
:1044C0006E1CF60A07D0ED1B00227F007B1C9B07A9
:1044D0009B12803D2D032F1B661B58D4A446202E13
:1044E00046DA20371400BC401D00BD40F240334185
:1044F0002A4380185941CB0F05D0C943C04300223D
:1045000064425041514162464D0D28D10D0D07D1F5
:1045100000281FD0241940414941013A0D0DF9D01E
:10452000640006D3013000D30131002C01D14008D2
:104530004000013A0BD4941CE40A04D11205114442
:10454000DB071944F0BDD907204B194300E0D90718
:104550000020F0BD0029DDD1002CDBD1F0BD0132FF
:10456000C6074008CD0728434908002EE1D0D9E707
:104570003C2E29DA203E40371400BC4000D00124F4
:10458000F24014431A00BB401C43D317ACE7AC46BF
:10459000202F08DA20360400B4400D00B540F84062
:1045A00039412843A5E73C2F0CDA203F4036040070
:1045B000B44000D00124F84004430800B1400C434B
:1045C000C117EAE710001900002494E70000F07F0B
:1045D000F0B50C0D661E3605891BE60A6405640DF0
:1045E00002D0651CED0A04D0002001210905803CA1
:1045F0002403A4461C0D671E3F05DB1BE70A640568
:10460000640D02D0651CED0A04D0002201231B05B5
:10461000803C24037740644497B484B296B27443D8
:10462000070C7E43150C6F4380B26843361802D3E3
:10463000012000043F183004350C00197D418446E8
:1046400088B29AB250430C0C62431F0C7C438EB26A
:104650007E43921902D301263604A4191604170CBE
:104660003618674101BC81B29AB25143040C6243CF
:104670001B0C5C4380B25843121802D30120000483
:1046800024181004130C401863412D185E410020BB
:10469000474106BC88B293B258430C0C6343120CDA
:1046A000544389B251435B1802D3012109046418B1
:1046B00019041A0C091862416D185641002047412F
:1046C00018BCF902720D1143F0026A0D1043ED029D
:1046D0000A0D03D16D1940414941013B124E9B1B0C
:1046E0007600B3420ED26D0007D30130002671412F
:1046F0006646354301D1400840001B05C918E40750
:104700002144F0BD0BDA013306D1013004D101316F
:104710004F0D01D04908F2E7E1070020F0BD013656
:1047200031050020EBE70000FF030000F0B51C0D91
:10473000671E3F05DB1BE70A6405640D02D0661C9B
:10474000F60A04D0002201231B05803C2403D02557
:104750002D060026F6432E661E096E66CE0FF6194C
:10476000B44649004F0D02D07E1CF60A03D000204B
:104770000021403F3F033E1BB600B444013F7F058C
:10478000C91B49082E6F013676089C02950D2543FA
:104790007543ED137543AD1301356D10F603761BAC
:1047A0000CB4CC02450D2C43A2B2B3B25A43270C31
:1047B0007B43350C6F43A4B26C431B1902D3012415
:1047C00024043F191C041D0CA4187D4124196D41BB
:1047D000009A91B2ACB26143170C7C432B0C5F433F
:1047E00092B25A43A41802D301221204BF18220421
:1047F000230C52187B41019C6C431B19520ED901AA
:104800000A434401A01A81B2B2B2514303145A437D
:10481000360C734387B27743D617D21900277E41EF
:1048200036049B191704160C7F185E417316ED1899
:10483000F301002680337541A90F06D16400690A8F
:10484000E8055B0A184309D22FE004229444803320
:104850007541A90AA8059B0A184326D3404149413E
:104860002404009A019B0D005543641B4343E41A42
:1048700095B286B27543170C7E43030C5F4392B228
:104880005A43B61802D301221204BF183204330C63
:1048900052197B4152429C41002C02D4002201302B
:1048A00051414008CA071043490802B06246D70781
:1048B0009210084BD218084B9A4203D2120589185D
:1048C000C919F0BD0020002A01DC3900F0BD013318
:1048D0001905F5E7FD030000FE070000002200B502
:1048E000203200F010F8080000BD002200B500F0F2
:1048F0000CF8CA179A4200D100BDD8430121C9075C
:10490000414000BD00220B150AD410B5944600F0BA
:10491000A7F81414013400DA0021CB17144C2047F7
:104920000020002170476244343A0CD40C2A07DA84
:1049300004009140904052422032D440214310BDA7
:10494000D843D94310BD203207D40C46944052427C
:1049500020321141D040204310BD0800C917203239
:1049600003D452422032104110BD1800190010BD6E
:10497000274900104A00520D144BD21A13DDFF2AAA
:104980001EDAD205CB0FDB071A43C300400F090321
:10499000490A084310435B0001D301D0013070473E
:1049A0004308FBD2704702D0C80FC00770470A0304
:1049B00012130132F8D1420F072AF5D1012200E08B
:1049C000FF22C80F00028018C00570478003000056
:1049D00000210A00002104E000210A00C11704E0C0
:1049E0000022002306E0C0460022CB175840594061
:1049F000C01A994130B5184CA21A002903D1010000
:104A000010D00020203A4C1512D104D2013A0018DF
:104A100049414C0DFAD3114CA24204D21205891817
:104A2000DB07C91830BDD243520D00200021F5E745
:104A300003D4013A00184941FBD50B324405C00AA2
:104A40004D052843C90A640003D000246041614138
:104A5000E1E7E0D34408F8E732040000FE07000075
:104A60000A0DCC0F531E1B05C91A520503D3C943A7
:104A7000404200D30131520D03D0531CDB0A07D052
:104A8000121B00206400611C89078912803A1203FE
:104A9000014BD21A70470000FF030000514343430B
:104AA000C9188C46110C83B24B4310B4040C6143FB
:104AB00092B280B2504362431C041B0C001910BC1C
:104AC00059411304120CC018514161447047000051
:104AD0004840414048400E4B5B6818470C4B1B68F0
:104AE00018470C4A936F9B0802D2094BDB681847A2
:104AF000F0B5146E556E576F166FFFF7F6FF054A47
:104B00001466556657671667F0BD014B9B681847DA
:104B1000B83D0020000000D007B548404140484063
:104B200001E0C04607B54200120E03D0FF2A03D1B0
:104B3000420218D8C00DC0054A00120E03D0FF2A49
:104B400003D14A020FD8C90DC9050122414005D43D
:104B5000414001D5814207BD884207BD0143491844
:104B600001D0C043001807BD00B5FFF7DBFF01D03F
:104B7000002000BD012000BD00B5FFF7D3FF80413C
:104B800000BDC04600B5FFF7CDFF01D9002000BD34
:104B9000012000BD00B5FFF7BFFF804100BD01232C
:104BA0001B064200D21804D84A00D21801D80020AF
:104BB000704701207047491A002807D108467047FE
:104BC000C10FC90700D54042002817D0F44603B4EE
:104BD0000B4B1B68984706BC81409E384042803191
:104BE00007D20B0607D04900490AC0051043084305
:104BF00060470130F8E7490A8902F5E7704700008D
:104C00005071002041000A0E80231B067E2A0BDD16
:104C10009E3A0BDAC1174002400818435242D04076
:104C2000490001314843704700207047C00FC01849
:104C300001387047C0420DD300B540004008002144
:104C400000F012F8002801D4404200BD8020000688
:104C500000BD0000034BDB69FC4618471CDF194D03
:104C600000100000B83D0020014B5B6A18470000AF
:104C7000B83D0020034BDB6FFC4618477CDF314D0D
:104C800000100000B83D0020132310B512481C7816
:104C9000FEF7CEFE0100012C0AD003DD80220F4872
:104CA00000F09AF80E48FEF7BBFE0E4B186010BDE0
:104CB0000A4C5422200000F08FF80B4B6365A3656B
:104CC000E36523666366A366E36623676367A3679A
:104CD000E3672362E361E5E753460000B83D002047
:104CE0004C33000050710020ED4C001007B56046B9
:104CF00001880A0A0230DF2AFAD1C9B2820804D335
:104D0000028840880004104300E00068014A5050C7
:104D1000039007BDB83D00200021C21580328032CB
:104D200001D0024A1047002070470000CD2A000041
:104D3000C30FDB0741000A0E07D0FF2A08D009097C
:104D4000054A891819434007704719000020704729
:104D50000249C918FAE70000000000380000F07F9F
:104D600070B504000A4E300049F02EF820003BF0E8
:104D700055FF0500300048F057FF002D05D0054BCA
:104D80002C199C4201D8280070BD0348FDF75EFC39
:104D90000036002000000420A0E5041070B50400D7
:104DA000054D280049F010F820003BF041FF280095
:104DB00048F03AFF70BDC04600360020014804218B
:104DC000014B1847C02A0020413A0010014B1B68D4
:104DD00018470000C02A0020014B5B6818470000FC
:104DE000C02A002010B5FFF7BBFF10BD10B5FFF7BC
:104DF000B7FF10BD10B5FFF7D1FF10BD10B5FFF71D
:104E0000CDFF10BD10B5FFF7C9FF10BD9A4200D20B
:104E1000885470477047C046F8B557464E464546D9
:104E2000DE46E0B599460A9B07009A460D9B8846E8
:104E3000934615000B9E9B0710D10C9B9E420DD2F2
:104E40009D1B14000E005D4422004B4601343100CE
:104E50002020B847A542F7D1B0460B9E002E27D0A0
:104E6000444675195346AA1B013E985D21004B46E6
:104E7000B847002EF6D123002C0098460D9B9B07C7
:104E80000FD55B46E51A0C9BAB420AD946469846BD
:104E900022004B46310020200135B8470134A84597
:104EA000F6D82000F0BCBB46B246A946A046F8BDE5
:104EB0002C00E3E7F0B54F464646D646C0B584B071
:104EC00098460EAB1B78129F994694460D9C109BFA
:104ED000119EBA0725D4002E4BD19C4200D3BFE0CF
:104EE00001223A4092461F2C00D9B8E00C9A551E78
:104EF000302201E0202C03D001342A55A342F9D8F6
:104F00005246002A0DD0A6420BD9202C44D00C9A30
:104F1000551E302201E0202C3ED001342A55B442E7
:104F2000F9D1FA064DD57A053FD4002C39D10F9B23
:104F3000102B00D179E00F9B022B00D18AE03023A7
:104F40000C9A012413704B46002B3FD02D230C9A52
:104F5000135501340C9B6246009303974346029617
:104F60000194FFF759FF04B0E0BCBA46B146A84629
:104F7000F0BD012215003D40AA463A422FD04A46D4
:104F8000002A02D10C323A4200D0013E9C42BAD2F1
:104F90001F2CABD9202E27D92024FA06DAD57A0582
:104FA00003D4A3422DD0A6422BD00F9B102B32D07E
:104FB000022B20D0202CCDD030220C9B1B191A7034
:104FC0000134202CC6D04B46002BBFD17B070DD41B
:104FD0003B07BFD520230C9A13550134BAE79C42F6
:104FE0009FD21F2C00D881E720249AE72B230C9A0C
:104FF00013550134AEE7202CACD00C9B1B190134A7
:105000003AE0631E012C92D00F9A102A2AD0022A6D
:105010002FD01C00D0E7BB060ED4202C9AD00C9BBE
:105020001A19013478231370C4E7BB060DD4782312
:105030000C9A01241370BFE7202C00D18AE7582274
:105040000C9B1B191A700134B4E758230C9A0124E5
:105050001370B1E70C9A603301241370ACE720247D
:1050600000265EE7023CBA06E9D40C9A12191C002D
:10507000D8E70C9A9246534462221A709AE7C046C7
:1050800010B5002800D110BD01F0FAFBFBE7C046C7
:105090000B0010B5002802D049681B68984710BD66
:1050A000F0B5DE4657464E464546E0B59BB09B46BA
:1050B000249B89469846259B0B900C92404642467D
:1050C00019009A46FFF7CBF8002800D0D8E001225B
:1050D00040465146774B5242FFF7BCF8002800D0BB
:1050E000CEE0012240465146734B5242FFF79CF8F6
:1050F000002800D0C4E00022002340465146FFF7BC
:1051000093F8002800D0B9E1424653460A92099329
:105110008023289ADB001A400E92289A1A4201D165
:10512000062326930A9A099B1600134300D0C7E072
:10513000289B002500261B0500D49BE100230D932E
:10514000269A0D9B9A4200DC9FE1D01A431E2693BB
:105150008023289ADB001A430023002728920D930E
:10516000279B0024BB4200D9DC1B0223289A1A404B
:105170000E92289A134203D07B427B415B421C4033
:105180000D9B002B07D00A9809992A003300FEF7DF
:10519000E2FF0A9009910022002340465146FFF7A2
:1051A00043F8002805D08020000684460999614410
:1051B0000991289A414B0B9D13400493269B0A9A10
:1051C0000293099B03940092019349465B46280091
:1051D0000C9A00F08BF90400002F62D0289B22006B
:1051E00098061F23C0179843631C984649465B46A0
:1051F0006530A8470D9B0025DA179C18DB0F9A46EF
:105200005440013F01E0202D13D00AAA94461F23E9
:10521000200063440A2101355E19FEF74FFD30314D
:10522000317020000A21FEF749FD26000400092EF6
:10523000E9D805230693002304930A3303935346C6
:1052400005970B9F029312AB009342465B4649467B
:1052500038000195FFF72EFE0E9B0400002B20D096
:105260000C9BC51A279BAB421BD91E0022005B4634
:10527000494620200135B8470134AE42F6D810E047
:10528000289B42460493279B49460393269B0B98F1
:1052900002935346009201935B460C9A00F026F964
:1052A000040020001BB0F0BCBB46B246A946A04695
:1052B000F0BDC046FFFFEF7FFFFFEFFFFFF7FFFFEF
:1052C000734B099F9C467800400D6044FEF7D8FF61
:1052D000704A714BFEF75DFF704A714BFEF732FF6B
:1052E0003B03704A1B0B1A4304000D0030001100F1
:1052F0006D4B0022FEF71DFF6C4A6D4BFEF749FF18
:1053000002000B0020002900FEF71CFFFEF7D0FF73
:105310000D90FEF7B5FF674A674B04000D00FEF7DE
:1053200038FF0022654BFEF70DFFFEF7C1FF644A10
:105330000600644B20002900FEF72BFF040030001C
:105340000D000F96FEF79CFF5F4A604BFEF721FFB2
:1053500002000B0020002900FEF7EBFE02000B000C
:1053600006000F00FEF715FF320004000D003B00A1
:1053700030003900FEF7E6FE002210901191544BE8
:1053800020002900FEF7E7FE0022524BFEF7DAFE6E
:1053900002000B0020002900FEF7DDFE00224E4B2C
:1053A000FEF7D0FE02000B0020002900FEF7D3FE1E
:1053B0000D008021040032003B000020C905FEF7EB
:1053C000B8FE02000B0020002900FEF7BBFE020021
:1053D0000B0010981199FEF7BEFE0022314BFEF72C
:1053E000B1FE3E4B0F9C9C46644400222305FEF711
:1053F000D0FE05000E0002000B000A980999FEF786
:1054000013FF00280AD00D9B2800013B31000D93AB
:105410000022304BFEF79FFE05000E00C6270D99B7
:105420002B0063318F42BF4128997F420437090521
:1054300000D495E6334300D182E6099C284A210036
:10544000284B0A98FEF7FEFE002808D00022210013
:10545000254B0A98FEF7E8FE002800D070E6269B50
:10546000002B00D17CE60E9B5A1E9341269AD31A3C
:10547000269375E6002304270D9371E643460A93AD
:1054800080231B065344099342E6002326935FE6DC
:1054900001FCFFFFFB799F501344D33FB3C8608BDF
:1054A000288AC63F0000F03F0000F83F61436F6369
:1054B000A787D23F71A379094F930A400000E03FCC
:1054C0001655B5BBB16B0240EF39FAFE422EE63FEE
:1054D00000002C400000244000001840FF030000A2
:1054E0002D431CEBE2361A3F80842E41F0B54E4628
:1054F000DE4657464546E0B597B09946209E219F27
:10550000229B8346984607910C923B003200300064
:105510003900FEF7A4FE002800D0A9E101223000E6
:105520003900CA4B5242FEF77FFE002800D0E1E06E
:10553000012230003900C64B5242FEF78BFE002894
:1055400000D0B7E0002230003900C24BFEF782FEE7
:10555000002800D099E0002230003900BE4BFEF751
:1055600063FE002800D090E00022002330003900C4
:10557000FEF75AFE002800D0B1E000230D93249BD3
:105580005B0501D40623984608AB9C4617220024ED
:1055900030234146624404E0013413550139202C84
:1055A00001D00929F8D8884630003900FEF780FE7E
:1055B0004346DA00A94B05009B181A685B680892FD
:1055C0000993FEF75DFE02000B0030003900FEF784
:1055D000B0FD089A099BFEF7DCFD0A900B91FEF7DF
:1055E0008BFE8246FEF748FE02000B000A980B99DC
:1055F000FEF79FFD00229A4B0A900B91FEF72AFEC0
:10560000002800D1C0E001239C46E2445046FEF74A
:1056100033FE02000B0008980999FEF70BFE0028E4
:1056200002D000239A4601354346002B6AD008ABCE
:1056300017269C4608956644554614E001235B42B4
:1056400043440A2128009A46FEF738FB01343031E2
:105650003719397028000A21FEF730FB092D00D8D0
:10566000D0E0D0460500202CE8D10EAB98460323AD
:10567000249A1340012B00D196E02023249A019311
:105680000392239A434602921EE0249B58460493B9
:10569000239B00960197039343460C9A0293079924
:1056A0004B46FFF7FDFC17B0F0BCBB46B246A9461F
:1056B000A046F0BD249B5B070ED40322694B2499BE
:1056C0000192039123990291009358464B460C9AFC
:1056D0000799FFF7A1FBE6E70422634BEFE73B00E6
:1056E000320000200021FEF724FD012306000F00F8
:1056F0000D9344E7249B0393239B0293042301937C
:105700005A4BE1E72800FEF7BBFD02000B0030001A
:105710003900FEF70EFD524B002206000F00FEF787
:1057200083FD0EAB984600280AD1002230003900D4
:105730004B4BFEF78FFD002802D1EB0700D501355A
:10574000202C94D008AA94461723280063440A21E9
:1057500001341E19FEF78AFA3031280031700A210F
:10576000FEF784FA051EEBD10323249A1340012B84
:105770001BD0202C00D180E70D9B002B35D02D2293
:105780004146631C0A5579E700220A980B99344B6D
:10579000FEF74AFD002800D046E75346002B51D1C2
:1057A00001239C46E2443FE72024239B002BE0D0CA
:1057B0000D9B002B03D1249A0C33134202D0239B60
:1057C000013B2393239BA342D3D908AB9C461722CA
:1057D00030236244202C00D14FE723990134135524
:1057E0008C42C6D0202CF8D147E7249B5B0724D4F9
:1057F000249A2300120700D440E7202241460133B7
:105800000A553BE75746089D202C00D12DE7220082
:1058100030214046002F09D00132B154202A00D156
:1058200023E7D3431B191B18002BF5D10EAB984669
:105830002E234146541C8B5482E72B224146631C85
:105840000A551BE7DB0700D4EEE6A9E7FFFFEFFFF1
:10585000FFFFEF7F65CDCD4165CDCDC140E80410A0
:105860000000E03F48E604104CE6041058E604103F
:10587000249B0393239B029303230193004B23E771
:1058800054E60410F0B5DE464E4657464546E0B5B0
:105890009FB01C00289B91460993C94AC94B8B466F
:1058A00008901A60002900D118E2002320789A4657
:1058B000002800D11AE226001D005C460AE02A00FA
:1058C0006F1C4B46089D2100A8473D0001363078EB
:1058D000002870D02528F2D110239B46083B9A4619
:1058E000043B9846023B00219C46721C107816002F
:1058F0000300203BDBB2102B03D8B34F9B00FB58B7
:105900009F460300303B092B32D900230A932A28F3
:1059100068D0002398462E283ED00300683BDBB2B7
:10592000122B1CD8A94A9B00D3589F460123013251
:105930001943DBE7634601321943D7E74346013297
:105940001943D3E75B4601321943CFE7534601328F
:105950001943CBE780235B007078194301360300BD
:10596000253BDBB2532BAAD8994A9B00D3589F46BC
:1059700000270300B800C01901364000C018337872
:1059800030381A00303A0700092AF3D90A90180073
:10599000002398462E28C0D180237078DB0019435D
:1059A0000300303B721C092B00D8A1E12A2800D14A
:1059B000B2E11600B1E7A346AA462C00D14503D8B0
:1059C00001235B424B449A464B46524659460020BF
:1059D000089DA84720001FB0F0BCBB46B246A946B0
:1059E000A046F0BD099B40CB0A96002E03DB507801
:1059F0000993561C8DE72838014370420A90099399
:105A00005078561C85E7782800D1DFE1582800D16E
:105A10004CE26F2800D14FE3622801D100F030FC46
:105A200010230A009A430B92692801D000F0A9FCC8
:105A30000A230C934B0500D5D0E10B9A802311006B
:105A40009B0019408B461A4200D0A1E2802311002E
:105A50005B0019408A461A4200D0B6E313005B0689
:105A600000D5EDE2130009991B0601D400F076FC85
:105A700008C91BB2D8171A18424092B2099193462E
:105A8000DA0F1292002B09D1802310220B99DB0030
:105A90000B4091430B91002B00D0E4E20B9A612361
:105AA000920600D541230EA91F228C46DBB2624428
:105AB0000A3B5F461395A34655460C9CB2460D9390
:105AC00016000AE03033DBB201357355A74200D22D
:105AD000EDE2202D00D1EAE2070021003800FEF7B8
