:020000041000EA
:1000000000B5324B212058609868022188439860DF
:10001000D860186158612E4B002199600221596106
:100020000121F02299502B49196001219960352056
:1000300000F044F80222904214D00621196600F024
:1000400034F8196E01211966002018661A6600F04E
:100050002CF8196E196E196E052000F02FF8012189
:100060000842F9D1002199601B49196000215960AB
:100070001A491B48016001219960EB211966A021F2
:10008000196600F012F800219960164914480160C1
:100090000121996001BC002800D000471248134993
:1000A000086003C880F30888084703B5996A0420EC
:1000B0000142FBD001200142F8D103BD02B5186610
:1000C0001866FFF7F2FF186E186E02BD00000240BE
:1000D000000000180000070000035F00212200005C
:1000E000F4000018222000A00001001008ED00E03C
:1000F00000000000000000000000000074B24E7A12
:1001000000200420F7010010C30100103944011041
:10011000C1010010C1010010C1010010C101001097
:10012000C1010010C1010010C1010010C701001081
:10013000C1010010C1010010C9010010CB01001065
:10014000CD010010CD010010CD010010CD01001037
:10015000CD010010CD010010CD010010CD01001027
:10016000CD010010CD010010CD010010CD01001017
:10017000CD010010CD010010CD010010CD01001007
:10018000CD010010CD010010CD010010CD010010F7
:10019000CD010010CD010010CD010010CD010010E7
:1001A000CD010010CD010010CD010010CD010010D7
:1001B000CD010010CD010010CD010010CD010010C7
:1001C00000BE00BE00BE00BE00BE00BEEFF3058054
:1001D000103800BEF2EB8871B4E50110D8E50110CB
:1001E0003802001090A31AE71E481F49086006C88D
:1001F00081F3088810471D480068002801D019487D
:10020000F3E70DA40ECC002902D000F012F8F9E7B4
:100210001749184A002000E001C19142FCD116495B
:100220008847164988471649884700BEFDE701C937
:1002300001C29A42FBD37047D8E50110400100206B
:100240008C3200202417021000000420000004203B
:1002500024170210001004200010042000000000E9
:10026000704700000000000008ED00E0000000D032
:100270008C320020905A0020F9620010510D0010BD
:10028000F1620010F8B5C0460448054B10B5834232
:1002900003D0044B002B00D0984710BD8C320020B7
:1002A0008C3200200000000006480749091A8B1014
:1002B000C90FC91810B5491003D0044B002B00D04A
:1002C000984710BD8C3200208C32002000000000C6
:1002D00010B5074C2378002B09D1FFF7D5FF054B4C
:1002E000002B02D0044800E000BF0123237010BDA2
:1002F000283B00200000000010AD0110054B10B598
:10030000002B03D00449054800E000BFFFF7CCFFF5
:1003100010BDC046000000002C3B002010AD0110B5
:1003200010B5092812D0172802D0182828D010BDDF
:10033000D0228023120651681B04194217D152683B
:100340001A42F4D10122134B1A70F0E7124A1368D3
:1003500001331360D0231B065968104A1368C9067D
:1003600002D4013B1360E2E701331360DFE703F0DF
:1003700041F801220A4B186059600A4B1A70D6E7FF
:1003800003F038F80122084B18605960074B1A70C7
:10039000CDE7C046895A0020245A0020EC550020A1
:1003A00008390020885A0020F8380020875A002099
:1003B000F0B54E46DE4657464546884BE0B51C68CC
:1003C000C5B0E317E60FE41802905C40092C00D892
:1003D000E5E0632C00D8F2E0FA239B009C4200D2B7
:1003E000F0E07F4B9C4200D8EFE07E4B05219C4221
:1003F00031D97D4B9C4200D8EAE07C4B0625072191
:100400009C4229D97A4B9C4200D8B7E0794B9C4258
:1004100020D90925691C0BAB9B462D220DAB5846F4
:10042000891903930B9314F097FE0B9BC9229A46EC
:1004300011AB180070499846B24404F00FFB632CCE
:100440001ED84346524664001B195B7853704346DE
:100450001C5D34E009214D1E0BAB9B462D220DABDC
:100460005846891903930B9314F076FE0B9BC9220F
:100470009A4611AB180060499846B24404F0EEFA6F
:10048000574B013D994655442000642103F0FEFA84
:1004900020004E00642103F0F9FA43469B195B7873
:1004A00027006B7043469B5D04002B70023D4F4557
:1004B000EAD8FA239B009F42C3D23034E4B25346B9
:1004C0000F221C7000214D4B00925846002214F060
:1004D00027FF050013AE1196036808350400AB42F0
:1004E00056D04246119383689360424663685360D6
:1004F0000023636023725268414B25609B1A022BD4
:1005000068D9032240463F4914F072FF070007AD47
:100510000595036808370400BB4232D00593836811
:100520000793636827600693002323721198636022
:10053000B04204D043469968013104F09DFA0B980B
:10054000039B984204D05B469968013104F094FA09
:10055000059B2D48009300210123029A01F0DCFB4A
:100560000598A84203D00799013104F085FA45B0F7
:10057000F0BCBB46B246A946A046F0BD07250821FF
:100580006AE7426839002800013204F067FAC8E7D8
:10059000426829003000013204F060FAA5E70BAB95
:1005A0009B462D220DAB5846711C03930B9314F000
:1005B000D3FD0B9B9A4611AB9846B2447DE70221CE
:1005C000012528E70225032146E70325042143E707
:1005D00005251FE70D4814F089FDC046785A002014
:1005E0000F2700009F8601003F420F007F96980072
:1005F000FFE0F505FFC99A3BA8AD01107CAD0110E5
:10060000FFFFFF3FA4AD0110285A00208CAD011060
:10061000F0B5DE464E46574645468C4BE0B51C6865
:100620009B46E317C1B0E60FE41804905C40092C28
:1006300000D8EEE0632C00D8F9E0FA239B009C423E
:1006400000D2F7E0824B9C4200D8F6E0814B0521B6
:100650009C4231D9804B9C4200D8F1E07F4B06256B
:1006600007219C4229D97E4B9C4200D8B2E07D4BA9
:100670009C4220D90925691C07AB9A462D2209AB5B
:10068000504689190593079314F066FD079BC9220C
:100690009B1903930DAB18007349984604F0DEF9DB
:1006A000632C1ED8434664001B195B78039A537071
:1006B00043461C5D36E009214D1E07AB9A462D22AC
:1006C00009AB504689190593079314F045FD079B24
:1006D000C9229B1903930DAB18006349984604F097
:1006E000BDF9039B013D9C46594B6544994620004A
:1006F000642103F0CBF920004E00642103F0C6F919
:1007000043469B195B7827006B7043469B5D040052
:100710002B70023D4F45EAD8FA239B009F42C1D27D
:100720003034E4B25246039B1C7052684F4B9A42DD
:1007300000D187E0012250464D4914F059FE0600D1
:100740000FAD0DAB0D959846036808360400B34213
:1007500058D042460D938368936042466368536065
:1007600000232660636023720798059B984204D09B
:1007700053469968013104F07FF95B46049F1B687A
:100780000837002B29D07426092B21DC0D9B394C0E
:100790009946394B6E212000049A0093012301F001
:1007A000BBFA4B46200000933A000123310001F0D0
:1007B000B3FA0D98A84204D043469968013104F079
:1007C0005BF941B0F0BCBB46B246A946A046F0BDBD
:1007D000063EDBE7072508216FE7264C264B6E21F6
:1007E0002000049A0093012301F096FA234B200085
:1007F00000933A000123742101F08EFA0D98A8426B
:10080000DAD1DEE7426831002800013204F026F92F
:10081000A3E707AB9A462D2209AB5046711C0593FE
:10082000079314F099FC079B9B19039378E7022127
:10083000012521E7022503213FE7032504213CE7A9
:10084000052518E70E4814F051FCC046A4540020BA
:100850000F2700009F8601003F420F007F969800FF
:10086000FFE0F505FFC99A3BA8AD0110FFFFFF3F70
:1008700074AE0110285A002078AE01107CAE011031
:100880008CAD0110002310B5214C82B02372214B96
:100890004022009380213C23200001F093F900289E
:1008A00032D0200001F030FA1B4B02220021200040
:1008B0000093022301F030FA184B1422002120008B
:1008C0000093012301F028FA154B1E22002120007D
:1008D0000093012301F020FA124B2D220021200069
:1008E0000093012301F018FA0F4B3722002120005A
:1008F0000093012301F010FA0020FFF789FE200089
:1009000001F03EFA02B010BD084805F0B9FEF9E763
:10091000285A0020F82A002080AE011088AE01106D
:10092000A0AE0110B8AE0110C8AE0110E0AE0110CB
:10093000F0B58C4D89B0280001F0E6F98A4B1B78A0
:10094000062B74D8894A9B00D3589F46884B0222B5
:10095000002128000093022301F0DEF904AC0020FE
:10096000FFF756FE2100834B02941B6802AE9C46A3
:10097000814B85CB85C10C23736000232800337520
:1009800062463300142100F0F7FE0298A04203D023
:10099000B168013104F070F82100784B02941B68B3
:1009A0009C46774B85CB85C10C23736000232800C0
:1009B0003375624633001E2100F0DEFE0298A0422D
:1009C00003D0B168013104F057F821006D4B029457
:1009D0001B689C466C4B85CB85C10C237360002340
:1009E0002800337562463300282100F0C5FE0298C6
:1009F000A04203D0B168013104F03EF82100634BFE
:100A000002941B689C46624B85CB85C10C237360A6
:100A100000232800337562463300322100F0ACFE1B
:100A20000298A04203D0B168013104F025F82800F3
:100A300001F0A6F909B0F0BD564B022200212800B2
:100A40000093022301F068F90020FFF7E1FD524B0B
:100A5000142228000021009304AC012301F05CF96A
:100A60002100444B02941B6802AE9C46424B85CB4E
:100A700085C10C230393002328003375624633009D
:100A80001E2100F079FE0298A042D0D004990131D5
:100A900003F0F2FFCBE7414B280000930222022330
:100AA000002101F039F93E4B280000931422012364
:100AB000002101F031F93B4B1E2200212800009358
:100AC000012301F029F90020FFF7A2FD3220FFF7F2
:100AD0006FFCACE7344B0222002128000093022374
:100AE00001F01AF904AC0020FFF792FD2100254B1C
:100AF00002941B6802AE9C46234B85CB85C10C2318
:100B0000039300232800337562463300142100F05C
:100B100033FE0298A04203D00499013103F0ACFFE8
:100B20003220FFF745FC82E7204B10E7204B0222E2
:100B3000002128000093022301F0EEF80020FFF7C7
:100B400067FD174B2800009314220123002101F0B8
:100B5000E3F8144B1E22009300210123280001F02A
:100B6000DBF864E7285A00208E5A002040B90110B3
:100B70001CAF0110F055002024AF0110605A002076
:100B800034AF0110F455002044AF0110045600208A
:100B900054AF011080AF011088AF0110FCAE0110FE
:100BA00088AE011004AF011064AF01106CAF0110EA
:100BB00074AF0110E021214AC901136870B50B40E0
:100BC0001F490B6004211F4B1960FC3113680B4255
:100BD000FCD0FA208021042554681A4E2404174AB8
:100BE000240C80004900356013680B42FCD0536828
:100BF00001381B041B0CE4180028F4D1200003F07A
:100C000027FA114B002203F08EF903F039FAF8238A
:100C1000DB00984200DC0D480D4B984200DD1800C7
:100C20000C4B9C46604403F013FA0B4A0B4B03F049
:100C300098F903F025FA03F005FE70BD00C00440EA
:100C400000D0044000E0044000408F40C107000095
:100C50002E0A00003FF8FFFF6628568BA69CC43F73
:100C6000F8B52E4C2378002B41D02D4A2D4B10681F
:100C700051681A685B68801A994106000F1E37DDBB
:100C8000D021090648688021050009040D4008426A
:100C900034D00121244D2970002F38DD0622234B4A
:100CA000FF201A70224B013A1A70D0230B321B0618
:100CB0009A61204B1A6893009B181F4A9B00944628
:100CC0001E4A63441268002A1ED11D491A68424018
:100CD0000A40802149018C4663441A60FFF728FED0
:100CE000FA20400002F0E8FA002323702B70F8BDD0
:100CF0000029FCD113498E42F9D9C1E725700A4D6C
:100D000029780029F3D0C7E70F490004DEE7002F58
:100D1000EDD10E4B9E42C1D8E9E7C046885A00206B
:100D200000390020083900208F5A00208E5A0020F8
:100D30008D5A00206C5A00200C000540B45500204C
:100D4000FFFF00009F8601000000FFFFBFC62D00CF
:100D5000F0B5DE46574645464E46E0B5B5B014F010
:100D60006DF8002006F032F805F03AFC002001F0A2
:100D7000FBFAD0230124FA201B069C61800002F0BC
:100D80009BFA00F0DBFBFFF715FFD74D2B9503F027
:100D90007BFD2860FFF776FDD44B31A81A000F9336
:100DA00000231370D24B40221F931C70D14B1900AB
:100DB0002C9314F04DF8D04AD04931A814F04EF8D5
:100DC000CF4B01220421092001F052FA01220C210B
:100DD000172001F021FA01220421182001F01CFA49
:100DE000C84B2093C84B2193C84B2293C84B2393E5
:100DF000C84B0E93C84B2493C84B2593C84B1A93EA
:100E0000C84B2693C84B1B93C84B1393C84B1C93DA
:100E1000C84B1493C84B1593C84B9946C84B1693AF
:100E2000C84B2D93C84B9A46C84B9B46C84B119351
:100E3000C84B2E93C84B1793C84B2F93C84B1D9389
:100E4000C84B1093C84B98464746C84B2793C84B8E
:100E50001E93C84B2893C84B2993C84B2A9304254B
:100E6000B846C74C02F0C6FA209B03C3002900D144
:100E7000BAE2FA220023920002F046FE1290219B71
:100E80001B78002B10D0229B1B78002B09D01F9BB6
:100E90000F9A1B781370022B00D1D7E20023229AFD
:100EA00013700023219A1370FFF7DAFE1A9B1B7848
:100EB000002B18D0209B26991A685B68086849683F
:100EC000121A8B411100002B03DC0CD1AD4B99425F
:100ED00009D904220F9B1B789343012B00D1AAE26E
:100EE00000231A9A13701B9814F004F8002800D0FD
:100EF00084E202F07FFA139B06001A685B680F0019
:100F0000801A99410A1E00DD85E200D17FE2E022CD
:100F10002368D20113409C4A136004229B4B1A6041
:100F2000FC3223681342FCD0FA228026606897497D
:100F30000004000C920076000D6023683342FCD060
:100F40006368013A1B041B0CC018002AF4D103F09B
:100F50007FF88F4B002202F0E6FF03F091F8F823B0
:100F6000DB00984200DC8B488B4B984200DD180078
:100F70008A4B9C46604403F06BF8894A894B02F027
:100F8000F0FF03F07DF803F05DFC03F07DFC2B9B8C
:100F9000186031A813F08EFF834903F014FC159BF1
:100FA00018604B46186800F097FBFC21890503F098
:100FB0000AFC169B282118602C9800F049FF00F0CD
:100FC00065FF2D9B1890186053461E68052E00D1B2
:100FD00010E2731C19935A46159BB6001F68119BAB
:100FE0001068995903F0D5FB391C03F0D5FB5A461C
:100FF000119B10609F515346199A6C491A6003F077
:10100000CEFB0F9B1B78062B00D92BE74246B84638
:1010100017002E9A9B00D358061C9F460E980DF081
:10102000D1FE0022179900200CF076FD002101204E
:1010300000F026FBFFF77CFC012351E038685C4997
:1010400003F0C1FB2D49041C404603F0BCFB011C0E
:10105000201C03F0A1FB041C3860189803F04CFC22
:101060000C900D91169B186803F046FC0A900B91AA
:10107000149B186803F040FC08900991301C03F0A1
:101080003BFC06900791201C03F036FC0490059170
:10109000404603F031FC129B029003910093002321
:1010A0001E99299A01930E980DF0C8FE4B461868B8
:1010B00000F012FB2A9B041C186803F0C3FB011C00
:1010C000201C03F0AFFB002800D1DAE10021012051
:1010D00000F0D6FA05230F9A1370FFF729FC0523B9
:1010E0001F9A1370BBE6C046A45400208E5A0020FD
:1010F0008D5A0020F82A0020CDCC4C40CDCCCC3DE0
:101100002103001000390020895A00208F5A002046
:10111000AC260020283400201CAD011010AD0110B9
:10112000875A0020F8380020A43F00209032002089
:10113000245A0020605A0020F0550020EC55002071
:10114000F455002004560020983F00209C3F0020CA
:10115000843F00205CB9011044B0011088360020A3
:10116000785A0020805A00201C5A00201CAF011021
:101170009CAF0110C02600206CAF0110A8550020C4
:1011800000C004409F86010000D0044000E00440FD
:1011900000408F40C10700002E0A00003FF8FFFF0B
:1011A0006628568BA69CC43F00007A440000A040ED
:1011B0006666663F0021002000F062FAC023B74A4D
:1011C0009B011168FA244B40E021C9010B40B4494E
:1011D00000200B6080210425B24EA4004900356038
:1011E00013680B42FCD05368013C1B041B0CC01855
:1011F000002CF4D102F02CFF0022AB4B02F093FE46
:10120000AA4AAB4B02F0ADFE0022AA4B02F082FECE
:1012100002F036FF1D9B186003F014FBA64903F093
:10122000BEFAA64903F0CFFA03F02EFB109B14225E
:10123000188053461C605B460024002111981C60F6
:1012400003F006FC3C60FFF773FB042348E705F05E
:10125000B3FD012217992F980CF05EFC002005F0D9
:1012600027FE0021012000F00BFAC0238B4A9B01CE
:101270001168FA244B40E021C9010B408849002045
:101280000B6080210425874EA40049003560136857
:101290000B42FCD05368013C1B041B0CC018002CF3
:1012A000F4D102F0D5FE00227F4B02F03CFE7F4AD3
:1012B0007F4B02F056FE00227E4B02F02BFE02F026
:1012C000DFFE1D9B186003F0BDFA7B4903F067FA4F
:1012D0007A4903F078FA03F009FB109B1422188076
:1012E00053461C605B460024002111981C6003F0EB
:1012F000AFFB3C60FFF71CFB0223F1E63868704946
:1013000003F061FA6F49041C404603F05CFA011CCB
:10131000201C03F041FA041C3860189803F0ECFA22
:101320000C900D91169B186803F0E6FA0A900B9149
:10133000149B186803F0E0FA08900991301C03F040
:10134000DBFA06900791201C03F0D6FA0490059171
:10135000404603F0D1FA129B0290039100930023C0
:101360001E99279A01930E980DF068FD4B46186858
:1013700000F0B2F9289B041C186803F063FA011C02
:10138000201C03F055FA002800D180E00021002045
:1013900000F076F903230F9A1370FFF7C9FA0323BD
:1013A0009EE60022179900200CF0B6FB01200021D8
:1013B000404205F0C7FD0021012000F061F9012342
:1013C0008EE6FF21002000F05BF9159B3E4918686E
:1013D00003F02EFA002800D17FE600234A4613606E
:1013E0000F9A0533137078E6FA21890002F04EFB5C
:1013F000129044E5012300261993ECE501F0FAFF71
:10140000139B186059601B9813F090FD71E52F4BEA
:10141000984200D87BE51C9B186800F05DF92C49C8
:1014200003F0D1F900231C9A14991360139B0860F0
:101430001E605F606BE5D0231B065B681B0200D556
:101440004EE50121012002F087F949E506222399A2
:101450000E980CF045FC002608280DD1239F01367C
:1014600032002599380004F095FE062239000E98C6
:101470000CF036FC0828F1D024990E980DF0DEFC13
:101480000CE5109B0020198800F0FAF825E6109B67
:101490000120198800F0F4F87FE7C04600C004403E
:1014A00000D0044000E0044000408F40C3D32B65CF
:1014B00019E2983F0000F03F0000C84200007F435F
:1014C0006666663FCDCCCC3D000048443F420F00ED
:1014D0000000704210B501F08DFF114B186059608B
:1014E00001F088FF0F4B1860596001F083FF0E4B2D
:1014F0001860596001F07EFF0C4B1860596001F0D4
:1015000079FF0B4B1860596001F074FF094B1860AC
:10151000596001F06FFF084B1860596010BDC0465C
:10152000003900202039002008390020103900201F
:10153000F8380020183900209832002070B508F0E3
:1015400089F81F211D2000F0E9FD002200211D2047
:1015500000F008FE00211D2000F0F2FE1F211A20DD
:1015600000F0DCFD002200211A2000F0FBFD00212C
:101570001A2000F0E5FE172000F0F6FED0248023AC
:1015800024061B04A36201220021172000F0EAFDBB
:10159000182000F0E9FE80235B04A36201220021F1
:1015A000182000F0DFFD0421002000F0B7FD2A4BD9
:1015B0001B689A00D218294B9200D118284B4B6017
:1015C000FF230B61274BD018274B00681B685D4237
:1015D0006B41264D5B42AC46DB03DB0B63440340AF
:1015E0002348101803600123096804208B43214914
:1015F0008C466244136000F0B7FE1023092063623A
:1016000000F0B2FE80239B00A3620022012109208A
:1016100000F0A8FD082000F0A7FE80235B00A36275
:1016200000220121082000F09DFD1349134807F016
:10163000D5FF03210C2000F071FD03210D2000F0E7
:101640006DFD002201210C2000F08CFD0022012103
:101650000D2000F087FD70BD6C5A00200000054091
:101660000D0300000C000540B45500200000FFFFF2
:101670000C10054000100540801A0600F82A0020D2
:10168000D02310221B06002817D05A610D4B1A6870
:1016900093009B180C4A9B0094460C4A63441268C2
:1016A000002A0CD00A4A0904186841400A408021E7
:1016B00049018C4663441A6070479A61E6E7054A1F
:1016C000F2E7C0466C5A00200C000540B4550020DB
:1016D0000000FFFFFFFF000010B502F0B9FC002280
:1016E000054B02F020FCC022044B120602F01BFC4A
:1016F00002F0F6FC10BDC04600002840CA0141407F
:1017000008B4F0B50D00110082B01C236E46040031
:10171000C81D00AFC008FB18C00004CB301A8546B6
:101720003B60A84705002000002308306E4620607B
:1017300063607D600F2D10D8012D0BD1337823729B
:1017400000236560BD464355200002B0F0BC08BCD4
:1017500001B01847002DF3D007E000222000391D0A
:1017600013F0DCFC7B682060A3602A00310003F0EA
:1017700075F97D682068E3E7F0B5C64600B5050059
:101780008EB0101C98460E0003F0B6F8244F254C7E
:101790003B00009001913A22210008A8FFF7B0FF1A
:1017A0004246434652681B680021009208A8002266
:1017B00013F0B6FD0822904604AF029703688044F8
:1017C0000400434524D00293836804936368039321
:1017D0004346236000230898636023720AAB984253
:1017E00003D00A99013103F047F9029B28000093C6
:1017F00032000123002100F08FFA0298B84203D092
:101800000499013103F038F90EB080BCB846F0BD40
:10181000426841463800013203F020F9D6E7C0465D
:10182000B8AF0110E96100100022024B1A60024BB0
:101830001A6070476C5A0020B45500200120704790
:10184000002801D1014870470020FCE7C82600208D
:10185000F0B5C64600B588B0984602AB8C46190074
:101860001700114A30CA30C10A000D000F4C43CC9A
:1018700043C221780E4C11700E4A60460192082135
:10188000220004F09DFC2B0022001021380004F0FF
:1018900097FC22000421404601AB04F091FC08B003
:1018A00080BCB846F0BDC046C0AF0110C8AF011043
:1018B000BCAF0110312E300010B512F0DFFE032353
:1018C00003405A425341D8B210BDC04670B504001F
:1018D0000D00160012F0D2FE800705D000232B6009
:1018E00080239B00338070BD2A000121200012F06C
:1018F0003DFF0028F2D1F3E710B5002B01D1012004
:1019000010BD002A03D00022074B1A70F7E700220F
:10191000002112F02BFF002803D10122024B1A7084
:10192000EDE70020ECE7C0468B5A002070B51D00A3
:101930000D4B04001B780E0082B0002B11D112F069
:101940009DFE80070DD1069B32005B0A00932900A3
:101950000023200012F0B2FE002802D1069802B047
:1019600070BD01204042FAE78B5A0020074B10B5AA
:101970001A780023002A06D112F074FE0123800891
:10198000584001230340180010BDC0468B5A002068
:1019900070B51D000D4B04001B780E0082B0002BAB
:1019A00011D112F06BFE80070DD1069B32005B0A4D
:1019B000009329000023200012F0ACFE002802D181
:1019C000069802B070BD01204042FAE78B5A002011
:1019D00010B500232022052106F014FC012040420E
:1019E00010BDC04600487047E0B90110004870477C
:1019F0007CB9011070B5002822D0052829D8164BD3
:101A00008000C558280016F0FDFBC0B2041C1F283A
:101A100014D8C026E4B2631CDBB25B00B6001E43E0
:101A2000002808D000230D4AE95C01331180D9B2A7
:101A300002328C42F8D80A48068070BD1F24E8E7BD
:101A4000C126054B02220548196803F007F8B600C5
:101A5000F1E70020F1E7C046F4290020BA42002057
:101A6000B8420020F0B5454657464E46DE46E0B542
:101A70008FB018AD10CD94462F78072526783540C5
:101A80006A1E9541A8466578F608B044002D00D13D
:101A900091E04646002E00D18DE06246013A0C925C
:101AA00001225918DE0091460632A4460A964446A1
:101AB00000268846924619002B006246D578099484
:101AC0007D1B5D4343465B1A9B46AD1965435C46EF
:101AD00005350B9505944D4644460C9B6D1A5B18D5
:101AE0000394002264468C46390004950D960B9DA4
:101AF0001F006519AE5C0792089308250B003200A1
:101B00006146A44605E0013DEDB252087F18002D64
:101B100037D04C461442F6D0049CE619059C0029A7
:101B2000F1D0E0468B469C46069203783100029540
:101B3000A34217D942788A420ED9CA085343C268D1
:101B40004D46019252460A4095402A00019D1B19BC
:101B5000ED5C2A43019DEA54B94203D00378013178
:101B6000A342E7D8039B0134029D9C42DDD1594634
:101B7000069A013DEDB263465208C4467F18002D17
:101B8000C7D10A9D079AA8466446099D8C4619004C
:101B9000089B013243449542A9D10F006146A446F7
:101BA000039B0D9E9846634601365B78F2B22C008B
:101BB0008844934281D80FB0F0BCBB46B246A946D8
:101BC000A046F0BDF0B5DE46574645464E46E0B568
:101BD0000F009A468BB0149B0600C8B242499B4640
:101BE000D3B2394098461B020B4351461500D20828
:101BF000D2B2140423431B0209061B0A0B433360B1
:101C00005B46504373603061013002F0EBFEF060E0
:101C1000002867D0354B03AC03934346013B237147
:101C2000D32363718023DB01E3808D232372337A16
:101C30000130F0606D00002B48D11423BD424BDB16
:101C40001221F12263722A4B25276381DA23237341
:101C50005A3BFF3BE3815933FF332374254B6173B8
:101C60006382254B6274089300232376234B6F44D1
:101C70009846234B02AD99460CE0013003D1414612
:101C8000204804F085FD0134A74217D073689B46B5
:101C9000F3789A46002322782B706A70514600939D
:101CA0002A000233584607F0C1FC831CE5D14146A7
:101CB0004846013404F06CFDA742E7D101200BB087
:101CC000F0BCBB46B246A946A046F0BD1023BD42BB
:101CD00005DB12212222B5E70221F122B2E702211F
:101CE0002222AFE73061EAE7FF00FFFFAED580A810
:101CF000A1C8FFFFDB300000A4A6AF2018B0011080
:101D000048B0011028B00110030010B50021C068D0
:101D10001A6902F09DFE10BDF0B54E464546574685
:101D2000DE46E0B583B00C9D81462C7892469846FD
:101D30000E00002C16D05F00104B47449B467F00DE
:101D40002300203B01355E2B13D85B463100019404
:101D50000093524643464846FFF784FE2C78BE194E
:101D6000002CEDD103B0F0BCBB46B246A946A0465C
:101D7000F0BD2C78BE19002CE2D1F3E7F4B90110C4
:101D8000F0B5CE464746212380B5027887B004AC33
:101D90002380531EA3702223E370002323718378D2
:101DA0000600013B6371402A03D1202363703F3357
:101DB000A3701627224B6F449846224B03AD9946D9
:101DC00008E0013003D141461F4804F0E1FC013432
:101DD000A74213D0002322782B706A70F1787068C4
:101DE0002A000093023307F021FC831CE9D141460D
:101DF0004846013404F0CCFCA742EBD14022002439
:101E0000F368013B1A703369F268F1787068013346
:101E1000013A009407F00AFC831C0BD0013004D077
:101E200007B0C0BCB946B046F0BD0849064804F04A
:101E3000AFFCF5E70549034804F0AAFCF0E7C0460B
:101E400018B0011048B0011028B0011058B00110AE
:101E50000B2270B5002604000D0084B06A44167091
:101E60000023009607F0ECFB03AA022329002000C0
:101E7000009607F0E5FB6B461A7B3F2313406A464A
:101E8000507B1B02184304B070BDC04610B502F071
:101E9000D9FC034902F07DFC024902F094FC10BD1C
:101EA00000007A44C616023CD0231B061B68974AE2
:101EB0009900F0B54E46894651585A4253412F2257
:101EC00057464546DE465B4293439846904BE0B505
:101ED0009C4683B000270191E044002939D08D4B06
:101EE0000F269B464246FB0808339B009C58012363
:101EF0003D009A460837002C22D03100214026426E
:101F000018D05B464A469A582B00EA40203BDB1724
:101F10001340524613420DD1072208002A40920076
:101F200090400200EB087C483C339B001A5028008C
:101F3000019B984724090135002C01D0BD42DCD318
:101F4000202FCFD103B0F0BCBB46B246A946A04675
:101F5000F0BD704B00200F229B46C608330041465F
:101F600008339B005B5801000830002B00D1B2E021
:101F700017001F40BC461A420FD04C465D460F006A
:101F80002C59203FCC40FF1727400124274204D181
:101F90006446614F3C36B600F4511E0900D19AE008
:101FA00017003740324213D04C1CA4465D464C46C5
:101FB0002C5965460E00EC401F3EF61726400124C2
:101FC000264205D1EE08544C3C363F01B60037514D
:101FD0001E0A00D17FE017003740324213D08C1C1C
:101FE000A4465D464C462C5965460E00EC401E3E0C
:101FF000F61726400124264205D1EE08464C3C3611
:102000003F02B60037511E0B65D0170037403242F1
:102010000DD0CC1CA4465D464C462C5965460E009E
:10202000EC401D3EF61726400124264257D01E0CD8
:1020300051D014003440A44632420BD04C46354EA9
:102040000F1D3659FE40B2460E0054461C3EF60F98
:1020500026424BD01E0D3ED014003440A4463242DE
:102060000BD04C462B4E4F1D3659FE40B2460E004B
:1020700054461B3EF60F264240D01E0E2BD01400B5
:102080003440A446324212D04C46224E8F1D36595F
:10209000FE40B2460E0054461A3EF60F264206D1C6
:1020A0006446FE083C3627061B4CB60037511B0F12
:1020B000CF1D002B0FD04C465D462E590124FE400B
:1020C0001939C9173140214205D1F908124E3C3166
:1020D0001B0789008B51202800D03EE732E7EE082D
:1020E0000D4C3C363F03B6003751A0E76446FF086D
:1020F0003C37BE00084F2404F451ABE76446FE08A9
:102100003C362705044CB6003751B6E7AC550020E5
:1021100030410140505A002000400140094A8300EC
:102120009A1810B514684022544080322240064C60
:10213000C000A44663441A60044B9C46604441605E
:1021400010BDC04604C0014004D001400040014021
:10215000034BC0009C46604443681F2018407047F2
:1021600000400140074B8000C3181B68C900920063
:102170000A435A400C231340034A944660440360C8
:102180007047C04604C0014004D00140064BC00067
:10219000C3181B6809045940C0239B021940034B14
:1021A0009C46604401607047044001400450014077
:1021B000064BC000C3181B6809035940C0239B018C
:1021C0001940034B9C466044016070470440014045
:1021D00004500140054B8000C3181B684B4001218F
:1021E0001940034B9C4660440160704704C00140A5
:1021F00004D00140064B8000C3181B68054A090142
:1022000059409446302360440B4003607047C046F9
:1022100004C0014004D00140D0231B061B6830B528
:102220000500584243412F205B4283430E48EC088F
:102230008446072028408000814020000B4D3C3020
:1022400063448000A40041511B19002A05D080225C
:10225000920194466344196030BDC02292019446B5
:1022600063441960F8E7C046304101400040014036
:10227000F8B545469846D0231B06DE461C689B46AB
:102280002B4B57469A46A3004E469946E0B5534617
:1022900016004A469B5807000D00002B34D04346D9
:1022A000002B3FD053464A4641469950D0231B0647
:1022B0001C6863425C412F220720634293431D4AFE
:1022C00038409446FA081100800085403C311A4895
:1022D0006344890092000D509B18002E0ED080227E
:1022E00092019446634401210D201D6000F086F99F
:1022F000F0BCBB46B246A946A046F8BDC02292013A
:10230000944663441D60F3E74346002BD1D0534607
:1023100041460D2099500022084900F0ABF95B4678
:102320001C68C6E70D20054900F09EFABAE7C046D2
:10233000AC5500203041014000400140A91E001072
:102340008000002905D0064B9C4640236044036072
:102350007047044B9C46402360440360F8E7C04646
:1023600004E0014004F001400123D0228340120622
:1023700093629361094A83009A1811684022514080
:1023800080320A400649C0008C4663441A60054BFF
:102390009C460523604443607047C04604C001402A
:1023A00004D0014000400140094A83009A18116896
:1023B0004022514080320A400649C0008C466344A6
:1023C0001A60054B9C461F23604443607047C0461B
:1023D00004C0014004D00140004001408023DB05DF
:1023E0001868000F7047C0460FB400B5084883B0A6
:1023F00004F046F9049B002B07D005A918000191B1
:1024000003F010FF034804F03BF9012003F022FF22
:1024100068B0011078AD0110EFF3108072B6034A76
:102420001368002BFCD0BFF35F8F70472C0100D0E6
:10243000BFF35F8F0022024B1A6080F31088704751
:102440002C0100D070B5EFF3108C72B60D4D2B68D7
:10245000002BFCD0BFF35F8F0724CB08C618C05CED
:1024600001230C40A3401C000440034207D1184341
:102470003070BFF35F8F2C608CF3108870BD10003C
:10248000FFF7B2FF2C0100D0F8B54746CE4688468C
:1024900080B5EFF3108C72B6214D2C68002CFCD067
:1024A000BFF35F8F9A422CD8D4080727055D061921
:1024B00001241740BC402C421FD007210127894628
:1024C00009E0D408055D06194C4639001440A140C6
:1024D0000C00294211D001329342F2D20120404235
:1024E000BFF35F8F00220E4B1A608CF31088002818
:1024F0000FDBC0BCB946B046F8BD254310003570AF
:10250000EEE7BFF35F8F00232B608CF31088012070
:1025100040424346002BECD00898FFF765FFC046C9
:102520002C0100D030B5EFF3108C72B60A4C236842
:10253000002BFCD0BFF35F8F072301220B409A4092
:10254000CD08435D93434355BFF35F8F0023236062
:102550008CF3108830BDC0462C0100D0044A10789E
:10256000431CDBB2172B00D9102313707047C046F1
:102570000C2A0020064B10B5C31801009B00BFF3C6
:102580005F8F002203481A60FFF7CCFF10BDC046E2
:1025900040000034B855002010B5064B064C82B000
:1025A0000100009318221F232000FFF76DFF02B0E7
:1025B00010BDC04678B00110B85500200021044B72
:1025C000044ABFF35F8F02C39342FAD17047C046FB
:1025D000000100D0800100D0054B064A1360064A76
:1025E000136053609360D3601361536193617047CC
:1025F0008080808000E400E004E400E01F231840B5
:102600001E3B8340002905D0C021044A4900535095
:1026100013607047802201498B50FAE700E100E027
:1026200070B50D00EFF3108672B60F4A1368002BD9
:10263000FCD0BFF35F8F0D4B10309B6884001B599B
:102640000B4A934203D09D4201D001F019F9074B88
:102650009B681D51BFF35F8FBFF35F8F0022024B5A
:102660001A6086F3108870BD240100D000ED00E0F0
:10267000CD010010F0B557464E46DE464546E0B562
:1026800085B0060000911700EFF3108B72B66A4A0E
:102690001368002BFCD0BFF35F8F0025674B5D579D
:1026A0009A46002D00DAA9E06B00654C01935B1996
:1026B0009B009846A146C1444B4652469B79103632
:1026C0001370604BB6009B6899590B1B5F2B33D975
:1026D0005D4B994200D0ACE0019B42469C465B4B6F
:1026E0006544AD0063535A4B0232A218043B9B1A57
:1026F0001B05584A5B0D651913436B80564B01212E
:10270000AB80FF23AB71009BEF71AB604B460B437B
:1027100019004C4B9B689951BFF35F8FBFF35F8FDC
:102720000022454B1A608BF3108805B0F0BCBB4605
:10273000B246A946A046F0BD01200A008243D379E3
:102740008C46BB4231D84546130044491B1B5B41B4
:102750005943090D3D4B63533D4B02356519043B0D
:102760005B1B1B053B4D5B0D2B43AA464D466B8007
:102770000425AC465546E044131F44441B1B1B056F
:102780005B0D1D434B46997100999D8099604946A8
:10279000DF71334B01431360BBE75800C018800062
:1027A0002018C179B9422FD902000623D356002B35
:1027B000F3DA02932B4B61460393131D9A460423CD
:1027C0005B429C46E14450464B461B1A1B055B0D81
:1027D0009C46204B95719846634640460343938040
:1027E000019B5A199200039BA418A380029B1C4AC8
:1027F000A371009B2260E771A3608AE701F040F8B3
:10280000002553465D574FE7908802934005131DFE
:102810009A46031561469C464046D44463460430BC
:102820002018181AE0230005400D1B0218430390DE
:10283000C5E701F025F84FE7240100D08C5A0020AD
:10284000102A002000ED00E0CD01001000A1FFFFE4
:10285000702A002000E0FFFF01BDFFFFAAAA0000D0
:102860000148804701BD0000F0B5DE4657464E46A0
:102870004546E0B50C0083B0EFF3108872B6634AAA
:102880001368002BFCD0BFF35F8F614B61499A68DE
:10289000030010339F00D55900938D4243D0A542C9
:1028A00054D05D4EAA1B5F2A3DD85C4B9C461B68EA
:1028B0009A4601231A0099468240534613401F222C
:1028C00001934B46024093409A468022634650460D
:1028D0009850BFF35F8FEFF305839B46002B37D0F3
:1028E000009B5B4501D000F0CBFF2A004B469A438A
:1028F0009068844208D177E04B005B189B00F31886
:102900009868844236D01A00062151560029F3DA1D
:10291000844255D0019B002B27D0C02251463F4B0B
:102920005200995019603A4B9B68DD51BFF35F8F9D
:10293000BFF35F8F0022354B1A6088F3108803B015
:10294000F0BCBB46B246A946A046F0BD0D00EAE782
:102950002A004B469A4390688442D5D106201056EF
:10296000130000280ADA0D0032E0802351462B4A7A
:10297000D150D8E706201856002822DB4200111853
:10298000890074188946A1689960E179D971062196
:1029900061569971002925DBA488F11A6405241574
:1029A0004C440919E0240905490D2402214399806A
:1029B00013181B4A9B001178F31899711070A9E73E
:1029C00013005946002914D1FF31917115499180A6
:1029D00013490A789A71144A9B1B5B415A43120DA2
:1029E0000A7097E71149E2E7062010561300002805
:1029F000C4DA0F4A0F49D21A083A5002400D014377
:102A000099800D4952080A43DA8083E7240100D0F7
:102A100000ED00E0CD010010102A002000E100E0F0
:102A20008C5A002001BDFFFFAAAA000001BD0000D2
:102A30007A2A002000F0FFFF00F8FFFF70B50124A4
:102A40000443EFF30581EFF3108C72B62D4A13683F
:102A5000002BFCD0BFF35F8F2B4A05002B4BAD1A28
:102A60006D416B431B0D2A4D8900AE685BB27658F1
:102A7000A6422CD00621515699422CD012215156F3
:102A8000994234D01E215156994232D02A215156B2
:102A9000994230D03621515699422ED0422151567A
:102AA000994222D04E215156994228D05A2151564E
:102AB0000724994210D0174A117813708171BFF31F
:102AC0005F8F00220F4B1A608CF3108870BDAA68CC
:102AD000114C5450EFE70024610009198900521885
:102AE000FF2191710D499180E5E70524F4E7012468
:102AF000F2E70224F0E70324EEE70424ECE70624DF
:102B0000EAE7C046240100D0102A0020AAAA00004B
:102B100000ED00E08C5A0020CD01001001BDFFFF48
:102B2000024B9C46614489000160704740000034BC
:102B300070B5114C114DAC420FD2FF262368002B0B
:102B40000CD0FFF70BFD01002000FFF7E9FFA68086
:102B5000BFF35F8F0834AC42F0D370BDFFF7FEFCCB
:102B600001002000FFF7DCFF2671BFF35F8F083400
:102B7000AC42E3D3F1E7C0466C3200208C32002037
:102B800010B50400FFF7EAFC01002000FFF7C8FFC2
:102B9000FF232371BFF35F8F10BDC04610B5040043
:102BA0000120FFF7F9FC034BC3189B002360BFF320
:102BB0005F8F10BD40000034054A036894466344AB
:102BC00010B504009810FFF7D5FC0023236010BD5A
:102BD00000FFFF2F0A4B1968EFF3108072B60A68E6
:102BE000002AFCD0BFF35F8F1B68BFF35F8F00220A
:102BF0001A6080F3108840BF002000217047C04653
:102C0000685A0020F0B5DE4657464E464546E0B5C8
:102C100083B0EFF3058203231340B54A990052585D
:102C20000091904601229A40B24B93461A60B24BF3
:102C300001932EE043469B881BB2002B00DB99E0FA
:102C400043469B79002B00D0DDE0434608241C5FFF
:102C5000002C00DA06E143465A6963001B19DB00C9
:102C6000D3189D68DC686B1C00D107E1A34B009969
:102C70009C4661449A6A0B69A81A9B1A984200D232
:102C80000D619E4800F0AEFB8C4200DDEAE000D111
:102C900026E15B4699484363434608229B5E99467A
:102CA000002BC7DB424652695B0092464B44DB0077
:102CB0009A4453469E68DF6800F094FB8F42B9DC6B
:102CC00000D100E1002F00DAE1E05246534654699A
:102CD0001B69019A934200D1D4E041465246082034
:102CE000085E5288000421001043984704000D003C
:102CF00023002B4300D1CAE0002D00DBE7E03000C9
:102D00003900001BA94153469860D96000229A5EA1
:102D1000002A8FDB43465D6953009C18E4002C19A0
:102D2000A768E4688C4200DD84E702D1874200D9BD
:102D300080E74646328108360DE08C4200D1D3E070
:102D40001E000023F25E002A0ADB53009C18E400F8
:102D50002C19A768E4689B18DB00EB188C42ECDDAB
:102D600053461A804B46338043469B881BB2002B48
:102D700000DA65E743461A69EFF3108172B613680B
:102D8000002BFCD0BFF35F8F43469E880123424651
:102D90005B42938036B21369BFF35F8F00221A60E3
:102DA00081F31088002E00DA4AE743465D69083354
:102DB00042469C467700BF19FF00EF19BB6860468A
:102DC00098460823D15E9246FC68002907DA0EE097
:102DD000A2424FD018000023C15E002906DB4B0041
:102DE0005B18DB00EB18DA68A242F1DD5246068080
:102DF0000023FE5E3980002EDCDA904643469B7944
:102E0000002B00D121E700234246937143464646FA
:102E10000821595E08364B1C24D04746894655691F
:102E200002E006004B1C18D04B005B18DB00E818D2
:102E30000A008C46E95E43881BB2002BF1DA0123BD
:102E40005B42DC178360C4604A4503D031803B8914
:102E500003803A81E1464B1CE6D14C46B846002C33
:102E600000DBF8E640BF03B0F0BCBB46B246A94663
:102E7000A046F0BD9A684245ACD9B7E7631C00D0C4
:102E8000F4E6FEE6200023699847002825D1534642
:102E900042461B8813811269EFF3108372B61168E2
:102EA0000029FCD0BFF35F8F4246514652880A800A
:102EB0004246494651801269BFF35F8F002111607D
:102EC00083F31088B6E6864200D8FBE6B2E60B48EC
:102ED00000F088FA0019694115E76568246807E77A
:102EE000854200D8D5E6BDE7874200D828E737E716
:102EF000405A00203C700540052C00100040054061
:102F000070B52E4C2569002D04D00A212C48FFF7FE
:102F100007FE70BD2B4E0321300000F059FAE66029
:102F2000FFF71CFB284B03229C46D02322701B0674
:102F30001B6801216370254B6044A3600F23800050
:102F400020610220638063694942A18019800231B7
:102F5000198647311D83585218315A5275325C39DF
:102F6000995218320131995218320131995218325E
:102F700001319952083518329D5202311832995256
:102F800018320131995218320131995218320131F7
:102F900099521832013199521832013199520C4B21
:102FA0000C49DC6001303562FFF73AFB0121032058
:102FB000FFF724FB084B1D60A7E7C046882A0020C6
:102FC000685A00200040054040000034FFFF100018
:102FD000405A0020052C001038600540004870471A
:102FE000882A0020F8B51F0008AB1B7804001600E3
:102FF000002B08D100F0FEF932003B00121A8B4181
:10300000002B00DA53E02269EFF3108072B61368E8
:10301000002BFCD0BFF35F8F0223E15E63694A009F
:103020005218D2009B18002937DB1A886280226967
:10303000BFF35F8F0025156080F31088069A9E60AD
:10304000DF601A61079A5A615A8801325204520CA1
:10305000101C002A1FD082B2588008041043266931
:10306000EFF3108772B63268002AFCD0BFF35F8F8F
:10307000A2881A80A1802369BFF35F8F00221A60A3
:1030800087F310880B4923788C4601329A40E36815
:1030900063441A60F8BD0120DDE72369BFF35F8F49
:1030A00000221A6080F3108801204042F2E70020DD
:1030B000F0E7C0463C20000070B501000469EFF362
:1030C000108C72B620680028FCD0BFF35F8F0220FE
:1030D0000D5E4C6968004019C0002418002D37DBD4
:1030E000208848800869BFF35F8F002606608CF354
:1030F0001088E36063880498013320615B040598BD
:103100005B0CA26060611A1C002B1FD093B22804D4
:10311000628018430A69EFF3108C72B61368002BB3
:10312000FCD0BFF35F8F8B8823808D800B69BFF34A
:103130005F8F00221A608CF310880B7801329A405E
:10314000CB6808498C4663441A6070BD0122DDE7F4
:103150000B69BFF35F8F00221A608CF31088012087
:103160004042F2E73C20000010B543890A14934224
:103170001ADD53009B184269DB00D3180469EFF392
:10318000108C72B62268002AFCD0BFF35F8F5A8879
:10319000090494B2090C8A4208D00369BFF35F8F17
:1031A00000221A608CF31088002010BD80221202C9
:1031B00014435C80012302698371BFF35F8F002198
:1031C00011608CF31088044902788C469340C268E1
:1031D000012062441360E8E73C200000407870471B
:1031E000F0B504000D0006267642F717C6463619DC
:1031F0006F4100B582B08F4214D811D000F0FAF8B8
:1032000032003B00121A8B41002B17DC002B47D0F9
:103210002000290000F02CF902B080BCB846F0BDB7
:103220008642EBD90022002316001F0000F0E2F8CE
:1032300032003B00121A8B41002BE7DD00F0DAF878
:1032400032003B00121A8B41002B0ADB0023019352
:10325000154B3200009315483B00FFF72DFF002867
:10326000D6DB00239C46B046114A124E736A9F4239
:1032700004D8B16A8845CBD99F42C9D11168EFF310
:10328000108072B60B68002BFCD0BFF35F8F136801
:10329000BFF35F8F6146196080F3108820BFE5E7B8
:1032A000002AB5D0CAE7C046D52B0010882A0020D6
:1032B000685A00200040054070B5060000F09AF8FA
:1032C000FA2204000D00002330000021920001F0DA
:1032D00043FA8023001969411B06994202D3012059
:1032E00002494042FFF77CFF70BDC046FFFFFF7FF1
:1032F000F0B5CE46474680B504000D0083B0EFF32D
:1033000005878846002F3ED12E4EA1463378F068BF
:1033100004339B00816A1B58601A5B1A98420ED3D3
:1033200020BF294900204B6AAB4203D38A6A01308F
:10333000944231D803B0C0BCB946B046F0BD00F0ED
:1033400059F822002B00121A8B41002B2FDB1F4B48
:103350002200009330002B000197FFF7ADFE011E05
:1033600025DD194B5A6AAA421BD220BF3000FFF755
:10337000FBFE154A0020536A4345DBD3926A0130B5
:103380009145D7D908E0104900204B6AAB42D1D310
:103390008A6A0130A242CDD25B1B5A1E9341D8B239
:1033A000C8E79B6A9C42E1D9AA42DFD1DDE7064A21
:1033B0000020536A4345BDD3926A01209145B9D993
:1033C000EAE7C046882A002000400540D52B0010BF
:1033D00010B5024A0248FFF735F810BD94B001104D
:1033E000BC5500200300416A0A00986A596A8A4263
:1033F000FAD17047034B596A0A00986A596A914298
:10340000FAD170470040054070B504000D00174A1E
:10341000536A1900966A536A8B42FAD13000190038
:1034200024184D41AB4216D813D0104A2B00526AD3
:10343000954203D90D494A6A9A42FCD39A4207D170
:103440000A4A02E0516A994202D1916AA142F9D333
:1034500070BDA642E9D9054B5B6A1C005A1CEFD02F
:10346000012301246442E5175B42E3E70040054085
:10347000064A536A9942FCD807D1044B02E05A6AC3
:10348000914202D19A6A8242F9D3704700400540C6
:1034900010B514F081FA10BD0022835E0A4A9446EA
:1034A00063444B610223C356013B0B610323C356A4
:1034B000CB600523C3568B600623C3564B6007239E
:1034C000C3560B607047C04694F8FFFFF8B5DE4660
:1034D0004E4657464546E0B58B4605000A9918000A
:1034E000160000F0D3FA0A9B6C001F02324B6419DD
:1034F0009C46A4006444636881469F4200D967608B
:103500002B1FDBB29846012B30D9C02380229B01B0
:10351000E31812011A60294BAD0059599A46002947
:103520001BD17301E026226853401E40802342468F
:103530005B01E3181E60012A30D9802380229B01A1
:10354000E31812011A6053464A4667605A51F0BCAC
:10355000BB46B246A946A046F8BD586900F096FAA7
:10356000013043001B18033BFDD2DAE75B46012B19
:10357000CBD1C02303229B01E3181A60023AA3684F
:103580001A42FCD07301E0262268AD0053401E4071
:1035900080230A4A5B019246E3181E605A4621685E
:1035A000514003220A401A6001225B469A40A368F8
:1035B0001A42FCD0C1E7C04600800040C45500203C
:1035C000F0B546464F46D646C0B51F00344B4400C2
:1035D0009C462418A4006444636888461600FF2BA8
:1035E00002D880235B006360031FDBB29A46012B85
:1035F00030D9C02380229B01E31812011A60294BA5
:1036000085005959994600291BD17301E02622688B
:1036100053401E40802352465B01E3181E60012A7E
:1036200030D9802380229B01E31812011A60802385
:103630005B0063604B465F51E0BCBA46B146A846AA
:10364000F0BD586900F022FA013043001B18033B1B
:10365000FDD2DAE74346012BCBD1C02303229B01E5
:10366000E3181A60023AA3681A42FCD07301E026FC
:103670002268850053401E4080230A4A5B01914620
:10368000E3181E6042462168514003220A401A6036
:10369000012342469340A2681342FCD0C1E7C046D2
:1036A00000800040C4550020014B8000C058704786
:1036B000C4550020F8B5040021481E0017000D0075
:1036C00000F0E4F90100380000F0E0F9069B360450
:1036D0001B031E432368002B20DB1A4B1A49E318F7
:1036E0005A1E93418022920194465B421B0B174A5B
:1036F0001B0363441360164A13601F000A68974354
:10370000FBD1144B2560E2182123A06013602368CD
:10371000002BFCDA0823E6601360F8BD3F23226823
:103720001340AB42D9D1A3681B051B0D8342D4D1F2
:10373000EE22E368D2021340B342CED1EDE7C04699
:10374000001BB7000040FDBF08C0004000E0004083
:1037500000F0004004300000194B1A4A10B5DA613D
:103760008022194BD2051A60184C194A146000299E
:103770000AD0E022174BD2041A60002809D1802217
:10378000144B12061A6010BDE022D2041A60002801
:10379000F5D043011B1A9B001818802300015B041D
:1037A000984209D203000C4A13608022044BD205D0
:1037B0005860084B1A60E6E7084B1800F3E7C0466C
:1037C000008005402131B76A00B00540FCFF0100D0
:1037D0000820014000A00540185A0020FFFFFF000C
:1037E0008023024A9B000B43D36270470080054050
:1037F000142310B50100188804331B88984710BDA6
:10380000162310B50100188802331B88984710BD95
:10381000F8B54746CE4680B50F1E19D014239946F9
:10382000043304000025012698464B461888434679
:1038300021681B88984701C4431E984101354042C6
:103840000640AF42F1D13000C0BCB946B046F8BD29
:103850000126F8E7AA23064A1B0113602F23054916
:10386000D360054B19605368002BFCDA7047C046E3
:103870000040024000B0FA00006002407047C046BD
:1038800010B50148FEF7B0FDB8B0011070B5074D96
:10389000074EB54209D20024013E761BB60808CD7A
:1038A000984723000134B342F9D170BDB8AC011080
:1038B000F4AC0110054B064A06491A60064A074B4C
:1038C0001A6010000B689843FBD1704700E000407D
:1038D000BFCDFBFE08C00040FE7F3C0000F0004072
:1038E000044BDB6C002B03D18022034BD2021A6005
:1038F0007047C046000011504C201150044A054B3F
:103900001A60054A1368DB018033FBD17047C0465B
:10391000FFFFFF0100F0004008C000404022034BC1
:103920009A675A671A67DA667047C04600F0014026
:1039300010B5FEF743FE10BD70B5044D044CA968E8
:10394000C022200001F08AF8AC6070BD00ED00E0FC
:1039500000000020002310B5294C82B0A367FFF7B8
:1039600079FF0122274B1A60636C012BFCD10322E3
:10397000254B1A60224A936B012BFCD10133009333
:103980000121224A22480433FFF794FE0523012136
:103990000093204A2048FFF78DFE002202210420D8
:1039A0001E4BFFF70DFE0022012105201C4BFFF7E7
:1039B00007FE0022002107201A4BFFF701FE00221C
:1039C00000210820174BFFF7FBFD8023DB0000934D
:1039D000002200210920134BFFF778FD0022104B35
:1039E00000210620FFF7ECFD0420FFF75DFE0E49E5
:1039F00000F04CF801000020FFF7F2FE02B010BD0D
:103A0000008000403CB0004030B00040002F6859BA
:103A100000800240008C864700C00240001BB700B7
:103A200040597307006CDC0240420F00014804213A
:103A3000014B1847A02A002011380010124A936F3A
:103A40009B0815D29066D166002905D0FFE7FFE7F5
:103A5000FFE7516F106F704704B580210906C21748
:103A60005140002800D0C84317F07EF8002104BD63
:103A7000F0B5146E556E576F166FFFF7E3FF1466BF
:103A8000556657671667F0BD000000D0114A936F66
:103A90009B0813D210665166002905D0FFE7FFE7A7
:103AA000FFE7516F106F704704B5002801D0002068
:103AB000C04317F059F8002104BDC046F0B5146E9C
:103AC000556E576F166FFFF7E5FF1466556657671B
:103AD0001667F0BD000000D094464A4A926F9208E3
:103AE000624601D228E0C046F0B5464E346E756E8F
:103AF000776F366F00F020F89446424A1466556698
:103B0000576716676246F0BD94463E4A926F920828
:103B1000624601D254E0C046F0B53A4E346E756E3E
:103B2000776F366F00F04CF89446364A1466556647
:103B3000576716676246F0BD002B24DB11D00029C1
:103B40003EDA00B5C943404200D1013100F038F8F7
:103B5000C943404200D10131DB43524200D101331D
:103B600000BD002AEBD1002801D1002905D000209A
:103B7000C90FC90701D1C043410800B516F0C4FF01
:103B80000022002300BD00B500290ADBDB435242BE
:103B900000D1013300F014F8C943404200D1013193
:103BA00000BDC943404200D10131DB43524200D144
:103BB000013300F005F8DB43524200D1013300BD70
:103BC000002923D1002B18D1002A0CD0BC460D4F60
:103BD00038667A6600210023FFE7FFE7FFE77A6F88
:103BE000386F67467047002801D00748010000B5CC
:103BF00016F08AFF0022002300BD02000B00002007
:103C000000217047000000D0FFFFFFFF002B00D015
:103C1000BFE0130C28D1002AE7D080B4114F3966D9
:103C20007A66FFE7FFE730B4040C7B6F396F1B0443
:103C300023433B667A66FFE7FFE7FFE7C04684B2AF
:103C40007B6F3D6F1B0423433B667A66FFE7FFE70C
:103C5000C04600232C042D0C7A6F386F001969417F
:103C6000B0BC7047000000D0F0B594460025140E9B
:103C700001D112020835140F01D112010435940F3D
:103C800001D192000235D40F01D152000135D40B7D
:103C90000134254F7C66254C3C660E0C93B2FFE741
:103CA000FFE7FFE73C6F6643360C7703BE4673437E
:103CB000DF0B5B04C01AB941130C7343DB18C91A3C
:103CC000CE086643360CB64493B273431F0F1B01F4
:103CD000C01AB941130C73431F0B1B05C01AB9411D
:103CE000860D8F023E436643360C092D24DB520AB3
:103CF0007243801A7703460A6643360C16235B1B11
:103D0000DE40DF40BF1964466643821B70460435BF
:103D100006330100D940A840C01900D30131A242A6
:103D200006D20023F0BD0000000000D0FFFFFFFF1F
:103D3000121B0130F3D3F1E709277F1BFE406446D5
:103D4000A2B27243801A00D20139220C7243130CC2
:103D50001204821A99410B00704604351337010092
:103D6000F940A840801900D30131002B02D1A242B2
:103D70000AD2F0BD013000D30131121BFAD2013B4F
:103D8000F8D1A24200D2F0BD013000D30131121BA4
:103D9000F7E7F0B51C0C00D080E00CB400251C0A3D
:103DA00004D11B02160E3343120208351C0B04D13A
:103DB0001B01160F3343120104359C0B04D19B00E9
:103DC000960F334392000235DC0B02D192185B410F
:103DD00001351C00971864410134464F7C66464CFF
:103DE0003C660E0CFFE7FFE7FFE7C0463C6F66430B
:103DF000360C7703BE4697B27743C01B00D2013919
:103E0000C01B00D201399FB27743C91BC91B170CD5
:103E100077437E04FF0B801BB941CE086643360C06
:103E20000C2D33DBB644120B1F053A431B0B97B224
:103E30007743C01B00D201399FB27743C91B170CCF
:103E400077433E043F0C801BB941860D8F023E43F1
:103E5000664329277F1BFE400C3D7746AF40BF19C4
:103E600030BCA2B2ABB272437343801A9941220CA8
:103E70007243130C1204801A994102000B0001379F
:103E8000001BA941F9D2781E0021F0BD0C277F1B31
:103E9000FE4077467F0BAF40FF19E0E700245D1C32
:103EA00007D0144F7D663966FFE7FFE7FFE7FFE7BE
:103EB0003C6F95B29EB265436643401BB141150C01
:103EC0001E0C6543664336042F0C3E432D04401BF5
:103ED000B141994204D202000B0020000021F0BD44
:103EE00001D19042F7D3801A994101349942F2D31B
:103EF000F6E70000000000D0FFFFFFFF4840414010
:103F0000484018B41B4B5B68FC46019308BD04DFB6
:103F1000CF41001018B4174B1B68FC46019308BD35
:103F200000DFD94100109446134A926F920809D2DB
:103F3000624618B40F4BDB68FC46019308BD0CDFEA
:103F4000914400100C4AF0B5146E556E576F166F01
:103F50006246FFF7EEFF084A146655665767166714
:103F6000F0BD18B4034B9B68FC46019308BD08DF05
:103F70003543001028390020000000D0FFB5504024
:103F80004240504059404B40594000E0FFB5154F6A
:103F90004C00640D03D0BC4204D10C0314D80020A3
:103FA000090D09055C00640D03D0BC4204D11C035B
:103FB0000AD800221B0D1B0501264B4009D44B409B
:103FC00003D58B4200D18242FFBD9942FCD1904281
:103FD000FFBD0B43DB1803431343F5D0C943491816
:103FE000FFBD0000FF07000000B5FFF7CFFF01D0C5
:103FF000002000BD012000BD00B5FFF7C7FF8041D4
:1040000000BDC04600B5FFF7C1FF01D9002000BDCB
:10401000012000BD00B5FFF7B1FF01D9002000BDB0
:10402000012000BD00B5FFF7A9FF804100BD0120C0
:1040300040054A00121804D85A00121801D800206E
:1040400070470120704700000021002805D170470B
:10405000C1174840401AFAD0C90713B5064B1B6870
:1040600098470CBC441CA2401005120B0349091BC5
:1040700009051943114310BD645A00201F040000B4
:1040800010B54C00620D8023D218DB00D21A5B05FC
:104090007E2A10DD9E3A13DACC170903490819432A
:1040A0005242D140640001341532202A05DAD04052
:1040B0000843604310BD002010BD0846604310BD9A
:1040C000C80FC018013810BD18B4044B5B6AFC4619
:1040D000019308BD24DF414600100000283900206C
:1040E00018B4044BDB6FFC46019308BD7CDFC1466E
:1040F0000010000028390020132370B51D78012D11
:1041000019D014DD1F48FFF77BFB06001E48FFF7A0
:1041100077FB1E4C80223100200000F09FFC022D16
:104120002DD01B48FFF764FB1A4B186070BD1A4B6B
:10413000164CA364F5E7184B144C23606360A3602E
:10414000E36023616361A361E36123626362A3624D
:10415000E36223636363A363E36323646364A3642D
:10416000E36423656365A365E36523666366A3660D
:10417000E36623676367A367E367A364D1E7064B3E
:10418000A364CEE7534400005346000028390020C2
:104190004C330000645A00209D41001007B5604672
:1041A00001880A0A0230DF2AFAD1C9B2820804D390
:1041B000028840880004104300E00068014A505023
:1041C000039007BD283900200FB403BC0CBCF0B528
:1041D0000124E407634000E0F0B50C0DCF0F661E2C
:1041E0003605891B640503D3C943404200D301311E
:1041F000640D03D0661CF60A07D0E41B00207F0084
:10420000791C89078912803C24031D0DDF0F6E1E67
:1042100036059B1B6D0503D3DB43524200D30133AC
:104220006D0D03D06E1CF60A07D0ED1B00227F0037
:104230007B1C9B079B12803D2D032F1B661B58D4B4
:10424000A446202E46DA20371400BC401D00BD4095
:10425000F24033412A4380185941CB0F05D0C9435E
:10426000C043002264425041514162464D0D28D165
:104270000D0D07D100281FD0241940414941013AB2
:104280000D0DF9D0640006D3013000D30131002CAC
:1042900001D140084000013A0BD4941CE40A04D137
:1042A00012051144DB071944F0BDD907204B19430F
:1042B00000E0D9070020F0BD0029DDD1002CDBD1C2
:1042C000F0BD0132C6074008CD0728434908002E3B
:1042D000E1D0D9E73C2E29DA203E40371400BC401B
:1042E00000D00124F24014431A00BB401C43D317F2
:1042F000ACE7AC46202F08DA20360400B4400D00AD
:10430000B540F84039412843A5E73C2F0CDA203F5F
:1043100040360400B44000D00124F84004430800B3
:10432000B1400C43C117EAE710001900002494E7DC
:104330000000F07FF0B50C0D661E3605891BE60AFD
:104340006405640D02D0651CED0A04D00020012133
:104350000905803C2403A4461C0D671E3F05DB1B9A
:10436000E70A6405640D02D0651CED0A04D0002242
:1043700001231B05803C24037740644497B484B236
:1043800096B27443070C7E43150C6F4380B26843AA
:10439000361802D3012000043F183004350C0019F0
:1043A0007D41844688B29AB250430C0C62431F0C84
:1043B0007C438EB27E43921902D301263604A4199F
:1043C0001604170C3618674101BC81B29AB25143EA
:1043D000040C62431B0C5C4380B25843121802D396
:1043E0000120000424181004130C401863412D18F8
:1043F0005E410020474106BC88B293B258430C0C82
:104400006343120C544389B251435B1802D3012118
:104410000904641819041A0C091862416D185641F0
:104420000020474118BCF902720D1143F0026A0DD9
:104430001043ED020A0D03D16D1940414941013B82
:10444000124E9B1B7600B3420ED26D0007D3013093
:10445000002671416646354301D1400840001B05E6
:10446000C918E4072144F0BD0BDA013306D101304D
:1044700004D101314F0D01D04908F2E7E1070020D6
:10448000F0BD013631050020EBE70000FF0300001E
:10449000F0B51C0D671E3F05DB1BE70A6405640DC4
:1044A00002D0661CF60A04D0002201231B05803CC2
:1044B0002403D0252D060026F6432E661E096E66BF
:1044C000CE0FF619B44649004F0D02D07E1CF60AF5
:1044D00003D000200021403F3F033E1BB600B44400
:1044E000013F7F05C91B49082E6F013676089C02E3
:1044F000950D25437543ED137543AD1301356D10CF
:10450000F603761B0CB4CC02450D2C43A2B2B3B219
:104510005A43270C7B43350C6F43A4B26C431B19E1
:1045200002D3012424043F191C041D0CA4187D414E
:1045300024196D41009A91B2ACB26143170C7C43CF
:104540002B0C5F4392B25A43A41802D301221204E7
:10455000BF182204230C52187B41019C6C431B1989
:10456000520ED9010A434401A01A81B2B2B251439A
:1045700003145A43360C734387B27743D617D219C4
:1045800000277E4136049B191704160C7F185E41E4
:104590007316ED18F301002680337541A90F06D17B
:1045A0006400690AE8055B0A184309D22FE0042277
:1045B000944480337541A90AA8059B0A184326D361
:1045C000404149412404009A019B0D005543641B5E
:1045D0004343E41A95B286B27543170C7E43030C2D
:1045E0005F4392B25A43B61802D301221204BF1895
:1045F0003204330C52197B4152429C41002C02D4AC
:104600000022013051414008CA071043490802B056
:104610006246D7079210084BD218084B9A4203D231
:1046200012058918C919F0BD0020002A01DC3900E3
:10463000F0BD01331905F5E7FD030000FE0700009A
:10464000002200B5203200F004F8080000BD000090
:1046500000220B150AD410B5944600F05FF814142C
:10466000013400DA0021CB17144C20470020002130
:1046700070476244343A0CD40C2A07DA04009140A3
:10468000904052422032D440214310BDD843D943F8
:1046900010BD203207D40C469440524220321141C2
:1046A000D040204310BD0800C917203203D4524225
:1046B0002032104110BD1800190010BD73460010C3
:1046C0004A00520D144BD21A13DDFF2A1EDAD2050E
:1046D000CB0FDB071A43C300400F0903490A084305
:1046E00010435B0001D301D0013070474308FBD277
:1046F000704702D0C80FC00770470A031213013277
:10470000F8D1420F072AF5D1012200E0FF22C80F9D
:1047100000028018C0057047800300000A0DCC0F0E
:10472000531E1B05C91A520503D3C943404200D387
:104730000131520D03D0531CDB0A07D0121B00209D
:104740006400611C89078912803A1203014BD21A56
:1047500070470000FF03000051434343C9188C46D3
:10476000110C83B24B4310B4040C614392B280B27B
:10477000504362431C041B0C001910BC5941130424
:10478000120CC0185141614470470000484041403C
:1047900048400E4B5B6818470C4B1B6818470C4A87
:1047A000936F9B0802D2094BDB681847F0B5146E73
:1047B000556E576F166FFFF7F6FF054A146655667C
:1047C00057671667F0BD014B9B681847283A0020D1
:1047D000000000D007B548404140484001E0C046D5
:1047E00007B54200120E03D0FF2A03D1420218D8A7
:1047F000C00DC0054A00120E03D0FF2A03D14A02A1
:104800000FD8C90DC9050122414005D4414001D549
:10481000814207BD884207BD0143491801D0C0430A
:10482000001807BD00B5FFF7DBFF804100BDC046A3
:1048300000B5FFF7CFFF804100BD491A002807D11E
:1048400008467047C10FC90700D54042002817D05D
:10485000F44603B40B4B1B68984706BC81409E3856
:104860004042803107D20B0607D04900490AC005F3
:104870001043084360470130F8E7490A8902F5E729
:1048800070470000645A002041000A0E80231B0676
:104890007E2A0BDD9E3A0BDAC1174002400818430E
:1048A0005242D040490001314843704700207047D0
:1048B000C00FC01801387047C0420DD300B540008A
:1048C0004008002100F012F8002801D4404200BD49
:1048D0008020000600BD0000034BDB69FC46184742
:1048E0001CDF9D4900100000283A0020014B5B6A44
:1048F00018470000283A0020034BDB6FFC4618479E
:104900007CDFB54900100000283A0020132310B5C1
:1049100012481C78FEF774FF0100012C0AD003DD59
:1049200080220F4800F09AF80E48FEF761FF0E4B08
:10493000186010BD0A4C5422200000F08FF80B4B79
:104940006365A365E36523666366A366E366236721
:104950006367A367E3672362E361E5E7534600000B
:10496000283A00204C330000645A0020714900109E
:1049700007B5604601880A0A0230DF2AFAD1C9B2B7
:10498000820804D3028840880004104300E00068D5
:10499000014A5050039007BD283A00200021C2155B
:1049A0008032803201D0024A104700207047000058
:1049B000CD2A0000C30FDB0741000A0E07D0FF2AF3
:1049C00008D00909054A891819434007704719009A
:1049D000002070470249C918FAE7000000000038BB
:1049E0000000F07F70B504000A4E300016F04CF95C
:1049F000200012F0D1FC0500300016F07DF8002DEB
:104A000005D0054B2C199C4201D8280070BD0348E5
:104A1000FDF7EAFC6C32002000000420C4B0011055
:104A200070B50400054D280016F02EF9200012F094
:104A3000BDFC280016F060F870BDC0466C32002046
:104A400001480421014B1847B02A002011380010FA
:104A5000014B1B6818470000B02A0020014B5B681F
:104A600018470000B02A002010B5FFF7BBFF10BDAB
:104A700010B5FFF7D5FF10BD10B5FFF7D1FF10BD82
:104A80009A4200D2885470477047C046F8B55746DE
:104A9000DE464E464546E0B599460A9B07009A46D3
:104AA0000D9B884693460B9C9B073BD10C9B9C42DD
:104AB0003DD21E1B0B9415000C005E442A004B4691
:104AC000013521002020B847B542F7D1A0460B9C04
:104AD000002C20D0454636195346321B013C185D48
:104AE00029004B46B847002CF6D12B0035009846DC
:104AF0000D9B9B070FD55B46EC1A0C9BA3420AD972
:104B0000464698462A004B46310020200134B847DB
:104B100001354445F6D32800F0BCBB46B246A94651
:104B2000A046F8BD16001500002CD3D1E0E7160012
:104B3000002CCFD11500EEE7F0B54F464646D646DD
:104B4000C0B584B098460EAB1B7894469946129B2C
:104B50000D9C109F119E9A0725D4002E65D1BC4252
:104B600021D201221A409246202C00D1E9E00C9A71
:104B7000551E302202E0202C00D17BE001342A5562
:104B8000A742F8D85246002A0DD0B4420BD20C9A54
:104B9000551E3022202C02D171E0202C2DD0013462
:104BA0002A55B442F9D1DA063CD55A052ED4002C48
:104BB00028D10F9A102A00D1B6E0022A00D1BCE019
:104BC00030220C9C227001244A46002A65D15A07E3
:104BD00000D499E02B220C9D2A55013403930C9BA1
:104BE00062460093029643460194FFF74FFF04B0DC
:104BF000E0BCBA46B146A846F0BD2024DA06EDD5A1
:104C00005A0503D4A74266D0B44264D00F9A102A42
:104C100071D0022A57D0202CE0D022000134302558
:104C20000C9FBD54202CD9D0CEE7012215001D4089
:104C3000AA461A4236D04A46002A4AD10C321A42B3
:104C400047D1BC42A1D2202C91D1202E17D82024AC
:104C5000DA06C3D55A051BD4202F01D0202ED5D17A
:104C60001F220F9D102D6FD0022DD8D162250C9FD1
:104C7000BD54D0E75246002A79D0202EBDD9202439
:104C8000DA06ABD55A0503D4202FE9D0202EE7D081
:104C90000F9A102AA2D12024A0E72D220C9D2A557C
:104CA00001349BE7BC4200D37DE7202C00D05EE7B7
:104CB000DA06F0D55A05EED4202F62D0202EEAD1A4
:104CC00034001F22CDE7202C00D187E722000134D9
:104CD000CCE7013EB5E7621E012CC2D10F9A102A23
:104CE00000D06AE79A063BD558220C9C2270283ADD
:104CF0006270022468E79A060ED4202CCBD078226A
:104D00000C9D2A55013486E71A0700D466E7202255
:104D10000C9D2A55013461E7202CBCD058250C9AF3
:104D200012191570013476E79A0608D558220C9CA2
:104D3000227030226270022446E76032F7E7782260
:104D4000F5E7002A83D1B3E7A21E013C9D0603D4F8
:104D500078250C9FBD5460E758250C9FBD545CE737
:104D600078220C9C2270483A627002242CE7DA0602
:104D700000D433E75A058BD4202F00D044E71F22FC
:104D80006FE73C001F226CE710B5002800D110BD72
:104D900001F02AFCFBE7C0460B0010B5002802D04A
:104DA00049681B68984710BDF0B557464E464546C2
:104DB000DE46E0B599B08246894690460893229A2D
:104DC000239B10001900FFF732F9002800D0CDE036
:104DD000229823990122D94B5242FFF723F9002848
:104DE00000D0C3E0229823990122D54B5242FFF70D
:104DF00003F9002800D0B9E022982399002200236B
:104E0000FFF7FAF8002800D0F1E1229E239F8023CB
:104E1000269ADB001A400D92269A1A4201D10623E7
:104E200024938023269A1B011A403B00934609963F
:104E3000334300D0B3E0002A00D0C2E100230024B5
:104E40000A930B94002304250993259B0024AB426D
:104E500000D95C1B0223269A1A400C92269A134210
:104E600003D06B426B415B421C40099B002B07D077
:104E70000A9A0B9B30003900FFF755F806000F0027
:104E80002298239900220023FFF7B6F8002803D0C8
:104E9000802109067B181F00269AAA4B00960197CD
:104EA0001340089E0493249B0394029342463300CC
:104EB0004946504600F0AAF90400002D67D0202092
:104EC000269A4946024013005A4253415B42621CF3
:104ED00018400A92330022004530D047099A6F1ECD
:104EE000D317D4185C40D30F9B46002501E0202D3A
:104EF00013D008AA94461F23200063440A210135D9
:104F00005E19FEF7C3FD3031317020000A21FEF733
:104F1000BDFD26000400092EE9D8052306930023D1
:104F200004930A3303935B46089E029310AB0A9ADC
:104F3000009349463300504605970195FFF7FCFD65
:104F40000C9A0400002A22D04246851A259AAA42C9
:104F50001DD9B04657461600220043464946202038
:104F60000135B8470134AE42F6D810E0269B4246E0
:104F70000493259B49460393249B50460293229B0E
:104F8000239C00930194089B00F040F9040020004A
:104F900019B0F0BCBB46B246A946A046F0BD6A4B6C
:104FA00078009C46400D6044FFF752F8674A684B12
:104FB000FEF7D7FF674A684BFEF7ACFF674A3B0333
:104FC0001B0B1A4304000D0009981100644B0022CA
:104FD000FEF797FF634A644BFEF7C3FF02000B0026
:104FE00020002900FEF796FFFFF74AF80990FFF727
:104FF0002FF85E4A5E4B04000D00FEF7B2FF002260
:105000005C4BFEF787FFFFF73BF85B4A5B4B2900E1
:105010000C902000FEF7A5FF04000C980D00FFF790
:1050200017F8574A574BFEF79CFF02000B00200071
:105030002900FEF766FF04000D0002000B000A9431
:105040000B95FEF78EFF04000D000A980B990200E5
:105050000B00FEF75FFF00220E900F914A4B2000DD
:105060002900FEF760FF0022484BFEF753FF0200C5
:105070000B0020002900FEF756FF0022444BFEF7EC
:1050800049FF02000B0020002900FEF74CFF0A9A9E
:105090000B9B0D0080210400C9050020FEF731FFA5
:1050A00002000B0020002900FEF734FF02000B0075
:1050B0000E980F99FEF737FF0022284BFEF72AFFC4
:1050C000344B0C9C9C46644423050022FEF749FFA8
:1050D00004000D0002000B00300039000A940B950B
:1050E000FEF78AFF00285DD123002A00C625099912
:1050F00063318D42AD4159466D420435002900D1DE
:10510000A3E6134363D030003900234A234BFEF754
:1051100081FF002807D0002230003900204BFEF725
:105120006BFF002853D1249B002B00D18DE60D9BF3
:105130005A1E9341249AD31A249386E6FFFFEF7FE9
:10514000FFFFEFFFFFF7FFFF01FCFFFFFB799F5021
:105150001344D33FB3C8608B288AC63F0000F03F9A
:105160000000F83F61436F63A787D23F71A37909BD
:105170004F930A400000E03F1655B5BBB16B0240AB
:10518000EF39FAFE422EE63F00002C40000024409A
:1051900000001840FF0300002D431CEBE2361A3FCD
:1051A00080842E41099B0022013B09932000164B6D
:1051B0002900FEF7B8FE0A00010003000A910B92D5
:1051C00094E7002300240A930B9400230993249A64
:1051D000099B9A4214DDD31A013B24938023269A1B
:1051E000DB001A4300230025269209932DE6802236
:1051F00012069446229B1E00239B63441F0006E672
:1052000000232493EAE7C04600002440F0B5454659
:10521000DE464E465746E0B595B08B4690469946D9
:105220001E9A1F9B0A9019001000209DFEF7FFFE9A
:10523000002800D0B0E11E981F990122C74B5242AE
:10524000FEF7DAFE002800D037E11E981F990122F0
:10525000C34B5242FEF7E6FE002800D0A7E01E989E
:105260001F990022BF4BFEF7DDFE002800D088E02A
:105270001E981F990022BC4BFEF7BEFE002800D0EE
:105280007FE01E981F9900220023FEF7B5FE00283C
:1052900000D0FAE000230B938023229C229ADB00AB
:1052A0001C401A4200D102E1092D00D87CE106A978
:1052B0008C462C00172200233021093C6244013324
:1052C000D154EF1A202B00D132E1A342F7D10022B2
:1052D000A44B069207931E981F99FEF7D1FE050076
:1052E000FEF7B6FE02000B001E981F99FEF709FE9E
:1052F000069A079BFEF735FE08900991FEF7E4FE3B
:105300000600FEF7A1FE02000B0008980999FEF7BF
:10531000F8FD0022954B08900991FEF783FE0028C6
:1053200000D1D2E001363000FEF78EFE069A079BD0
:10533000FEF770FE002801D000260135AA46002F96
:1053400000D098E02800FEF783FE02000B001E98B4
:105350001F99FEF7D6FD854B002206000F00FEF7D1
:105360004BFE0CAB9A46002845D100223000390094
:105370007E4BFEF757FE00283DD1EB073BD50135AC
:1053800039E0229B42460493219B594603930A9895
:105390001E9B1F9C0295009301944B46FFF704FD52
:1053A00015B0F0BCBB46B246A946A046F0BD229B54
:1053B0005B0767D403226E4B2299019203912199D6
:1053C0000291009342464B4659460A98FFF75EFB0E
:1053D000E6E706AA94461723280063440A2101340D
:1053E0001E19FEF72BFB3031280031700A21FEF721
:1053F00025FB051E76D0202CEBD10323229A1340E7
:10540000012B1DD1219B002B1AD00B9B002B00D010
:10541000BBE0229A0C33134200D0B6E0219BA3429A
:1054200000D887E006AB9C4617223023624404E094
:105430002199013413558C4259D0202CF8D12024C5
:10544000229B01940393219B02935346B9E706AA3A
:10545000944617230A216344300001341D19FEF7D6
:1054600015FB3031297030000A21013FFEF70EFB99
:10547000092E46D90600202CE9D155460CAB202434
:105480009A46B8E704223B4B96E71E9A1F9B0020E2
:105490000021FEF736FD01230B938023229C229AE4
:1054A000DB001E901F911C401A4200D0FCE6002237
:1054B000314B0627069207930DE7229B0393219B0E
:1054C0000293042301932D4B7BE70022089809994E
:1054D000264BFEF791FD002800D02FE7002E4FD17C
:1054E00001362BE70323229A1340012B66D0202C90
:1054F000A6D00B9B002B1FD02D23524613550134F1
:105500009EE75546202CB9D030233A19002F08D0F9
:10551000172006A9013409180B55202CAED094424F
:10552000F6D10CAB9A462E2352461355013462E74E
:105530002024CCE6202C83D0229B5B0708D4229B1E
:105540001B0700D47CE7202352461355013477E72C
:105550002B2352461355013472E7C046FFFFEFFF7D
:10556000FFFFEF7F65CDCD4165CDCDC10000E03FB0
:1055700020B1011018B1011080842E4128B1011012
:10558000F30700D4DAE60136D8E6219B013B2193EC
:10559000A34200D946E7AAE7229B0393219B0293EB
:1055A00003230193074B0CE7074BEA009B185C6849
:1055B0001B682F000693079400248CE6219B002B88
:1055C00095D022E724B10110D0BD0110F0B55746A7
:1055D000DE464E464546E0B5A5B01F002E9B9146DF
:1055E0000D93CA4ACA4B82468B461A60002900D1E5
:1055F00029E2002338789846002800D12BE2C54BD9
:1056000044460C93C44B55464E460E930AE0631C29
:105610009846220033005946A84744463878002867
:1056200000D187E001372528F1D108239A46043BB1
:105630009946023B9846013B00229C460B943878E1
:10564000791C0300203BDBB2102B03D80C9C9B0081
:10565000E3589F460300303B0B9C0B92092B3AD931
:10566000002398462A2800D1DDE000239A462E2800
:105670004BD00300683BDBB2122B1ED80E9A9B0066
:10568000D3589F4663460F001A43D8E743460F009E
:105690001A43D4E74B460F001A43D0E710230F00FC
:1056A0001A43CCE753460F001A43C8E780235B0038
:1056B0000B9A78781A430B9201310F0067284FD864
:1056C0002428A4D90300253BDBB2422B9FD8934961
:1056D0009B00CB589F46002398460B9B47469C4611
:1056E00000E00131BB00DB195B001F180878303F78
:1056F0000300303B092BF4D963460B930023B846D3
:105700009A460F0001312E28B3D180200B9AC00099
:1057100002430B9230225242944678780B00844424
:105720006246092A00D8AAE12A2800D1B9E10F006F
:1057300001319EE7A046AA46B146C84503D30123DE
:105740005B424B4498464B46424659460020D04760
:10575000200025B0F0BCBB46B246A946A046F0BD2D
:1057600001006939C9B20F2900D950E701238B40E4
:105770009C466B4B994663464A4613400F936246DC
:105780004B461A4200D068E10A2956D0072900D0BA
:105790003DE70D9B02CB9846002900D092E10B9B80
:1057A00010211A008A4310001131084381468020DD
:1057B0001A00C0000240110003421CD114AB9C46E9
:1057C0001F220F2362440D959C4615000F9B0B94DE
:1057D00002E0202B0CD0110064460C402000373032
:1057E000092C00D807380133E8540A090F29F0D8EA
:1057F0000B9C0D9D0F934B46082206935346059232
:1058000008320392002204930F9B029201931CAB77
:1058100022000093594633002800FFF78DF94346D4
:1058200004000D93FAE60D9B04CB9046002A79DB29
:1058300078780D930F00013117E70D9B02CB14937D
:105840000B789C4618005346002B00D134E1002809
:1058500015D05346013B013399460D940B9C894466
:105860004A460B00A14601E0934203D05C78013325
:10587000002CF9D14A465B1A0D9C0B920F938023A2
:10588000DB0099460B9A13400D934B461A4204D005
:105890000F9B534501D953460F93022399460B9A08
:1058A00013400B934B46134200D1F5E16346002BA6
:1058B00000D1D6E10D9B002B00D182E10B1BD1461C
:1058C00031009A463B00A1442E005F464D4622001F
:1058D0009B46894609E04B463900541CB047534665
:1058E000185D002800D192E122009542F3D14B4689
:1058F0005A46A946BB46350017001E004C460B9B76
:10590000002B00D0ADE1149B0D9387E6CD55001020
:10591000145A002034BC011078BC0110C4BC011022
:10592000419000000B9A283802430B9242465242A3
:10593000787890460F000D93013196E678786C28C0
:1059400000D15DE180230B9A5B001A430B92013179
:10595000B3E680239B00ABE67878682800D148E165
:1059600080230B9A01311A430B92A6E6672800D1D7
:10597000B2E0472800D11AE1452800D11CE10B9A7A
:105980000721049242460D9B0392073352468B43F4
:10599000190002920CC92800009201930D91220077
:1059A00033005946FFF700FA040037E6462800D1D5
:1059B0008DE00B9A0721049242460D9B0392073318
:1059C00052468B43190002920CC9280000920193A1
:1059D0000D91220033005946FFF718FC04001DE624
:1059E000631C98462200330059462520A8474446A8
:1059F00014E60D9B04330F93631C99460B9B9A0787
:105A000000D40AE10D9B2200187859463300A847BC
:105A100043464444012B00D86FE1B0462E002500D8
:105A20004C46B9465F4622004346013439002020E7
:105A3000B047AC42F7D12C00BB4635004F46464636
:105A40000F9B0D93EAE5D64B38789A46002398468B
:105A5000002800D0D3E500246FE66F2842D000D89C
:105A6000FDE11023782800D19BE00B9A9A430B921A
:105A70000A239C46002314930A330F9338E05746B9
:105A80000B9AB900C919490001330F181878303F33
:105A9000010030390929F4D9BA460B921F00591C6C
:105AA000E7E50D9BB87804CB0237D143C9170A400C
:105AB00092460D93791CDCE5002800D1DFE6022335
:105AC0005B42C8E621200B9A0243914676E62023EA
:105AD0000B9A1A430B926CE780230B9A1B011A4313
