:020000041000EA
:1000000000B5324B212058609868022188439860DF
:10001000D860186158612E4B002199600221596106
:100020000121F02299502B49196001219960352056
:1000300000F044F80222904214D00621196600F024
:1000400034F8196E01211966002018661A6600F04E
:100050002CF8196E196E196E052000F02FF8012189
:100060000842F9D1002199601B49196000215960AB
:100070001A491B48016001219960EB211966A021F2
:10008000196600F012F800219960164914480160C1
:100090000121996001BC002800D000471248134993
:1000A000086003C880F30888084703B5996A0420EC
:1000B0000142FBD001200142F8D103BD02B5186610
:1000C0001866FFF7F2FF186E186E02BD00000240BE
:1000D000000000180000070000035F00212200005C
:1000E000F4000018222000A00001001008ED00E03C
:1000F00000000000000000000000000074B24E7A12
:1001000000200420F7010010C301001051BF0010AF
:10011000C1010010C1010010C1010010C101001097
:10012000C1010010C1010010C1010010C701001081
:10013000C1010010C1010010C9010010CB01001065
:10014000CD010010CD010010CD010010CD01001037
:10015000CD010010CD010010CD010010CD01001027
:10016000CD010010CD010010CD010010CD01001017
:10017000CD010010CD010010CD010010CD01001007
:10018000CD010010CD010010CD010010CD010010F7
:10019000CD010010CD010010CD010010CD010010E7
:1001A000CD010010CD010010CD010010CD010010D7
:1001B000CD010010CD010010CD010010CD010010C7
:1001C00000BE00BE00BE00BE00BE00BEEFF3058054
:1001D000103800BEF2EB88715C1205108012051019
:1001E0003802001090A31AE71E481F49086006C88D
:1001F00081F3088810471D480068002801D019487D
:10020000F3E70DA40ECC002902D000F012F8F9E7B4
:100210001749184A002000E001C19142FCD116495B
:100220008847164988471649884700BEFDE701C937
:1002300001C29A42FBD37047801205104001002092
:10024000A82E0020E83F0510000004200000042034
:10025000E83F0510001004200010042000000000FA
:10026000704700000000000008ED00E0000000D032
:10027000A82E0020F0620020914A00105D080010B6
:10028000554A0010F8B5C0460448054B10B58342E6
:1002900003D0044B002B00D0984710BDA82E00209F
:1002A000A82E00200000000006480749091A8B10FC
:1002B000C90FC91810B5491003D0044B002B00D04A
:1002C000984710BDA82E0020A82E00200000000096
:1002D00010B5074C2378002B09D1FFF7D5FF054B4C
:1002E000002B02D0044800E000BF0123237010BDA2
:1002F0007032002000000000F4490410054B10B5D6
:10030000002B03D00449054800E000BFFFF7CCFFF5
:1003100010BDC0460000000074320020F4490410F3
:10032000F0B54E46DE4657464546E0B5914B93B094
:100330001C689946E30F0393E317E41804905C40AC
:10034000092C00D8FCE0632C00D8A7E0FA239B001E
:100350009C4200D205E1884B9C4200D804E1874BC7
:1003600020009846864B01269A46864B864F9B4630
:1003700008E0454500D8ACE0554500D8BDE05D45F6
:1003800000D8BDE08149050001F092FF310004363C
:10039000BD42EED8CD1C0CAB9A46039F0EAB2D226E
:1003A0005046B91905930C9329F06AFC0C9A3B004E
:1003B0009446634403939C46754B6E1E98466E4B61
:1003C00066449B462000642101F072FF20004D002E
:1003D000642101F06DFF43465B195B782700737061
:1003E00043465B5D04003370023E5F45EAD8FA2362
:1003F0009B009F4264D23034E4B25246039B1C708F
:100400005268644B9A4200D1B1E0012250466249E1
:1004100029F04AFE060008AD069503680836040078
:10042000B34200D186E0069383680893636807931C
:1004300000232660636023720C98059B984204D0C9
:1004400053469968013102F06DFF4B461B68002B43
:1004500059D06E26092B00DC0636049A4F4C904684
:100460004F4B6E21200000930123069F00F0AAFC51
:1004700042462000012331000832009700F0A2FC20
:100480000698A84203D00899013102F04BFF13B03F
:10049000F0BCBB46B246A946A046F0BD0CAB9A469E
:1004A000039D0EAB2D225046A91C05930C9329F0F9
:1004B000E7FB0C9A2B00944663440393344B984615
:1004C000434664001B195B78039A537043461C5DD6
:1004D00093E7039D0CABAC469A4605310EAB6144E5
:1004E0002D22504605930C9329F0CAFB0C9B9C4689
:1004F00065440395039B35005DE78E1D4D1D4AE75E
:10050000CE1D8D1D47E7254C254B049E6E213200E4
:1005100020000093012300F055FC3200214B200005
:10052000009374210123083200F04CFC0698A84285
:10053000A9D1ACE710223100280002F0DDFE75E7FA
:100540000CAB9A46039D0EAB2D225046691C0593B9
:100550000C9329F095FB0C9A2B009446634403936B
:1005600049E70225032616E70325042613E70E486C
:100570001EF078FF505D00200F2700003F420F0063
:100580007F969800FFE0F5059F8601001027000088
:10059000C04A0410FFFFFF3F544A0410A462002029
:1005A000584A04105C4A0410384A0410002310B55D
:1005B000214C82B02372214B4022009380213C23A6
:1005C000200000F051FB002832D0200000F0F2FBA8
:1005D0001B4B0222002120000093022300F0F2FBBB
:1005E000184B1422002120000093012300F0EAFBA5
:1005F000154B1E22002120000093012300F0E2FB96
:10060000124B2D22002120000093012300F0DAFB81
:100610000F4B3722002120000093012300F0D2FB72
:100620000020FFF77DFE200000F000FC02B010BDAE
:10063000084804F001FCF9E7A46200208C230020A4
:10064000604A0410684A0410804A0410984A041052
:10065000A84A04100C4A0410F0B5C64600B504F0D0
:100660009BFBFA20800001F0A9FA1A2000F0B0FCF0
:10067000D02480232406DB0463626849684807F0BD
:10068000D9F803210C2000F039FC03210D2000F0E3
:1006900035FC002201210C2000F04AFC002201213F
:1006A0000D2000F045FCFFF781FF172000F090FCC3
:1006B00080231B04A36201220021172000F038FCD4
:1006C000182000F085FC80235B04A3620122002136
:1006D000182000F02DFC07F0E1F81F211D2000F08C
:1006E0000DFC002200211D2000F022FC00211D2015
:1006F00000F05AFC0421002000F000FC494D4A485B
:100700002A6893009B18494A9B009918484A181870
:100710004A60FF220A61474A9A1812681204120CB2
:1007200002600122096804208A4343498C466344DD
:100730001A6000F04DFC10236362042404E0D0230F
:1007400080221B06D2045A61D0231B065A68D201AC
:10075000F5D45B681B02F2D4C02338499B010A68B8
:1007600080265340E022D2011340354A0020136016
:10077000FA22344F920076003C600B683342FCD082
:100780004B68013A1B041B0CC018002AF4D1D02678
:1007900080233606DB047361984602F06BF8002272
:1007A000294B01F0D2FF294A294B01F0ECFF00222E
:1007B000284B01F0C1FF02F075F887003F187F0059
:1007C000380001F0FBF943463800B36101F0F6F957
:1007D00073681B02B8D51027FF212A687761930040
:1007E0009B18144A9B009A1812681B484A400E49ED
:1007F00012048C46120C63441A6001F0DFF90A49B6
:100800002A688C4693009B180A4A9B00B7619A1885
:10081000126863441204120C1A6095E7801A0600ED
:100820008C230020D86200200C10054000000540F9
:100830000D0300000C0005400010054000C00440FE
:1008400000D0044000E0044000408F40C3D32B653B
:1008500019E2983F0000F03FB80B000010B5FFF719
:10086000FBFEC04610B516480CF0F0FA01F042FA53
:10087000144B1860596001F03DFA134B1860596031
:1008800001F038FA114B1860596001F033FA104B3F
:100890001860596001F02EFA0E4B0F4A186059602B
:1008A000002313600D4A136001F024FA0C4B18600A
:1008B000596001F01FFA0B4B1860596010BDC0461B
:1008C000444900204830002068300020503000208B
:1008D0005830002040300020D8620020545E0020B4
:1008E00060300020A82E002001207047002801D190
:1008F000014870470020FCE7781F0020F0B5C6468D
:1009000000B588B0984602AB17001A00104C8C4610
:1009100022CC22C215000F4C43CC43C221780E4C8E
:1009200011700E4A604601920821220003F0D0FFA8
:100930002B0022001021380003F0CAFF22000421FE
:10094000404601AB03F0C4FF08B080BCB846F0BD20
:10095000904B0410984B04108C4B0410312E300037
:1009600010B50BF033FC032303405A425341D8B275
:1009700010BDC04670B504000D0016000BF026FC3B
:10098000830705D000232B6080239B00338070BD3C
:100990002A00012120000BF091FC0028F2D1F3E79E
:1009A00070B51C000125002B05D0002A05D00021C0
:1009B0001500084B1970280070BD002200210BF0B3
:1009C0007DFC002803D1034B1D702500F3E70025B3
:1009D000F1E7C046EB62002070B51D000D4B04002E
:1009E0001B780E0082B0002B11D10BF0EFFB8307B8
:1009F0000DD1069B32005B0A0093290000232000E2
:100A00000BF004FC002802D1069802B070BD012052
:100A10004042FAE7EB620020074B10B51A7800233A
:100A2000002A06D10BF0C6FB0123800858400123A1
:100A30000340180010BDC046EB62002070B51D00D9
:100A40000D4B04001B780E0082B0002B11D10BF06F
:100A5000BDFB83070DD1069B32005B0A0093290082
:100A6000002320000BF0FEFB002802D1069802B004
:100A700070BD01204042FAE7EB62002010B5002370
:100A80002022052105F06AFE0120404210BDC0462B
:100A900000487047EC4B041000487047004C0410AD
:100AA00070B5002826D0052831D81A4B8000C658CA
:100AB000300039F073FBC0B2011C1F2815D8C9B231
:100AC000002821D00023144DAA1CF05C0133DCB2B5
:100AD00010800232A142F8D8C0230131C9B24900C6
:100AE0009B0019432800298070BD1F21C9B200282E
:100AF000E8D109E0084D074B02221968A81C02F052
:100B0000FBFBC1218900EDE70449034DEAE7002022
:100B1000EAE7C046A42200202C4C0020020300007B
:100B2000F0B54E464546DE465746E0B58FB01E004E
:100B3000019318AB20CB0B91197807230C912978DE
:100B400006950B405C1EA341C90859186B780791A4
:100B5000002B00D181E000297FD0013A0D920122C3
:100B6000F1009246089106320021934604000A9152
:100B70000A98069A84460C99D2788A1A53430199A6
:100B8000079A634453430A0042430B980533844653
:100B9000624402928C460A000993534600210D9844
:100BA0009B1A6044049003910593099A069B94460E
:100BB000039A63449B5C019D984608239C46029BD4
:100BC000049F99464D442B00454698460AE06346EB
:100BD000013BDBB29C46019B6D08994663464F443E
:100BE000002B27D053462B42F1D0059B9946019B01
:100BF000B944002BEBD0029923784A468B4215D991
:100C0000607882420CD2D008434358465646104082
:100C100086403000E6685B18F65C3043E668F054C6
:100C2000BA4203D0237801328B42E9D801314145E1
:100C3000E2D1CCE70899049A8C46039B6244049263
:100C4000079A013303939A42AFD10A9A069B013265
:100C50005B78D2B20A929A428AD30FB0F0BCBB46FC
:100C6000B246A946A046F0BDF0B5DE464E46454622
:100C70005746E0B58BB01F00149B06009B46D3B2CD
:100C8000737015009846D3085A46C8B2DBB230706C
:100C90005843B3703061F77072600130894602F0DA
:100CA000EFFAF060002800D174E03B4B03AC0393F3
:100CB0004346013B2371D32363718023DB01E3802F
:100CC0008D232372337A0130F060002B48D1142336
:100CD0006372324B6D006381DA232373A94551DDC2
:100CE00002236373813BE3815933FF332374183349
:100CF00063742B4B02AD63822A4B08930023237647
:100D000025336B449A46284B9846284B99460BE06E
:100D1000431C03D14146264804F018F901345445D8
:100D200016D07368F7789B46002322782B706A7080
:100D3000390000932A000233584606F0A5FD831CB3
:100D4000E6D141464846013404F000F95445E8D163
:100D500001200BB0F0BCBB46B246A946A046F0BD90
:100D6000102363720D4B6D006381DA232373A94551
:100D70000CDCC83B6373913BE3815933FF3323742D
:100D8000B73BB5E712236373913BACE70223637370
:100D9000813BF1E73061DCE7AED580A8A1C8FFFF59
:100DA000DB300000A4A6AF20644C0410944C041067
:100DB000744C0410030010B50021C0681A6902F0D9
:100DC00095FA10BDF0B54E4645465746DE46E0B5AD
:100DD00083B00C9D81462C78924698460E00002CDC
:100DE00016D05F00104B47449B467F002300203BFA
:100DF00001355E2B13D85B463100019400935246B7
:100E000043464846FFF78CFE2C78F619002CEDD1AE
:100E100003B0F0BCBB46B246A946A046F0BD2C7854
:100E2000F619002CE2D1F3E7B44C0410F0B5CE462D
:100E30004746212380B5027887B004AC511E237049
:100E4000A170002322216370E17023718378060072
:100E5000013B6371402A03D1202363703F33A370A9
:100E60001627224B6F449846214B03AD994608E064
:100E7000431C03D141461F4804F068F80134A742DF
:100E800013D0002322782B706A70F17800932A0027
:100E90000233706806F0F8FC831CE9D141464846ED
:100EA000013404F053F8A742EBD140220024F36848
:100EB000013B1A703369F2680133F1787068013AC6
:100EC000009406F0E1FC831C0AD0431C03D10A49BC
:100ED000084804F03BF807B0C0BCB946B046F0BDC6
:100EE0000549034804F032F8F5E7C046644C0410A5
:100EF000944C0410744C0410A44C041010B54024FD
:100F0000084A83009A181268C0005440C022224048
:100F1000054CA44663441A60044B9C4660444160FF
:100F200010BDC04604C0014004D001400040014053
:100F30000B4B80009C46604400290ED100230431F5
:100F4000002A00D1190080220368520159409446BA
:100F50000C2360440B40036070470C210823EFE72B
:100F600004C00140054B8000C3181B684B400121A1
:100F70001940034B9C4660440160704704C0014027
:100F800004D00140064B8000C3181B68090159407A
:100F900030231940034B9C46604401607047C046B3
:100FA00004C0014004D001408000002905D0064B58
:100FB0009C464023604403607047044B9C4640239A
:100FC00060440360F8E7C04604E0014004F00140DB
:100FD0000123D02283404021120693629361094A83
:100FE00083009A181268C0005140C0220A40064986
:100FF0008C4663441A60054B9C460523604443605D
:101000007047C04604C0014004D001400040014088
:101010004021094A83009A181268C0005140C0223A
:101020000A4006498C4663441A60054B9C461F23C0
:10103000604443607047C04604C0014004D0014092
:10104000004001400FB400B5084883B003F0F4FE3F
:10105000049B002B07D005A91800019103F08AFC1E
:10106000034803F0E9FE012003F09CFC944E0410B9
:1010700050590410EFF3108072B6034A1368002B26
:10108000FCD0BFF35F8F70472C0100D0BFF35F8FA0
:101090000022024B1A6080F3108870472C0100D0A8
:1010A00070B5EFF3108C72B60D4D2B68002BFCD091
:1010B000BFF35F8F0724CB08C618C05C01230C4028
:1010C000A3401C000440034207D103433370BFF325
:1010D0005F8F2C608CF3108870BD1000FFF7B2FF9B
:1010E0002C0100D0F8B54746CE46884680B5EFF3D0
:1010F000108C72B6214D2C68002CFCD0BFF35F8F92
:101100009A422CD8D4080727055D061901241740F8
:10111000BC402C421FD007210127894609E0D40892
:10112000055D06194C4639001440A1400C002942C7
:1011300011D001329342F2D201204042BFF35F8FBF
:1011400000220E4B1A608CF3108800280FDBC0BC05
:10115000B946B046F8BD2C4310003470EEE7BFF33B
:101160005F8F00232B608CF31088012040424346A0
:10117000002BECD00898FFF765FFC0462C0100D08B
:10118000044A1078431CDBB2172B00D910231370CC
:101190007047C046BC2200200021044B044ABFF324
:1011A0005F8F02C39342FAD17047C046000100D05E
:1011B000800100D0054B064A1360064A1360536055
:1011C0009360D36013615361936170478080808026
:1011D00000E400E004E400E01F2318401E3B8340CD
:1011E000002905D0C021044A4900535013607047BC
:1011F000802201498B50FAE700E100E070B50D0054
:10120000EFF3108672B60F4A1368002BFCD0BFF3C1
:101210005F8F0D4B10309B6884001B590B4A934223
:1012200003D09D4201D000F03DFF074B9B681D514C
:10123000BFF35F8FBFF35F8F0022024B1A6086F30C
:10124000108870BD240100D000ED00E0CD01001039
:10125000F0B557464E46DE464546E0B585B0060039
:1012600002911700EFF3108B72B6674A1368002BD8
:10127000FCD0BFF35F8F0025644B5D579A46002D6D
:1012800000DAA4E06B00624C03935B199B00984664
:10129000A146C1444B4652469B79103613705D4BB4
:1012A000B2009B68019299580B1B5F2B34D95A4BA3
:1012B000994200D0A4E0039B584A9C46584B654491
:1012C000AD006353434602336519E418554B0121C1
:1012D000043B1B1B1B055B0D13436B80524BEF71D3
:1012E000AB80FF23AB71029BAB604B460B431900F5
:1012F000484B019A9B689950BFF35F8FBFF35F8F94
:101300000022414B1A608BF3108805B0F0BCBB463D
:10131000B246A946A046F0BD01200A008243D37917
:10132000BB422FD845464E46130040491B1B5B412C
:101330005943090D3A4B63533A4B02356519043B47
:101340005B1B1B05354D5B0D2B4373800426B44698
:10135000E0444444131F1B1B4C46A17102991B051A
:10136000A16049465B0D2B43A380314BE7710143DC
:101370001360BDE75800C01880002018C679BE422F
:101380002BD902000623D356002BF3DA101D824618
:101390002848804604267642B446E14450464E46EC
:1013A000361A3005400D824656461C489571064354
:1013B0009680039A944665441D4AAD0064192260E4
:1013C0004246A371029BA280E771A36090E700F000
:1013D00069FE002553465D5754E7101D82469088EC
:1013E0004005001584464046D44466460430201823
:1013F000301AE0260005400D360230438046C9E72A
:1014000000F050FE57E7C046240100D0EC620020F7
:10141000C022002000ED00E0CD01001000E0FFFF41
:1014200000A1FFFF2023002001BDFFFFAAAA0000AA
:101430000148804701BD000070B501240443EFF36B
:101440000581EFF3108C72B62D4A1368002BFCD087
:10145000BFF35F8F2B4A05002B4BAD1A6D416B43D9
:101460001B0D2A4D8900AE685BB27658A6422CD07F
:101470000621515699422CD012215156994234D00E
:101480001E215156994232D02A215156994230D0CC
:101490003621515699422ED042215156994222D09E
:1014A0004E215156994228D05A215156072499422B
:1014B00010D0174A117813708171BFF35F8F00222B
:1014C0000F4B1A608CF3108870BDAA68114C5450F1
:1014D000EFE700246100091989005218FF2191717A
:1014E0000D499180E5E70524F4E70124F2E70224A1
:1014F000F0E70324EEE70424ECE70624EAE7C0461D
:10150000240100D0C0220020AAAA000000ED00E0C3
:10151000EC620020CD01001001BDFFFF024B9C4694
:10152000614489000160704740000034F8B5134DF4
:10153000134E2C00FF27B5421ED22368002B0FD07C
:10154000FFF71EFE01002800FFF7E8FFA780BFF3AA
:101550005F8F0834B4420FD223682500002BEFD1EF
:10156000FFF70EFE01002800FFF7D8FF2771BFF339
:101570005F8F0834B442EFD3F8BDC046882E0020F8
:10158000A82E002010B50400FFF7FAFD010020008E
:10159000FFF7C4FFFF232371BFF35F8F10BDC04669
:1015A0000A4B1968EFF3108072B60A68002AFCD063
:1015B000BFF35F8F1B68BFF35F8F00221A6080F359
:1015C000108840BF002000217047C046D462002030
:1015D000F0B5DE4657464E464546E0B585B0EFF3DA
:1015E0000582032313409A0011000392B64A525811
:1015F000904601229A40B54B91461A6031E043462D
:101600009B881BB2002B00DB9DE043469B79002B9F
:1016100000D0EFE0434608241C5F002C00DA17E1FD
:1016200042465269630094461B19DB0063449C6880
:10163000DD68631C00D113E1A54B03999C4661440E
:101640009A6A0B69A01A9B1A984200D20C61A048B2
:1016500000F048FB241A8D41002D00DDF8E000D198
:101660002EE14B469A484363434608229B5E9A46C6
:10167000002BC4DB424652695B0093465344DB00B7
:101680009B445B469E68DF6800F02CFB801BB941E1
:101690000029B4DB002F00DAEDE05B468D4A1B69C0
:1016A000934200D1E0E041465A460820085E528845
:1016B000000410435A465169984704000D00230066
:1016C0002B4300D1D7E0002D00DBF0E0361BAF410B
:1016D00034003D005B469C60DD600021595E0029BE
:1016E0008DDB43465B6922009C462B004800401876
:1016F000C00060448668C768921BBB41002B00DABB
:101700007DE74346664602000094019519810CE08E
:101710007B00DB19DB00F318009801999C68DD68F9
:10172000001BA941002904DB1A000023D75E002F0B
:10173000EEDA5B461F805346138043469B881BB2FC
:10174000002B00DA61E743461A69EFF3108172B6A5
:101750001368002BFCD0BFF35F8F43469B88424643
:101760001BB29A4601235B4293801369BFF35F8FDC
:1017700000221A6081F310885346002B00DA44E7F8
:1017800043465B699C46082343449B4653465F009F
:1017900043465744FF0008229A5E67445E46BC6891
:1017A000FD68002A19DB3B000094019567469C46C2
:1017B00004E01E000023F25E002A0BDB0098019972
:1017C00053009B18DB00FB189C68DD68001BA941D7
:1017D0000029EEDA6346BC461F00534633800021E1
:1017E0007B5E3A809A46002BD0DA43469B79002BE9
:1017F00000D10FE700234246937143464646082135
:10180000595E08364B1C23D047468C46556902E08A
:1018100006004B1C17D04B005B18DB00E8180A00D1
:10182000E95E43881BB2002BF2DA01235B42DC172E
:101830008360C4606245ECD031803B89944603806C
:101840003A814B1CE7D16446B846002C00DBE7E642
:1018500040BF05B0F0BCBB46B246A946A046F0BDAD
:101860006B1C00D0E8E6F2E65B465C692000236969
:101870009847002821D15B4642461B881381126994
:10188000EFF3108372B611680029FCD0BFF35F8FAD
:101890004246594652880A80424651465180126952
:1018A000BFF35F8F0021116083F31088A7E608481B
:1018B00000F018FA24184D410CE765682468FEE62C
:1018C000002C00D1CDE6C3E7B86200203C70054093
:1018D00000400540D115001070B52E4C2569002D33
:1018E00004D00A212C48FFF719FE70BD2B4E0321AE
:1018F000300000F0EDF9E660FFF742FC284B0322D0
:101900009C46D02322701B061B6801216370254B67
:101910006044A3600F23800020610220638063691C
:101920004942A18019800231198647311D835852DE
:1019300018315A5275325C39995218320131995224
:101940001832013199521832013199520835183242
:101950009D5202311832995218320131995218327F
:10196000013199521832013199521832013199528C
:101970001832013199520C4B0C49DC600130356250
:10198000FFF73CFC01210320FFF726FC084B1D60FC
:10199000A7E7C04638230020D4620020004005405D
:1019A00040000034FFFF1000B8620020D115001085
:1019B00038600540004870473823002070B5C6469F
:1019C000010000B50469EFF3108C72B6206800289E
:1019D000FCD0BFF35F8F02200D5E48696C0080462B
:1019E0006419E4004444002D01DB20884880086924
:1019F000BFF35F8F002606608CF31088002D30DB6C
:101A0000E36063880598013320615B0406985B0CF2
:101A1000A26060611A1C002B21D090B22B0462805E
:101A200018430A69EFF3108672B61368002BFCD0D6
:101A3000BFF35F8F8B8823808D800B69BFF35F8F2F
:101A400000221A6086F310880B7801329A40CB6826
:101A500005498C4663441A6040BCB04670BD012203
:101A6000DBE701204042F7E73C20000010B5438946
:101A70000A14934233DD53009B184269DB009446FD
:101A800004696344EFF3108C72B62268002AFCD01C
:101A9000BFF35F8F5A88090494B2090C8A4208D0B8
:101AA0000369BFF35F8F00221A608CF31088002057
:101AB00010BD8022120214435C80012302698371ED
:101AC000BFF35F8F002111608CF310880549027805
:101AD0008C469340C268012062441360E8E700200E
:101AE000E6E7C0463C20000040787047F0B50400AF
:101AF0000D0006267642F717C64636196F4100B527
:101B000082B08F4214D811D000F0F4F832003B00BC
:101B1000121A8B41002B15DC002B44D02000290029
:101B200000F01CF902B080BCB846F0BD8642EBD98B
:101B30000026002700F0DEF832003B00121A8B412D
:101B4000002BE9DD00F0D6F832003B00121A8B4181
:101B5000002B0ADB00230193144B3200009314483E
:101B60003B00FFF72BFF0028D8DBB0460026BC4621
:101B7000104A114F7B6A9C4504D8B96A8845CDD973
:101B80009C45CBD11168EFF3108072B60B68002B27
:101B9000FCD0BFF35F8F1368BFF35F8F1E6080F3CD
:101BA000108820BFE6E7002AB8D0CBE7A1150010C7
:101BB00038230020D46200200040054070B50600A4
:101BC00000F098F8FA2204000D00002330000021F4
:101BD000920001F05DFA00196941002902DBFFF76C
:101BE00085FF70BD012001494042F8E7FFFFFF7FFC
:101BF000F0B5CE46474680B504000D0083B0EFF344
:101C00000587002F3BD12F4E81463378F26804338D
:101C10009B00916A9B58421A5B1A9A420ED320BFCE
:101C2000294A0020536AAB4203D3926A013091459E
:101C30003CD803B0C0BCB946B046F0BD00F05AF87D
:101C400022002B00121A8B41002B26DB1F4B220097
:101C5000009330002B000197FFF7B0FE011E1CDD42
:101C6000194BA8465A6A954225D920BF3000FFF784
:101C7000FDFE154A0020536A9845DAD8D5E7124A86
:101C80000020536A8B42D4D3926A0130A242D0D250
:101C9000581A421E9041C0B2CBE70B4A0020536A4B
:101CA000AB42C6D3926A01209145C2D9E81A421EBE
:101CB0009041C0B2BDE79B6A9C42D7D99542D5D12D
:101CC000D3E7C0463823002000400540A11500108E
:101CD00010B5024A0248FFF7E3F910BDB04E0410F8
:101CE000585E00200300416A0A00986A596A8A42D5
:101CF000FAD17047034B596A0A00986A596A9142AF
:101D0000FAD170470040054070B504000D00124A3A
:101D1000536A1900966A536A8B42FAD1300019004F
:101D200024184D41AB4211D80ED02B000A494A6A03
:101D30009A42FCD307D1084A02E0516A994202D183
:101D4000916AA142F9D370BDA642EED901230124C4
:101D50006442E5175B42E9E700400540064A536AE2
:101D60009942FCD807D1044B02E05A6A914202D151
:101D70009A6A8242F9D3704700400540F8B5DE46C2
:101D80004E4657464546E0B58B4605000A99180071
:101D9000160000F08DFA0A9B6C001F02324B64198A
:101DA0009C46A4006444636881469F4200D96760F2
:101DB0002B1FDBB29846012B30D9C02380229B0118
:101DC000E31812011A60294BAD0059599A460029AF
:101DD0001BD1226876017240E026802316404246DD
:101DE0005B01E3181E60012A30D9802380229B0109
:101DF000E31812011A6053464A4667605A51F0BC14
:101E0000BB46B246A946A046F8BD586900F050FA54
:101E1000431C5800C0180338FDD2DAE75B46012B9B
:101E2000CBD1C02303229B01E3181A60023AA368B6
:101E30001A42FCD0E0232268760156401E408023DF
:101E40000A4A5B019246E3181E60AD005A462168BB
:101E5000514003220A401A6001225B469A40A3685F
:101E60001A42FCD0C1E7C04600800040605E0020FE
:101E7000F0B546464F46D646C0B51F00344B440029
:101E80009C462418A4006444636888461600FF2B0F
:101E900002D880235B006360031FDBB29A46012BEC
:101EA00030D9C02380229B01E31812011A60294B0C
:101EB00085005959994600291BD122687601724044
:101EC000E0268023164052465B01E3181E60012A7B
:101ED00030D9802380229B01E31812011A608023ED
:101EE0005B0063604B465F51E0BCBA46B146A84612
:101EF000F0BD586900F0DCF9431C5800C0180338E5
:101F0000FDD2DAE74346012BCBD1C02303229B014C
:101F1000E3181A60023AA3681A42FCD0E023226850
:101F2000760156401E4080230A4A5B019146E31821
:101F30001E60850042462168514003220A401A6013
:101F4000012342469340A2681342FCD0C1E7C04639
:101F500000800040605E0020014B8000C058704748
:101F6000605E0020F8B5040020481D0017000E0038
:101F700000F09EF90100380000F09AF9069B290450
:101F80001B0319432368002B1EDB194B194DE21864
:101F900053425A4180235B019C461203164B624414
:101FA0001A60164B1A6017002B689F43FBD1144B25
:101FB0002660E2182123A06013602368002BFCDA5E
:101FC0000823E1601360F8BD3F2322681340B34249
:101FD000DBD1A3681B051B0D8342D6D1EE22E3683B
:101FE000D20213408B42D0D1EDE7C046001BB700B0
:101FF0000040FDBF08C0004000E0004000F000408D
:10200000043000008023024A9B000B43D3627047D8
:1020100000800540142310B50100188804331B8884
:10202000984710BD162310B50100188802331B888D
:10203000984710BDF8B54746CE4680B50F1E19D05B
:1020400014239946043304000025012698464B4684
:102050001888434621681B88984701C4431E98414D
:10206000013540420640AF42F1D13000C0BCB94614
:10207000B046F8BD0126F8E7AA23064A1B01136003
:102080002F230549D360054B19605368002BFCDAF8
:102090007047C0460040024000B0FA0000600240B5
:1020A0007047C04610B50148FEF7CCFFD44E04106F
:1020B00070B5074D074EB54209D20024013E761B8C
:1020C000B60808CD984723000134B342F9D170BD5A
:1020D00090490410CC490410054B064A06491A6081
:1020E000064A074B1A6010000B689843FBD17047F3
:1020F00000E00040BFCDFBFE08C00040FE7F3C007A
:1021000000F00040044BDB6C002B03D18022034B1A
:10211000D2021A607047C046000011504C20115086
:10212000044A054B1A60054A1368DB018033FBD172
:102130007047C046FFFFFF0100F0004008C00040AC
:102140004022034B9A675A671A67DA667047C0469F
:1021500000F0014010B5FFF71FF810BD70B5044D39
:10216000044C2800C022A16801F0C6F8A56070BD2B
:102170000000002000ED00E0002310B5294C82B0E3
:10218000A367FFF779FF0122274B1A60636C012BCD
:10219000FCD10322254B1A60224A936B012BFCD100
:1021A000013300930121224A22480433FFF7DAFE6B
:1021B000052301210093204A2048FFF7D3FE002287
:1021C000022104201E4BFFF753FE002201210520AF
:1021D0001C4BFFF74DFE0022002107201A4BFFF792
:1021E00047FE002200210820174BFFF741FE802305
:1021F000DB000093002200210920134BFFF7BEFDF6
:102200000022104B00210620FFF732FE0420FFF7CA
:10221000A3FE0E4900F04CF801000020FFF7F2FE8B
:1022200002B010BD008000403CB0004030B0004023
:10223000002F685900800240008C864700C0024091
:10224000001BB70040597307006CDC0240420F00CE
:1022500001480421014B184750230020352000106D
:10226000124A936F9B0815D29066D166002905D05B
:10227000FFE7FFE7FFE7516F106F704704B580215C
:102280000906C2175140002800D0C84342F0E0FAC6
:10229000002104BDF0B5146E556E576F166FFFF731
:1022A000E3FF1466556657671667F0BD000000D05F
:1022B000114A936F9B0813D210665166002905D00E
:1022C000FFE7FFE7FFE7516F106F704704B5002885
:1022D00001D00020C04342F0BBFA002104BDC0463B
:1022E000F0B5146E556E576F166FFFF7E5FF146665
:1022F000556657671667F0BD000000D094464A4AFD
:10230000926F9208624601D228E0C046F0B5464E70
:10231000346E756E776F366F00F020F89446424A3F
:1023200014665566576716676246F0BD94463E4A86
:10233000926F9208624601D254E0C046F0B53A4E20
:10234000346E756E776F366F00F04CF89446364AEF
:1023500014665566576716676246F0BD002B24DB8E
:1023600011D000293EDA00B5C943404200D1013105
:1023700000F038F8C943404200D10131DB435242FA
:1023800000D1013300BD002AEBD1002801D1002982
:1023900005D00020C90FC90701D1C043410800B5CD
:1023A00042F016FA0022002300BD00B500290ADB26
:1023B000DB43524200D1013300F014F8C9434042DC
:1023C00000D1013100BDC943404200D10131DB439E
:1023D000524200D1013300F005F8DB43524200D1F4
:1023E000013300BD002923D1002B18D1002A0CD0C5
:1023F000BC460D4F38667A6600210023FFE7FFE7F1
:10240000FFE77A6F386F67467047002801D00748AA
:10241000010000B542F0DCF90022002300BD0200FB
:102420000B00002000217047000000D0FFFFFFFFDD
:10243000002B00D0BFE0130C28D1002AE7D080B4D5
:10244000114F39667A66FFE7FFE730B4040C7B6F03
:10245000396F1B0423433B667A66FFE7FFE7FFE71C
:10246000C04684B27B6F3D6F1B0423433B667A6694
:10247000FFE7FFE7C04600232C042D0C7A6F386F6E
:1024800000196941B0BC7047000000D0F0B5944617
:102490000025140E01D112020835140F01D11201CA
:1024A0000435940F01D192000235D40F01D15200AE
:1024B0000135D40B0134254F7C66254C3C660E0C4F
:1024C00093B2FFE7FFE7FFE73C6F6643360C770305
:1024D000BE467343DF0B5B04C01AB941130C734350
:1024E000DB18C91ACE086643360CB64493B2734360
:1024F0001F0F1B01C01AB941130C73431F0B1B059F
:10250000C01AB941860D8F023E436643360C092D31
:1025100024DB520A7243801A7703460A6643360C5C
:1025200016235B1BDE40DF40BF1964466643821BF7
:102530007046043506330100D940A840C01900D3C5
:102540000131A24206D20023F0BD0000000000D0FD
:10255000FFFFFFFF121B0130F3D3F1E709277F1BB9
:10256000FE406446A2B27243801A00D20139220CA6
:102570007243130C1204821A99410B007046043501
:1025800013370100F940A840801900D30131002B16
:1025900002D1A2420AD2F0BD013000D30131121B98
:1025A000FAD2013BF8D1A24200D2F0BD013000D3F3
:1025B0000131121BF7E7F0B51C0C00D080E00CB421
:1025C00000251C0A04D11B02160E334312020835E3
:1025D0001C0B04D11B01160F3343120104359C0B55
:1025E00004D19B00960F334392000235DC0B02D1DD
:1025F00092185B4101351C00971864410134464F25
:102600007C66464C3C660E0CFFE7FFE7FFE7C046E2
:102610003C6F6643360C7703BE4697B27743C01BC8
:1026200000D20139C01B00D201399FB27743C91BC8
:10263000C91B170C77437E04FF0B801BB941CE08E2
:102640006643360C0C2D33DBB644120B1F053A43A0
:102650001B0B97B27743C01B00D201399FB277435F
:10266000C91B170C77433E043F0C801BB941860DF4
:102670008F023E43664329277F1BFE400C3D774671
:10268000AF40BF1930BCA2B2ABB272437343801AE1
:102690009941220C7243130C1204801A99410200D2
:1026A0000B000137001BA941F9D2781E0021F0BDB3
:1026B0000C277F1BFE4077467F0BAF40FF19E0E7FA
:1026C00000245D1C07D0144F7D663966FFE7FFE7E5
:1026D000FFE7FFE73C6F95B29EB265436643401B40
:1026E000B141150C1E0C6543664336042F0C3E4366
:1026F0002D04401BB141994204D202000B0020007E
:102700000021F0BD01D19042F7D3801A99410134E4
:102710009942F2D3F6E70000000000D0FFFFFFFF70
:1027200048404140484018B41B4B5B68FC4601934D
:1027300008BD04DF5F2A001018B4174B1B68FC4665
:10274000019308BD00DF692A00109446134A926F76
:10275000920809D2624618B40F4BDB68FC4601931D
:1027600008BD0CDF212D00100C4AF0B5146E556E1B
:10277000576F166F6246FFF7EEFF084A14665566FC
:1027800057671667F0BD18B4034B9B68FC4601936E
:1027900008BD08DFC52B001070300020000000D0FD
:1027A000FFB550404240504059404B40594000E036
:1027B000FFB5154F4C00640D03D0BC4204D10C038F
:1027C00014D80020090D09055C00640D03D0BC423B
:1027D00004D11C030AD800221B0D1B0501264B4007
:1027E00009D44B4003D58B4200D18242FFBD9942B0
:1027F000FCD19042FFBD0B43DB1803431343F5D0DC
:10280000C9434918FFBD0000FF07000000B5FFF7EE
:10281000CFFF01D0002000BD012000BD00B5FFF7B3
:10282000C7FF804100BDC04600B5FFF7C1FF01D919
:10283000002000BD012000BD00B5FFF7B1FF01D9A8
:10284000002000BD012000BD00B5FFF7A9FF8041B9
:1028500000BD012040054A00121804D85A00121881
:1028600001D8002070470120704700000021002897
:1028700005D17047C1174840401AFAD0C90713B5AF
:10288000064B1B6898470CBC441CA2401005120B59
:102890000349091B09051943114310BDD0620020EB
:1028A0001F04000010B54C00620D8023D218DB001D
:1028B000D21A5B057E2A10DD9E3A13DACC17090383
:1028C000490819435242D140640001341532202A8C
:1028D00005DAD0400843604310BD002010BD084613
:1028E000604310BDC80FC018013810BD18B4044BA8
:1028F0005B6AFC46019308BD24DFD12E0010000066
:102900007030002018B4044BDB6DFC46019308BD09
:102910005CDFDD2F0010000070300020C94211D3B1
:1029200000B549004908002200F018F8002904D435
:10293000002240428A41114600BD80210906002044
:1029400000BD000018B4044BDB6EFC46019308BDCB
:102950006CDFDF2E001000007030002018B4044B34
:102960009B6FFC46019308BD78DFFB2E0010000032
:102970007030002018B4044BDB6FFC46019308BD97
:102980007CDF692F0010000070300020132370B529
:102990001D78012D19D014DD1E48FFF743FB0600FA
:1029A0001D48FFF73FFB1D4C80223100200000F046
:1029B000A3FC022D06D01A48FFF72CFB194B186018
:1029C00070BD164C184BA364F5E7174B134C2360EE
:1029D0006360A360E36023616361A361E3612362D9
:1029E0006362A362E36223636363A363E3632364B9
:1029F0006364A364E36423656365A365E365236699
:102A00006366A366E36623676367A367E367A364FC
:102A1000D1E7C04653440000534600007030002008
:102A20004C330000D06200202D2A001007B560460C
:102A300001880A0A0230DF2AFAD1C9B2820804D317
:102A4000028840880004104300E00068014A5050AA
:102A5000039007BD703000200FB403BC0CBCF0B570
:102A60000124E407634000E0F0B50C0DCF0F661EB3
:102A70003605891B640503D3C943404200D30131A5
:102A8000640D03D0661CF60A07D0E41B00207F000B
:102A9000791C89078912803C24031D0DDF0F6E1EEF
:102AA00036059B1B6D0503D3DB43524200D3013334
:102AB0006D0D03D06E1CF60A07D0ED1B00227F00BF
:102AC0007B1C9B079B12803D2D032F1B661B58D43C
:102AD000A446202E46DA20371400BC401D00BD401D
:102AE000F24033412A4380185941CB0F05D0C943E6
:102AF000C043002264425041514162464D0D28D1ED
:102B00000D0D07D100281FD0241940414941013A39
:102B10000D0DF9D0640006D3013000D30131002C33
:102B200001D140084000013A0BD4941CE40A04D1BE
:102B300012051144DB071944F0BDD907204B194396
:102B400000E0D9070020F0BD0029DDD1002CDBD149
:102B5000F0BD0132C6074008CD0728434908002EC2
:102B6000E1D0D9E73C2E29DA203E40371400BC40A2
:102B700000D00124F24014431A00BB401C43D31779
:102B8000ACE7AC46202F08DA20360400B4400D0034
:102B9000B540F84039412843A5E73C2F0CDA203FE7
:102BA00040360400B44000D00124F840044308003B
:102BB000B1400C43C117EAE710001900002494E764
:102BC0000000F07FF0B50C0D661E3605891BE60A85
:102BD0006405640D02D0651CED0A04D000200121BB
:102BE0000905803C2403A4461C0D671E3F05DB1B22
:102BF000E70A6405640D02D0651CED0A04D00022CA
:102C000001231B05803C24037740644497B484B2BD
:102C100096B27443070C7E43150C6F4380B2684331
:102C2000361802D3012000043F183004350C001977
:102C30007D41844688B29AB250430C0C62431F0C0B
:102C40007C438EB27E43921902D301263604A41926
:102C50001604170C3618674101BC81B29AB2514371
:102C6000040C62431B0C5C4380B25843121802D31D
:102C70000120000424181004130C401863412D187F
:102C80005E410020474106BC88B293B258430C0C09
:102C90006343120C544389B251435B1802D30121A0
:102CA0000904641819041A0C091862416D18564178
:102CB0000020474118BCF902720D1143F0026A0D61
:102CC0001043ED020A0D03D16D1940414941013B0A
:102CD000124E9B1B7600B3420ED26D0007D301301B
:102CE000002671416646354301D1400840001B056E
:102CF000C918E4072144F0BD0BDA013306D10130D5
:102D000004D101314F0D01D04908F2E7E10700205D
:102D1000F0BD013631050020EBE70000FF030000A5
:102D2000F0B51C0D671E3F05DB1BE70A6405640D4B
:102D300002D0661CF60A04D0002201231B05803C49
:102D40002403D0252D060026F6432E661E096E6646
:102D5000CE0FF619B44649004F0D02D07E1CF60A7C
:102D600003D000200021403F3F033E1BB600B44487
:102D7000013F7F05C91B49082E6F013676089C026A
:102D8000950D25437543ED137543AD1301356D1056
:102D9000F603761B0CB4CC02450D2C43A2B2B3B2A1
:102DA0005A43270C7B43350C6F43A4B26C431B1969
:102DB00002D3012424043F191C041D0CA4187D41D6
:102DC00024196D41009A91B2ACB26143170C7C4357
:102DD0002B0C5F4392B25A43A41802D3012212046F
:102DE000BF182204230C52187B41019C6C431B1911
:102DF000520ED9010A434401A01A81B2B2B2514322
:102E000003145A43360C734387B27743D617D2194B
:102E100000277E4136049B191704160C7F185E416B
:102E20007316ED18F301002680337541A90F06D102
:102E30006400690AE8055B0A184309D22FE00422FE
:102E4000944480337541A90AA8059B0A184326D3E8
:102E5000404149412404009A019B0D005543641BE5
:102E60004343E41A95B286B27543170C7E43030CB4
:102E70005F4392B25A43B61802D301221204BF181C
:102E80003204330C52197B4152429C41002C02D433
:102E90000022013051414008CA071043490802B0DE
:102EA0006246D7079210084BD218084B9A4203D2B9
:102EB00012058918C919F0BD0020002A01DC39006B
:102EC000F0BD01331905F5E7FD030000FE07000022
:102ED000002200B5203200F010F8080000BD0022EA
:102EE00000B500F00CF8CA179A4200D100BDD843D3
:102EF0000121C907414000BD00220B150AD410B5BD
:102F0000944600F0A7F81414013400DA0021CB171E
:102F1000144C20470020002170476244343A0CD4FE
:102F20000C2A07DA04009140904052422032D440EB
:102F3000214310BDD843D94310BD203207D40C46DD
:102F40009440524220321141D040204310BD08002D
:102F5000C917203203D452422032104110BD18004C
:102F6000190010BD1B2F00104A00520D144BD21A2D
:102F700013DDFF2A1EDAD205CB0FDB071A43C3008D
:102F8000400F0903490A084310435B0001D301D0F5
:102F9000013070474308FBD2704702D0C80FC0070A
:102FA00070470A0312130132F8D1420F072AF5D1F4
:102FB000012200E0FF22C80F00028018C005704700
:102FC0008003000000210A00002104E000210A0023
:102FD000C11704E00022002306E0C0460022CB1700
:102FE00058405940C01A994130B5184CA21A0029CE
:102FF00003D1010010D00020203A4C1512D104D288
:10300000013A001849414C0DFAD3114CA24204D2A6
:1030100012058918DB07C91830BDD243520D0020B4
:103020000021F5E703D4013A00184941FBD50B32E2
:103030004405C00A4D052843C90A640003D0002492
:1030400060416141E1E7E0D34408F8E73204000061
:10305000FE0700000A0DCC0F531E1B05C91A5205AE
:1030600003D3C943404200D30131520D03D0531C56
:10307000DB0A07D0121B00206400611C890789123B
:10308000803A1203014BD21A70470000FF03000080
:1030900051434343C9188C46110C83B24B4310B4BF
:1030A000040C614392B280B2504362431C041B0C77
:1030B000001910BC59411304120CC018514161444D
:1030C000704700004840414048400E4B5B6818473D
:1030D0000C4B1B6818470C4A936F9B0802D2094B94
:1030E000DB681847F0B5146E556E576F166FFFF713
:1030F000F6FF054A1466556657671667F0BD014B23
:103100009B68184770310020000000D007B5484088
:103110004140484001E0C04607B54200120E03D0CE
:10312000FF2A03D1420218D8C00DC0054A00120E72
:1031300003D0FF2A03D14A020FD8C90DC9050122C5
:10314000414005D4414001D5814207BD884207BDB9
:103150000143491801D0C043001807BD00B5FFF76F
:10316000DBFF01D0002000BD012000BD00B5FFF74E
:10317000D3FF01D9002000BD012000BD01231B06A3
:103180004200D21804D84A00D21801D80020704753
:1031900001207047491A002808D1084670470000EE
:1031A000C10FC90700D54042002817D0F44603B428
:1031B0000B4B1B68984706BC81409E3840428031CB
:1031C00007D20B0607D04900490AC005104308433F
:1031D00060470130F8E7490A8902F5E770470000C7
:1031E000D0620020014B5B6A18470000703100205C
:1031F000132310B512481C78FEF714FF0100012CB0
:103200000AD003DD80220F4800F076F80E48FEF762
:1032100001FF0E4B186010BD0A4C5422200000F034
:103220006BF80B4B6365A365E36523666366A36672
:10323000E36623676367A367E3672362E361E5E708
:1032400053460000703100204C330000D062002053
:103250005532001007B5604601880A0A0230DF2A9D
:10326000FAD1C9B2820804D302884088000410430E
:1032700000E00068014A5050039007BD7031002003
:1032800070B504000A4E300041F072FB200034F0AB
:10329000DDFE0500300041F093FA002D05D0054B0E
:1032A0002C199C4201D8280070BD0348FDF7CAFEC6
:1032B000882E002000000420E04E041070B50400A9
:1032C000054D280041F054FB200034F0C9FE2800D1
:1032D00041F076FA70BDC046882E002001480421D6
:1032E000014B18476023002035200010014B1B685C
:1032F0001847000060230020014B5B68184700005E
:103300006023002010B5FFF7BBFF10BD10B5FFF71D
:10331000B7FF10BD10B5FFF7D1FF10BD10B5FFF717
:10332000CDFF10BD10B5FFF7C9FF10BD9A4200D206
:10333000885470477047C046F8B557464E464546D4
:10334000DE46E0B599460A9B07009A460D9B8846E3
:10335000934615000B9E9B0710D10C9B9E420DD2ED
:103360009D1B14000E005D4422004B4601343100C9
:103370002020B847A542F7D1B0460B9E002E27D09B
:10338000444675195346AA1B013E985D21004B46E1
:10339000B847002EF6D123002C0098460D9B9B07C2
:1033A0000FD55B46E51A0C9BAB420AD946469846B8
:1033B00022004B46310020200135B8470134A84592
:1033C000F6D82000F0BCBB46B246A946A046F8BDE0
:1033D0002C00E3E7F0B54F464646D646C0B584B06C
:1033E00098460EAB1B78129F994694460D9C109BF5
:1033F000119EBA0725D4002E4BD19C4200D3BFE0CA
:1034000001223A4092461F2C00D9B8E00C9A551E72
:10341000302201E0202C03D001342A55A342F9D8F0
:103420005246002A0DD0A6420BD9202C44D00C9A2B
:10343000551E302201E0202C3ED001342A55B442E2
:10344000F9D1FA064DD57A053FD4002C39D10F9B1E
:10345000102B00D179E00F9B022B00D18AE03023A2
:103460000C9A012413704B46002B3FD02D230C9A4D
:10347000135501340C9B6246009303974346029612
:103480000194FFF759FF04B0E0BCBA46B146A84624
:10349000F0BD012215003D40AA463A422FD04A46CF
:1034A000002A02D10C323A4200D0013E9C42BAD2EC
:1034B0001F2CABD9202E27D92024FA06DAD57A057D
:1034C00003D4A3422DD0A6422BD00F9B102B32D079
:1034D000022B20D0202CCDD030220C9B1B191A702F
:1034E0000134202CC6D04B46002BBFD17B070DD416
:1034F0003B07BFD520230C9A13550134BAE79C42F1
:103500009FD21F2C00D881E720249AE72B230C9A06
:1035100013550134AEE7202CACD00C9B1B190134A1
:103520003AE0631E012C92D00F9A102A2AD0022A68
:103530002FD01C00D0E7BB060ED4202C9AD00C9BB9
:103540001A19013478231370C4E7BB060DD478230D
:103550000C9A01241370BFE7202C00D18AE758226F
:103560000C9B1B191A700134B4E758230C9A0124E0
:103570001370B1E70C9A603301241370ACE7202478
:1035800000265EE7023CBA06E9D40C9A12191C0028
:10359000D8E70C9A9246534462221A709AE7C046C2
:1035A00010B5002800D110BD01F0FAFBFBE7C046C2
:1035B0000B0010B5002802D049681B68984710BD61
:1035C000F0B5DE4657464E464546E0B59BB09B46B5
:1035D000249B89469846259B0B900C924046424678
:1035E00019009A46FFF735F9002800D0D8E00122EB
:1035F00040465146774B5242FFF726F9002800D04B
:10360000CEE0012240465146734B5242FFF706F985
:10361000002800D0C4E00022002340465146FFF7B6
:10362000FDF8002800D0B9E1424653460A920993BA
:103630008023289ADB001A400E92289A1A4201D160
:10364000062326930A9A099B1600134300D0C7E06D
:10365000289B002500261B0500D49BE100230D9329
:10366000269A0D9B9A4200DC9FE1D01A431E2693B6
:103670008023289ADB001A430023002728920D9309
:10368000279B0024BB4200D9DC1B0223289A1A4046
:103690000E92289A134203D07B427B415B421C402E
:1036A0000D9B002B07D00A9809992A003300FFF7D9
:1036B0004CF80A9009910022002340465146FFF73A
:1036C000ADF8002805D080200006844609996144A1
:1036D0000991289A414B0B9D13400493269B0A9A0B
:1036E0000293099B03940092019349465B4628008C
:1036F0000C9A00F08BF90400002F62D0289B220066
:1037000098061F23C0179843631C984649465B469A
:103710006530A8470D9B0025DA179C18DB0F9A46E9
:103720005440013F01E0202D13D00AAA94461F23E4
:10373000200063440A2101355E19FEF7B9FD3031DE
:10374000317020000A21FEF7B3FD26000400092E87
:10375000E9D805230693002304930A3303935346C1
:1037600005970B9F029312AB009342465B46494676
:1037700038000195FFF72EFE0E9B0400002B20D091
:103780000C9BC51A279BAB421BD91E0022005B462F
:10379000494620200135B8470134AE42F6D810E042
:1037A000289B42460493279B49460393269B0B98EC
:1037B00002935346009201935B460C9A00F026F95F
:1037C000040020001BB0F0BCBB46B246A946A04690
:1037D000F0BDC046FFFFEF7FFFFFEFFFFFF7FFFFEA
:1037E000734B099F9C467800400D6044FFF742F8F8
:1037F000704A714BFEF7C7FF704A714BFEF79CFF92
:103800003B03704A1B0B1A4304000D0030001100EB
:103810006D4B0022FEF787FF6C4A6D4BFEF7B3FF3E
:1038200002000B0020002900FEF786FFFFF73AF8A0
:103830000D90FFF71FF8674A674B04000D00FEF775
:10384000A2FF0022654BFEF777FFFFF72BF8644AD3
:103850000600644B20002900FEF795FF04003000AD
:103860000D000F96FFF706F85F4A604BFEF78BFFDF
:1038700002000B0020002900FEF755FF02000B009C
:1038800006000F00FEF77FFF320004000D003B0032
:1038900030003900FEF750FF002210901191544B78
:1038A00020002900FEF751FF0022524BFEF744FF93
:1038B00002000B0020002900FEF747FF00224E4BBC
:1038C000FEF73AFF02000B0020002900FEF73DFF43
:1038D0000D008021040032003B000020C905FEF7E6
:1038E00022FF02000B0020002900FEF725FF020046
:1038F0000B0010981199FEF728FF0022314BFEF7BC
:103900001BFF3E4B0F9C9C46644400222305FEF7A0
:103910003AFF05000E0002000B000A980999FEF715
:103920007DFF00280AD00D9B2800013B31000D933C
:103930000022304BFEF709FF05000E00C6270D9947
:103940002B0063318F42BF4128997F42043709051C
:1039500000D495E6334300D182E6099C284A210031
:10396000284B0A98FEF768FF002808D000222100A3
:10397000254B0A98FEF752FF002800D070E6269BE0
:10398000002B00D17CE60E9B5A1E9341269AD31A37
:10399000269375E6002304270D9371E643460A93A8
:1039A00080231B065344099342E6002326935FE6D7
:1039B00001FCFFFFFB799F501344D33FB3C8608BDA
:1039C000288AC63F0000F03F0000F83F61436F6364
:1039D000A787D23F71A379094F930A400000E03FC7
:1039E0001655B5BBB16B0240EF39FAFE422EE63FE9
:1039F00000002C400000244000001840FF0300009D
:103A00002D431CEBE2361A3F80842E41F0B54E4622
:103A1000DE4657464546E0B597B09946209E219F21
:103A2000229B8346984607910C923B00320030005F
:103A30003900FEF70EFF002800D0A9E10122300076
:103A40003900CA4B5242FEF7E9FE002800D0E1E0FF
:103A5000012230003900C64B5242FEF7F5FE002825
:103A600000D0B7E0002230003900C24BFEF7ECFE78
:103A7000002800D099E0002230003900BE4BFEF74C
:103A8000CDFE002800D090E0002200233000390055
:103A9000FEF7C4FE002800D0B1E000230D93249B64
:103AA0005B0501D40623984608AB9C4617220024E8
:103AB00030234146624404E0013413550139202C7F
:103AC00001D00929F8D8884630003900FEF7EAFE0F
:103AD0004346DA00A94B05009B181A685B680892F8
:103AE0000993FEF7C7FE02000B0030003900FEF715
:103AF0001AFE089A099BFEF746FE0A900B91FEF704
:103B0000F5FE8246FEF7B2FE02000B000A980B9902
:103B1000FEF709FE00229A4B0A900B91FEF794FEE5
:103B2000002800D1C0E001239C46E2445046FEF745
:103B30009DFE02000B0008980999FEF775FE00280B
:103B400002D000239A4601354346002B6AD008ABC9
:103B500017269C4608956644554614E001235B42AF
:103B600043440A2128009A46FEF7A2FB0134303173
:103B70003719397028000A21FEF79AFB092D00D861
:103B8000D0E0D0460500202CE8D10EAB98460323A8
:103B9000249A1340012B00D196E02023249A01930C
:103BA0000392239A434602921EE0249B58460493B4
:103BB000239B00960197039343460C9A029307991F
:103BC0004B46FFF7FDFC17B0F0BCBB46B246A9461A
:103BD000A046F0BD249B5B070ED40322694B2499B9
:103BE0000192039123990291009358464B460C9AF7
:103BF0000799FFF7A1FBE6E70422634BEFE73B00E1
:103C0000320000200021FEF78EFD012306000F0088
:103C10000D9344E7249B0393239B02930423019376
:103C20005A4BE1E72800FEF725FE02000B003000AA
:103C30003900FEF778FD524B002206000F00FEF718
:103C4000EDFD0EAB984600280AD100223000390065
:103C50004B4BFEF7F9FD002802D1EB0700D50135EB
:103C6000202C94D008AA94461723280063440A21E4
:103C700001341E19FEF7F4FA3031280031700A21A0
:103C8000FEF7EEFA051EEBD10323249A1340012B15
:103C90001BD0202C00D180E70D9B002B35D02D228E
:103CA0004146631C0A5579E700220A980B99344B68
:103CB000FEF7B4FD002800D046E75346002B51D153
:103CC00001239C46E2443FE72024239B002BE0D0C5
:103CD0000D9B002B03D1249A0C33134202D0239B5B
:103CE000013B2393239BA342D3D908AB9C461722C5
:103CF00030236244202C00D14FE72399013413551F
:103D00008C42C6D0202CF8D147E7249B5B0724D4F3
:103D1000249A2300120700D440E7202241460133B1
:103D20000A553BE75746089D202C00D12DE722007D
:103D300030214046002F09D00132B154202A00D151
:103D400023E7D3431B191B18002BF5D10EAB984664
:103D50002E234146541C8B5482E72B224146631C80
:103D60000A551BE7DB0700D4EEE6A9E7FFFFEFFFEC
:103D7000FFFFEF7F65CDCD4165CDCDC180510410F2
:103D80000000E03F884F04108C4F0410984F04103F
:103D9000249B0393239B029303230193004B23E76C
:103DA000944F0410F0B5DE464E4657464546E0B502
:103DB0009FB01C00289B91460993C94AC94B8B466A
:103DC00008901A60002900D118E2002320789A4652
:103DD000002800D11AE226001D005C460AE02A00F5
:103DE0006F1C4B46089D2100A8473D0001363078E6
:103DF000002870D02528F2D110239B46083B9A4614
:103E0000043B9846023B00219C46721C1078160029
:103E10000300203BDBB2102B03D8B34F9B00FB58B1
:103E20009F460300303B092B32D900230A932A28EE
:103E300068D0002398462E283ED00300683BDBB2B2
:103E4000122B1CD8A94A9B00D3589F46012301324C
:103E50001943DBE7634601321943D7E74346013292
:103E60001943D3E75B4601321943CFE7534601328A
:103E70001943CBE780235B007078194301360300B8
:103E8000253BDBB2532BAAD8994A9B00D3589F46B7
:103E900000270300B800C01901364000C01833786D
:103EA00030381A00303A0700092AF3D90A9018006E
:103EB000002398462E28C0D180237078DB00194358
:103EC0000300303B721C092B00D8A1E12A2800D145
:103ED000B2E11600B1E7A346AA462C00D14503D8AB
:103EE00001235B424B449A464B46524659460020BA
:103EF000089DA84720001FB0F0BCBB46B246A946AB
:103F0000A046F0BD099B40CB0A96002E03DB5078FB
:103F10000993561C8DE72838014370420A90099393
:103F20005078561C85E7782800D1DFE1582800D169
:103F30004CE26F2800D14FE3622801D100F030FC41
:103F400010230A009A430B92692801D000F0A9FCC3
:103F50000A230C934B0500D5D0E10B9A8023110066
:103F60009B0019408B461A4200D0A1E28023110029
:103F70005B0019408A461A4200D0B6E313005B0684
:103F800000D5EDE2130009991B0601D400F076FC80
:103F900008C91BB2D8171A18424092B20991934629
:103FA000DA0F1292002B09D1802310220B99DB002B
:103FB0000B4091430B91002B00D0E4E20B9A61235C
:103FC000920600D541230EA91F228C46DBB2624423
:103FD0000A3B5F461395A34655460C9CB2460D938B
:103FE00016000AE03033DBB201357355A74200D228
:103FF000EDE2202D00D1EAE2070021003800FEF7B3
:1040000057F9CBB20929EDD90D9A94466344DBB236
:10401000EAE780239B007078194301362FE7707818
:10402000682800D1CDE180230136194327E7707855
:104030006C2800D1BFE180235B00194301361EE7E5
:10404000462800D19BE10722099B04910733934343
:104050000A9A19000392424602920CC908980092EB
:10406000019309912A004B462100FFF7CFFC01364E
:104070000500BCE62A006F1C4B46089D2100252048
:10408000A84701363D00B2E68B0700D4ADE1099B9D
:104090002A009A466B1C9846534601CB21009A464B
:1040A000089F4B46C0B2B8470A9B9C466544012B0B
:1040B00000D886E2089B4746B04626004C46994603
:1040C0003A002300013731002020C847AF42F7D122
:1040D000A1465346340046460993013687E6C0465A
:1040E000A53D00109C620020A04F0410E44F041076
:1040F00030500410099B04CB9B4643460992002B89
:1041000000D1C6E013789C46002B00D1BDE34346A6
:10411000013B099A0133D0180A9F130001E0834242
:1041200003D05A780133002AF9D1099A0A979B1AC9
:104130000B9380230A00DB001A400C92194204D032
:104140000B9B434501D943460B9302231A000A40B7
:104150000D920B4200D187E16046002800D168E152
:104160000C9B002B00D10DE1A844C246099B574689
:104170005B1B9846089BB2462A0026004C4699468F
:1041800009E023003100551CC8474346585D00280C
:1041900000D126E12A009742F3D1A1463D00340028
:1041A00056460D9B002B00D043E15B460136099338
:1041B0001DE6099B1A0008CA9246002B48D021220E
:1041C00011438B460EA884461F21614409950022A5
:1041D0000F27A4460D0002E0202A0CD00B003C0063
:1041E0001C4020003730092C00D807380132A85471
:1041F00019090F2BF0D86446099D32E0DC4B20787A
:10420000089300239A46002800D0E4E5002465E6E0
:10421000434606000A9F9800C018013240008019EA
:104220001678030030003038303B0928F3D93000CD
:10423000984616000A9700E6099B023604CB904682
:10424000D2434046D2171040804609933078F4E5B7
:104250001022080090431132104383460022490582
:10426000B0D55B4606930823059343460493102379
:1042700003930023029316AB019200932A004B464E
:1042800021000898FFF7A6F8534605000136099368
:10429000ADE513789C46002B00D1F7E202235B4288
:1042A00037E7202302009A43472A04D180231B01C9
:1042B000194302239843452801D12023194307229B
:1042C000099B0491073393430A9A190003924246CB
:1042D00002920CC908980092019309912A004B465A
:1042E0002100FFF76DF90136050080E510230C93DE
:1042F0000C230A009A430B924B0503D501230B9A1A
:104300009A430B92692800D127E6642800D124E65D
:104310000B9A802311009B0019408B461A4200D053
:1043200066E1802311005B0019408A461A4200D0E2
:1043300039E213005B0600D53CE113001B0600D4F4
:10434000A6E2099B04CB1204120C934609935B4628
:10435000002B00D09AE10B9A1033110099430B9176
:10436000520500D492E100239A460B9B06930A9BC8
:104370000593434604930C9B039300230CE12023F5
:10438000194360E6099B0A9A5B1B98464B46914687
:104390001F00B2462600089C2A003B003100A047BF
:1043A00043460135585D0028F6D14A463400B946E7
:1043B00056460A92F5E6C0239B00B07819430236B0
:1043C0005DE5C023B0781943023658E50C230A0096
:1043D0009A4314331A43103B0B920C934B058DD424
:1043E00096E7A14634005646DBE60A9A012A00D831
:1043F00053E26B1E9F18089BB04626004C46994618
:104400002A002300013531002020C847BD42F7D1E2
:10441000A14634004646099B3A0001CB210098464C
:104420007D1C4B46089FC0B2B847434601360993EE
:10443000DDE40B9B0A9AA8469A4200D8B5E694465A
:104440006544ED1A089B4746B04626004C469946FF
:104450003A002300013731002020C847AF42F7D18E
:10446000A14634004646A0E60B9A0A99531C914295
:1044700000D814E24B199B1A1F00089BB246260075
:104480004C4699462A002300013531002020C847B8
:10449000BD42F7D10A9BA14601330B93099B34001F
:1044A0001B7856469C466046002800D058E67CE6BD
:1044B0000722099B07339343013294469C4462468A
:1044C0005F6809921A68FB1710931193109811995D
:1044D000030053400E930B007B400F9394460E9ABB
:1044E0000F9B121A8B410E920F93FB0F6246129391
:1044F00000233A439B463DD00B9A6123920600D598
:1045000041230022DBB20EA90A3B8C4692460D9352
:1045100043461F3262441395159655460E9E0F9FD3
:10452000A24690460C9C14930CE03032D2B2434623
:1045300001355A55BB4500D18AE1202D00D18AE1D1
:1045400006000F002200002330003900FDF7EEFEC8
:10455000D2B2092AE9D90D9B9C466244D2B2E6E761
:10456000FF23099904C913401A00099117E5C046B1
:10457000353300100B9A1033110099430B915205FB
:10458000BAD500239A460B9B06930A9B0593434694
:1045900004930C9B0393129B02935346019316AB17
:1045A0002A00009321004B460898FEF713FF0136BE
:1045B00005001CE4FF22099B02CB11408B460993A6
:1045C000C5E65346454609930136FFF710FC5646AB
:1045D0005C46AA46139DD6E708230C930B910B99D2
:1045E000642800D084E60B9B5B0500D586E6B4E426
:1045F0000722099B07339343013294469C44624649
:1046000009921A685B6810009B4613005A461343D0
:1046100007D10B9A1033110099430B91520500D525
:10462000A1E60B9A6123920600D541230022DBB25A
:104630000EA90A3B8C4692460D9343461F326244B4
:104640005F461295A34655460400B24690460C9E1E
:1046500013930DE03032D2B2434601355A55002350
:10466000BB4200D100E1202D00D100E104000F0089
:104670003200002320003900FDF758FED2B2092A8B
:10468000E8D90D9B9C466244D2B2E5E70B9A6123C0
:10469000920600D54123DBB20EA90A3B1F228C46AD
:1046A0000D93230062445C461295170055469B46C5
:1046B000B2460C9E08E03033DBB201357B55B44284
:1046C0000ED3202D0CD0040031002000FDF7F0FDAA
:1046D000CBB20929EFD90D9A94466344DBB2ECE7DB
:1046E00056465C46AA46129D3FE6099B1A0008CA38
:1046F000D91713925A184A409246DA0F1292002B99
:1047000008D1802310220B99DB000B4091430B91C1
:10471000002B2BD10B9A6123920600D541230EAAC0
:104720001F279446DBB20A3B0D9567445D4609930B
:10473000A3465446B2460C9E08E03033DBB2013546
:104740007B55B4420ED3202D0CD004003100200044
:10475000FDF7AEFDCBB20929EFD9099A944663441F
:10476000DBB2ECE756465C46AB460D9D0B9B2A0040
:1047700006930A9B21000593434604930C9B0898DB
:104780000393129B013602935B46019316AB009391
:104790004B46FEF71FFE139B05000993FFF727FB0F
:1047A00002230C931AE7099B04CB92461293002A2A
:1047B00008D1802310220B99DB000B4091430B9111
:1047C000002B2BD10B9A6123920600D541230EAA10
:1047D0001F279446DBB20A3B0D9567445D4609935B
:1047E000A3465446B2460C9E08E03033DBB2013596
:1047F0007B55B4420ED3202D0CD004003100200094
:10480000FDF756FDCBB20929EFD9099A94466344C6
:10481000DBB2ECE756465C46AB460D9D0B9B2A008F
:1048200006930A9B21000593434604930C9B08982A
:104830000393002302935B46019316AB00934B4610
:10484000FEF7C8FD129B050009930136FFF7CFFA6A
:10485000B44200D871E6149B54460E960F97AA46B0
:104860009846159E139D8EE6A64200D8FBE6139B44
:1048700056469846AA465C46129D76E508C9D81762
:104880001A1842400991FFF78AFB00230B9350E46A
:10489000099B04CB9346099359E52F00BBE50B9385
:1048A00001E6063B0C939AE60EB4012210B585B0E2
:1048B00007AC08CC01000094524204480394FFF76F
:1048C00071FA05B010BC08BC03B018472D330010B6
:1048D0000CB410B584B006AC08CC0A0000940100FA
:1048E00004480394FFF75EFA04B010BC08BC02B0A1
:1048F0001847C0462D33001000B583B00093130055
:104900000A0001000248FFF74DFA03B000BDC0469F
:104910002D33001000B585B0039101210290009362
:10492000034813004A4202A9FFF73CFA05B000BD54
:10493000B13500100FB410B50C4984B006AA08CAEE
:104940000C680392002C0BD00092012208485242BE
:1049500002A9A047012004B010BC08BC04B018474D
:10496000180000F069FA0020F5E7C0469C620020BC
:10497000A135001010B5094A0300146884B0002C5A
:1049800008D0012200910648524203A9A047012005
:1049900004B010BD00F050FA0020F9E79C6200203E
:1049A000A135001000BEFDE7094A03001068002889
:1049B00005D00849C3188B4207D8136070470648D2
:1049C0000449C31810608B42F7D901204042F5E733
:1049D000945E002000000420F06200200020704758
:1049E000012040427047C046030010B50800110086
:1049F000002B05D1044B1A685B6800F073F910BDF9
:104A000001204042FBE7C046A84E04100300013BD2
:104A100010B508001400012B06D801230022210044
:104A200000F0E0F8200010BD01204042FBE7C04646
:104A3000012040427047C046012040427047C046B6
:104A4000012040427047C0460300022200209A42E3
:104A50004041704710B5FFF7A5FFC04610B50C00E8
:104A600082B01900002A0AD0064B0192009302007E
:104A700023000548FFF75EFF0120FFF793FF034B7C
:104A80001A00F2E7D0510410E0510410904C0410C9
:104A900070B5FDF70DFB074D074EB54209D2002456
:104AA000013E761BB60808CD984723000134B34277
:104AB000F9D170BDCC490410F4490410030010B5BD
:104AC000080011001B68984710BDC046F0B5464667
:104AD0004F46D646C0B5437D80460E001700002BDA
:104AE00046D0002A3FDD4B1E9946244B0125002469
:104AF00000209A460DE04B461B5D0D3B5A42534148
:104B0000325DDBB20A2A0BD02B00013401359F4203
:104B10001ADD002CEFD14346325D1B7D0A2AF3D10A
:104B2000002BF1D1A04204DA4346211A1B68301849
:104B30009847434650461B68022198470134280095
:104B40002B0001359F42E4DC874204DD4346391ADD
:104B50001B6830189847F619013E33780D3B5A42CE
:104B6000534142461375E0BCBA46B146A846F0BD73
:104B70000368110030009847F5E7C0461052041052
:104B8000F0B5C6460C000968060000B5802906D0BD
:104B90004B1C23606418267180BCB846F0BD0F4BD7
:104BA0001D68002D16D0231D98460D4F02E02D697B
:104BB000002D0FD02B68002BF9D03B68002B01D0C3
:104BC000AB42F4D1280041462268FFF77FFF2D69F0
:104BD000002DEFD101230021DBE7C046885E0020D5
:104BE000905E0020F0B5DE4657464E464546E0B59D
:104BF00085B017001C0006000D00FDF77BF80023B0
:104C0000314A12184B41002B59DB304908008A46C3
:104C10003FF066FE01906B1C03D1300035F0BEFA08
:104C20000500002C26D12A4B98462A4B1C68002CE4
:104C300015D0002F21D1284F02E02469002C0ED07E
:104C40002368002BF9D03B68002B01D0A342F4D19C
:104C500020002A003100C0472469002CF0D1019BBC
:104C6000002B28D1280005B0F0BCBB46B246A946AF
:104C7000A046F0BD194B9846D7E7174B994602ABB3
:104C8000DF1D0A239B4602E02469002CE7D023683D
:104C9000002BF9D04B461B68002B01D0A342F3D167
:104CA0002A0031002000C0475B4601223900200065
:104CB0003B70C047E8E750463FF082FDD2E7012253
:104CC000074B5242A1E7C04640420F00902E002001
:104CD000BD4A0010885E0020905E0020CD4A001082
:104CE000FFFFFF7FF8B557464E464546DE469846DD
:104CF0001A4BE0B59A461A4B07000E0093469946A8
:104D0000184D53461C68002C03D115E02469002C73
:104D100012D02B68002B01D0A342F7D1A368002B3F
:104D2000F4D03100380098470028EFDDF0BCBB46D6
:104D3000B246A946A046F8BD4B465B6A984508D8DE
:104D40004A46926A5A4501D2984502D00220404212
:104D5000ECE701200021FCF7D7FFD2E7885E0020B6
:104D600000400540905E00200A4A1368002B05D1E0
:104D70000CE01A001B691032002B07D09842F8D1C2
:104D8000002902D103691360016170470029FCD03A
:104D90001060FAE7885E002010B500F0D5F910BD6C
:104DA000F0B5CE46474680B583B06B460600DD1DA4
:104DB0002870FCF79FFF00231A4A12184B41002B62
:104DC0002BDB1949080088463FF08AFD174B8146C6
:104DD0001C68002C14D0164F02E02469002C0FD060
:104DE0002368002BF9D03B68002B01D0A342F4D1FB
:104DF000200001222900FFF769FE2469002CEFD171
:104E00004B46002B05D1300003B0C0BCB946B046BC
:104E1000F0BD40463FF0D4FCF5E70122054B52427D
:104E2000CFE7C04640420F00902E0020885E002051
:104E3000905E0020FFFFFF7F70B5040035F0AEF9F3
:104E400001230100050001222000FFF7CBFE084BE3
:104E50001C68002C06D06368002B05D09847246995
:104E6000002CF8D1280070BD2469002CF3D1F9E79B
:104E7000885E0020F0B5CE46474680B5A5B0040058
:104E80000D00FCF737FF00232A4A12184B41002B74
:104E900049DB294E30003FF023FD00230700039338
:104EA00022002B00254803A9FFF734FD039B804611
:104EB000002B14D1224B1C68002C06D06368002BF9
:104EC0000BD098472469002CF8D1002F27D14046F9
:104ED00025B0C0BCB946B046F0BD2469ECE7184B1C
:104EE0001D689946002D22D0164C02E02D69002D38
:104EF00011D02B68002BF9D02368002B01D09D42E4
:104F0000F4D1039B28001A0004A90193FFF7DEFDEA
:104F10002D69002DEDD14B4603951C68CCE7300080
:104F20003FF04EFCD3E70122074B5242B1E7039515
:104F3000CBE7C04640420F00902E0020814B00106E
:104F4000885E0020905E0020FFFFFF7F0FB400B559
:104F500083B004A901C90191FFF78CFF03B008BC1D
:104F600004B018477047C04670B5040000200E001A
:104F700001F09CF8002835D0002001F0AFF800289F
:104F800030D0FCF7B7FE0023184A12184B41002B13
:104F900024DB174D28003FF0A3FC002822D000207E
:104FA00001F084F800280BD10120002103244042A5
:104FB00000F054FA644228003FF002FC200070BD6B
:104FC000002001F08BF80028EED0210032000020F4
:104FD00001F090F8041EEED1033CECE70122054BF2
:104FE0005242D6E703246442E8E7C04640420F003D
:104FF000DC620020FFFFFF7F10B5FCF77BFE002383
:105000000E4A12184B41002B13DB0D4C20003FF0D1
:1050100067FC00280CD001200021404200F01EFA5D
:10502000002001F0B3F80028F5D120003FF0C8FBC4
:1050300010BD0122034B5242E7E7C04640420F0039
:10504000DC620020FFFFFF7FF8B5DE46574680B5E3
:1050500005000C00FCF74EFE0023364A12184B41A7
:10506000002B5ADB344908008A463FF039FC0028FF
:1050700003D1C0BCBB46B246F8BD002001F016F813
:1050800000284ED00026002C43DD2C4B9B4614E01C
:10509000A919002001F0B6F80700012000214042C4
:1050A00000F0DCF9002001F071F8FCF723FE234B3F
:1050B000F61918605960B4422BDD002001F0C4F8E5
:1050C000A71B0200B84200DD3A00002AE0D101200F
:1050D0000021404200F0C2F9002001F057F8002002
:1050E00000F0E4FF002814D0002001F0ADF8002803
:1050F000E1D1FCF7FFFD5B460F001A685B680021F9
:1051000084460F4812184B419F4202D8D3D1944590
:10511000D1D950463FF054FBABE70122094B524234
:10512000A0E700200021054B1860596050463FF071
:1051300047FB9EE740420F00DC6200203830002031
:1051400020A10700FFFFFF7FD02310B51B061C68BE
:10515000FCF730FCFCF7C8FC0023A0420AD1084B46
:1051600008481B780368002B06D001210648FFF78A
:10517000FBFD0123180010BDFCF704FAF5E7C0465B
:105180007C120510DC6200207023002010B502485C
:1051900000F004F810BDC046C862002030B50025FC
:1051A00089B004000922002101A80095FEF79EF8AD
:1051B0000922002105A80495FEF798F84B236A46BA
:1051C0006846137004A90D223FF0EAFA152108225F
:1051D00020006944FEF790F809B030BD10B50022F8
:1051E0000021024800F0EEF810BDC046B85E002075
:1051F000044B1970002904D080219023024A8902AF
:10520000D1507047E7620020002011500B785B06F8
:1052100002D14B78052B00D070478A78014B1A6079
:10522000FAE7C04600001150F0B5C64600B54B790C
:105230000C791B0288782343CC787F21A407014096
:10524000C509A20F4F001400324E7A195201B2184C
:10525000907001206840507000205B055B0DD0709D
:105260001383D4768046CA00012D33D02A48844661
:10527000880162448446B4446046826040461060BF
:10528000002933D0254AC900904662464144516006
:105290003F223F339343022C00D15B0020487A1910
:1052A00001685201B218D1601E4ACB180360514008
:1052B0005340802288465201934228D84346A40690
:1052C0001C4380237F197F011B06F6191C4373685A
:1052D0001C6011E014488446880162448446B4444A
:1052E0006046826240461060002909D100236D01AA
:1052F000761973600D4BF360012080BCB846F0BD99
:10530000084AC9009046624641445162C0E7FCF732
:10531000C9FED3E7985E00208400105004001050AE
:10532000A0620020000010508000105000011050BA
:1053300010B53FF075FA10BD10B57F200C0020406D
:105340004000E409110000191A00034B4001C01885
:1053500000F038F8012010BD985E00207F22130075
:1053600010B50B400A420BD0C909802258004018E2
:10537000064940014018120100213FF0F1FA10BD2A
:1053800002220348C909521A8266EEE7985E00209D
:10539000002011507F22100010B508400A4200D1B1
:1053A00010BD0023C90940004018044940010818F5
:1053B00000220349C3703FF0D3FAF1E7985E002062
:1053C000FFF7FFFF70B5837E04000D001600002B71
:1053D00017D10023E38201332000A682A376256142
:1053E0003FF016FA002804D080219023084A890251
:1053F000D15020003FF004FA002805D00123237784
:1054000070BD3FF08DFAE4E720003FF071FAF7E756
:1054100000201150002070477047C0467047C046BA
:105420000020704700207047002070477047C0463A
:105430007047C0467047C0467047C046024B587818
:10544000431E9841C0B27047EC5C0020024B1878B4
:105450004007C00F7047C046EC5C0020F0B5DE4648
:1054600057464E464546E0B5C44B8BB01B78FF2BE4
:1054700000D12EE1C24BC34D9A4607AC2E6872692B
:10548000EFF3108172B61368002BFCD0BFF35F8F6F
:10549000B1613000210001F003FF7269B369BFF30D
:1054A0005F8F0021116083F31088002800D110E184
:1054B0006378082BE2D852469B00D3589F46636816
:1054C000002BDBD0A0689847D8E77F232179AE4E28
:1054D0000B405800CA093618B6183200012730327E
:1054E0001079B843107110790337B8431071002B4D
:1054F00000D1F7E0A54A337D1278934200D3E5E06E
:10550000A34A5B011268D318002B00D1E1E09E6929
:1055100062792078A368B047B0E79E4A1378002BE1
:1055200000D1D6E01378013BDBB213701378002B67
:10553000A4D10122944B01211B7893481343924A32
:10554000914E13703423D25C8A43C254C25C04204F
:105550008243F2540133F25C8A43F254F25C824398
:10556000F254237800209B4600F0E6FC6022237969
:105570001A40602A0DD0402A00D1BEE0DB06DB0EC7
:10558000012B00D10EE1022B00D1D0E0002B00D185
:10559000BFE020780021FFF7E1FE80212078FFF7AF
:1055A000DDFE6BE7784E3378DB0700D466E7FFF764
:1055B00043FF63E7744BDB78DB0700D45EE760688A
:1055C000FFF72CFF5AE7704E3378DB0700D455E71E
:1055D00030780007C00FFFF72DFF4FE76E496B4E85
:1055E00023788B466A4998468946310032780023F1
:1055F00046460027884611E04A4612687B019446D9
:105600006344002B6CD0DB683000984743461A781F
:105610000137FFB2511C3B008F4241DC9742EBD374
:105620009B1A5B015B44EEE75B49584E23788B463F
:10563000574998468946310032780023464600276C
:10564000884611E04A4612687B0194466344002B69
:1056500021D0DB683000984743461A780137FFB203
:10566000511C3B008F4205DCBA42EBD89B1A5B0110
:105670005B44EEE7444E542200213000FDF736FE35
:105680001022FF21301DFDF731FE30002022FF21C6
:105690001430FDF72BFE00F045FCFFF7C9FEEDE6E8
:1056A000394E542200213000FDF720FE1022FF2148
:1056B000301DFDF71BFE30002022FF211430FDF7C6
:1056C00015FE00F02FFC2379B370D7E6501C9842EA
:1056D0000EDA0BB0F0BCBB46B246A946A046F0BD00
:1056E000294EEEE762792078A36800F039FCC5E620
:1056F0009B1A294A5B01D31809E7284800F01CFCD3
:105700000121584608AAFFF785FE002800D0B5E61B
:105710003FE7202A00D14EE1002A00D039E7637923
:10572000092B00D935E71E4A9B00D3589F467023AA
:10573000217A0B4200D02CE77F26CB0998460E40F9
:10574000114B76009B1943441F7D104B1B789F42E1
:105750005ED3581CB84200DA49E1FF1A0E4B7F01B4
:10576000DF19002A00D146E1786900F0E5FB01214C
:1057700058467B6908AA9847C7E7C0468823002097
:105780007C520410445D0020EC5C0020E6620020A6
:1057900048490020E86200202453041015540010EA
:1057A000A0520410237A0F2B00D9F2E6D64A944671
:1057B000D64A63441B791278934234D3511C9942E0
:1057C00000DAE6E6D24E9B1A5B01F618706900F02B
:1057D000B3FB01215846736908AA9847002800D0F6
:1057E0004CE66022160023791E401A4200D0D0E613
:1057F00063790A3B012B00D9CBE600F09DFB63796E
:105800000A2B00D150E1584608A900F015FB35E6F7
:10581000C04B7F011B68DF19002A00D1EBE0002F8D
:1058200000D1B6E6A0E7BB4A5B011668F618002E69
:1058300000D1AEE6CAE7B44BA7795B789F42E2D0CD
:10584000B14B5B78002B00D06AE1AF4B5F70002F4B
:1058500000D155E1781EC0B2FBF71EF9002800D137
:105860004AE143780493022B00D045E10121C2793B
:10587000931152110B400A4012015B011343A24ADB
:105880002F3112788A4313439F4A13700923994694
:10589000C37882781B021343C31802939D4B814443
:1058A00098464F46029BBB4200D806E101227B7816
:1058B00000920B2B04D1FB7800933B78FF187B7888
:1058C000042B00D018E1029BB946DB1B9BB203936B
:1058D0008E4B1E7800231F0001931BE04246126886
:1058E0007B01D618002E00D106E149465846039A9E
:1058F000336998470590082803D9039A824200D358
:10590000DEE0824B01371E78FFB2731C01979F4285
:1059100000DDF1E0BE42E1D8019B9E1B7C4B76018D
:105920009C466644E1E7784B06AA5B780232137026
:105930005846012308A900F097FA9FE5E088030A7A
:10594000C0B20F2B00D924E673499A008A589746B3
:1059500008A800F0F7FA5846A179FFF73FFC0222A9
:10596000694B1B781343684A137087E5E388012B62
:1059700000D00EE60822644B1B789343624A1370F2
:1059800041E70220604B197806AB9A1C8B06890808
:10599000DB0F01400B4313805846022308A900F097
:1059A00063FA6BE5E388012B00D0F2E50822564B41
:1059B0001B781343E2E7237A0F2B00D9E9E5524A1B
:1059C0009446524A63441B791278934227D2514A33
:1059D0005B011668F618002E00D1DAE5706900F058
:1059E000ABFA01215846736908AA98478DE600274B
:1059F000002A00D0CDE50222637999469343012B1A
:105A000016D04B46002B00D0C3E53F4B06AA9B198E
:105A1000434430331B7902329B07DB0FBBE7511C39
:105A2000994200DAB5E53A4E9B1A5B01F618D5E7C4
:105A3000E388002B12D14B46012B24D0374B18782A
:105A4000FFF78CFC0221304B9B19434430331A7909
:105A50000A4301211A711A790A431A71002F00D1E1
:105A60000CE5786900F068FA7B6908AA01215846BC
:105A70009847002000F060FA3523234AD35CDB0707
:105A800000D5FBE4BFE6254B1878FFF783FC022125
:105A90001D4B9B19434430331A798A4349461A7186
:105AA0001A798A431A71D9E706AB9A1C5846012322
:105AB00008A9167000F0D8F9E0E4FFF7B7FCA2E6F9
:105AC0003B004F469946009B012B00D189E0009B8B
:105AD000002B75D000234E46B97805E016710133CE
